{
	"contracts/reputation.sol": {
		"Reputation": {
			"abi": [
				{
					"inputs": [
						{
							"internalType": "address",
							"name": "registrationAddress",
							"type": "address"
						}
					],
					"stateMutability": "nonpayable",
					"type": "constructor"
				},
				{
					"anonymous": false,
					"inputs": [
						{
							"indexed": true,
							"internalType": "address",
							"name": "insurance_provider",
							"type": "address"
						},
						{
							"indexed": false,
							"internalType": "uint256",
							"name": "repScore",
							"type": "uint256"
						}
					],
					"name": "ReputationUpdated",
					"type": "event"
				},
				{
					"inputs": [
						{
							"internalType": "address",
							"name": "",
							"type": "address"
						}
					],
					"name": "InsuranceProviderRep",
					"outputs": [
						{
							"internalType": "uint256",
							"name": "",
							"type": "uint256"
						}
					],
					"stateMutability": "view",
					"type": "function"
				},
				{
					"inputs": [
						{
							"internalType": "address",
							"name": "provider",
							"type": "address"
						}
					],
					"name": "addInsuranceProvider",
					"outputs": [],
					"stateMutability": "nonpayable",
					"type": "function"
				},
				{
					"inputs": [
						{
							"internalType": "address",
							"name": "insurance_provider",
							"type": "address"
						}
					],
					"name": "calculateRep",
					"outputs": [],
					"stateMutability": "nonpayable",
					"type": "function"
				},
				{
					"inputs": [
						{
							"internalType": "address",
							"name": "insurance_provider",
							"type": "address"
						},
						{
							"internalType": "bool",
							"name": "transactionSuccessful",
							"type": "bool"
						}
					],
					"name": "feedback",
					"outputs": [],
					"stateMutability": "nonpayable",
					"type": "function"
				}
			],
			"devdoc": {
				"kind": "dev",
				"methods": {},
				"version": 1
			},
			"evm": {
				"assembly": "    /* \"contracts/reputation.sol\":93:2987  contract Reputation {... */\n  mstore(0x40, 0x80)\n    /* \"contracts/reputation.sol\":821:966  constructor(address registrationAddress) {... */\n  callvalue\n  dup1\n  iszero\n  tag_1\n  jumpi\n  revert(0x00, 0x00)\ntag_1:\n  pop\n  mload(0x40)\n  sub(codesize, bytecodeSize)\n  dup1\n  bytecodeSize\n  dup4\n  codecopy\n  dup2\n  dup2\n  add\n  0x40\n  mstore\n  dup2\n  add\n  swap1\n  tag_2\n  swap2\n  swap1\n  tag_3\n  jump\t// in\ntag_2:\n    /* \"contracts/reputation.sol\":909:928  registrationAddress */\n  dup1\n    /* \"contracts/reputation.sol\":873:893  registrationContract */\n  0x00\n  0x00\n    /* \"contracts/reputation.sol\":873:929  registrationContract = Registration(registrationAddress) */\n  0x0100\n  exp\n  dup2\n  sload\n  dup2\n  0xffffffffffffffffffffffffffffffffffffffff\n  mul\n  not\n  and\n  swap1\n  dup4\n  0xffffffffffffffffffffffffffffffffffffffff\n  and\n  mul\n  or\n  swap1\n  sstore\n  pop\n    /* \"contracts/reputation.sol\":948:958  msg.sender */\n  caller\n    /* \"contracts/reputation.sol\":940:945  owner */\n  0x02\n  0x00\n    /* \"contracts/reputation.sol\":940:958  owner = msg.sender */\n  0x0100\n  exp\n  dup2\n  sload\n  dup2\n  0xffffffffffffffffffffffffffffffffffffffff\n  mul\n  not\n  and\n  swap1\n  dup4\n  0xffffffffffffffffffffffffffffffffffffffff\n  and\n  mul\n  or\n  swap1\n  sstore\n  pop\n    /* \"contracts/reputation.sol\":821:966  constructor(address registrationAddress) {... */\n  pop\n    /* \"contracts/reputation.sol\":93:2987  contract Reputation {... */\n  jump(tag_6)\n    /* \"#utility.yul\":88:205   */\ntag_8:\n    /* \"#utility.yul\":197:198   */\n  0x00\n    /* \"#utility.yul\":194:195   */\n  0x00\n    /* \"#utility.yul\":187:199   */\n  revert\n    /* \"#utility.yul\":334:460   */\ntag_10:\n    /* \"#utility.yul\":371:378   */\n  0x00\n    /* \"#utility.yul\":411:453   */\n  0xffffffffffffffffffffffffffffffffffffffff\n    /* \"#utility.yul\":404:409   */\n  dup3\n    /* \"#utility.yul\":400:454   */\n  and\n    /* \"#utility.yul\":389:454   */\n  swap1\n  pop\n    /* \"#utility.yul\":334:460   */\n  swap2\n  swap1\n  pop\n  jump\t// out\n    /* \"#utility.yul\":466:562   */\ntag_11:\n    /* \"#utility.yul\":503:510   */\n  0x00\n    /* \"#utility.yul\":532:556   */\n  tag_20\n    /* \"#utility.yul\":550:555   */\n  dup3\n    /* \"#utility.yul\":532:556   */\n  tag_10\n  jump\t// in\ntag_20:\n    /* \"#utility.yul\":521:556   */\n  swap1\n  pop\n    /* \"#utility.yul\":466:562   */\n  swap2\n  swap1\n  pop\n  jump\t// out\n    /* \"#utility.yul\":568:690   */\ntag_12:\n    /* \"#utility.yul\":641:665   */\n  tag_22\n    /* \"#utility.yul\":659:664   */\n  dup2\n    /* \"#utility.yul\":641:665   */\n  tag_11\n  jump\t// in\ntag_22:\n    /* \"#utility.yul\":634:639   */\n  dup2\n    /* \"#utility.yul\":631:666   */\n  eq\n    /* \"#utility.yul\":621:684   */\n  tag_23\n  jumpi\n    /* \"#utility.yul\":680:681   */\n  0x00\n    /* \"#utility.yul\":677:678   */\n  0x00\n    /* \"#utility.yul\":670:682   */\n  revert\n    /* \"#utility.yul\":621:684   */\ntag_23:\n    /* \"#utility.yul\":568:690   */\n  pop\n  jump\t// out\n    /* \"#utility.yul\":696:839   */\ntag_13:\n    /* \"#utility.yul\":753:758   */\n  0x00\n    /* \"#utility.yul\":784:790   */\n  dup2\n    /* \"#utility.yul\":778:791   */\n  mload\n    /* \"#utility.yul\":769:791   */\n  swap1\n  pop\n    /* \"#utility.yul\":800:833   */\n  tag_25\n    /* \"#utility.yul\":827:832   */\n  dup2\n    /* \"#utility.yul\":800:833   */\n  tag_12\n  jump\t// in\ntag_25:\n    /* \"#utility.yul\":696:839   */\n  swap3\n  swap2\n  pop\n  pop\n  jump\t// out\n    /* \"#utility.yul\":845:1196   */\ntag_3:\n    /* \"#utility.yul\":915:921   */\n  0x00\n    /* \"#utility.yul\":964:966   */\n  0x20\n    /* \"#utility.yul\":952:961   */\n  dup3\n    /* \"#utility.yul\":943:950   */\n  dup5\n    /* \"#utility.yul\":939:962   */\n  sub\n    /* \"#utility.yul\":935:967   */\n  slt\n    /* \"#utility.yul\":932:1051   */\n  iszero\n  tag_27\n  jumpi\n    /* \"#utility.yul\":970:1049   */\n  tag_28\n  tag_8\n  jump\t// in\ntag_28:\n    /* \"#utility.yul\":932:1051   */\ntag_27:\n    /* \"#utility.yul\":1090:1091   */\n  0x00\n    /* \"#utility.yul\":1115:1179   */\n  tag_29\n    /* \"#utility.yul\":1171:1178   */\n  dup5\n    /* \"#utility.yul\":1162:1168   */\n  dup3\n    /* \"#utility.yul\":1151:1160   */\n  dup6\n    /* \"#utility.yul\":1147:1169   */\n  add\n    /* \"#utility.yul\":1115:1179   */\n  tag_13\n  jump\t// in\ntag_29:\n    /* \"#utility.yul\":1105:1179   */\n  swap2\n  pop\n    /* \"#utility.yul\":1061:1189   */\n  pop\n    /* \"#utility.yul\":845:1196   */\n  swap3\n  swap2\n  pop\n  pop\n  jump\t// out\n    /* \"contracts/reputation.sol\":93:2987  contract Reputation {... */\ntag_6:\n  dataSize(sub_0)\n  dup1\n  dataOffset(sub_0)\n  0x00\n  codecopy\n  0x00\n  return\nstop\n\nsub_0: assembly {\n        /* \"contracts/reputation.sol\":93:2987  contract Reputation {... */\n      mstore(0x40, 0x80)\n      callvalue\n      dup1\n      iszero\n      tag_1\n      jumpi\n      revert(0x00, 0x00)\n    tag_1:\n      pop\n      jumpi(tag_2, lt(calldatasize, 0x04))\n      shr(0xe0, calldataload(0x00))\n      dup1\n      0x5a2449a9\n      eq\n      tag_3\n      jumpi\n      dup1\n      0x82e5a30a\n      eq\n      tag_4\n      jumpi\n      dup1\n      0x905af92b\n      eq\n      tag_5\n      jumpi\n      dup1\n      0xb079569e\n      eq\n      tag_6\n      jumpi\n    tag_2:\n      revert(0x00, 0x00)\n        /* \"contracts/reputation.sol\":974:1185  function addInsuranceProvider(address provider) public onlyOwner {... */\n    tag_3:\n      tag_7\n      0x04\n      dup1\n      calldatasize\n      sub\n      dup2\n      add\n      swap1\n      tag_8\n      swap2\n      swap1\n      tag_9\n      jump\t// in\n    tag_8:\n      tag_10\n      jump\t// in\n    tag_7:\n      stop\n        /* \"contracts/reputation.sol\":1778:2984  function calculateRep(address insurance_provider) external {... */\n    tag_4:\n      tag_11\n      0x04\n      dup1\n      calldatasize\n      sub\n      dup2\n      add\n      swap1\n      tag_12\n      swap2\n      swap1\n      tag_9\n      jump\t// in\n    tag_12:\n      tag_13\n      jump\t// in\n    tag_11:\n      stop\n        /* \"contracts/reputation.sol\":1193:1770  function feedback(address insurance_provider, bool transactionSuccessful) public onlyFarmer {... */\n    tag_5:\n      tag_14\n      0x04\n      dup1\n      calldatasize\n      sub\n      dup2\n      add\n      swap1\n      tag_15\n      swap2\n      swap1\n      tag_16\n      jump\t// in\n    tag_15:\n      tag_17\n      jump\t// in\n    tag_14:\n      stop\n        /* \"contracts/reputation.sol\":160:212  mapping(address => uint) public InsuranceProviderRep */\n    tag_6:\n      tag_18\n      0x04\n      dup1\n      calldatasize\n      sub\n      dup2\n      add\n      swap1\n      tag_19\n      swap2\n      swap1\n      tag_9\n      jump\t// in\n    tag_19:\n      tag_20\n      jump\t// in\n    tag_18:\n      mload(0x40)\n      tag_21\n      swap2\n      swap1\n      tag_22\n      jump\t// in\n    tag_21:\n      mload(0x40)\n      dup1\n      swap2\n      sub\n      swap1\n      return\n        /* \"contracts/reputation.sol\":974:1185  function addInsuranceProvider(address provider) public onlyOwner {... */\n    tag_10:\n        /* \"contracts/reputation.sol\":419:424  owner */\n      0x02\n      0x00\n      swap1\n      sload\n      swap1\n      0x0100\n      exp\n      swap1\n      div\n      0xffffffffffffffffffffffffffffffffffffffff\n      and\n        /* \"contracts/reputation.sol\":405:424  msg.sender == owner */\n      0xffffffffffffffffffffffffffffffffffffffff\n      and\n        /* \"contracts/reputation.sol\":405:415  msg.sender */\n      caller\n        /* \"contracts/reputation.sol\":405:424  msg.sender == owner */\n      0xffffffffffffffffffffffffffffffffffffffff\n      and\n      eq\n        /* \"contracts/reputation.sol\":397:451  require(msg.sender == owner, \"Sender not authorized.\") */\n      tag_24\n      jumpi\n      mload(0x40)\n      0x08c379a000000000000000000000000000000000000000000000000000000000\n      dup2\n      mstore\n      0x04\n      add\n      tag_25\n      swap1\n      tag_26\n      jump\t// in\n    tag_25:\n      mload(0x40)\n      dup1\n      swap2\n      sub\n      swap1\n      revert\n    tag_24:\n        /* \"contracts/reputation.sol\":1092:1093  0 */\n      0x00\n        /* \"contracts/reputation.sol\":1058:1078  InsuranceProviderRep */\n      0x01\n        /* \"contracts/reputation.sol\":1058:1088  InsuranceProviderRep[provider] */\n      0x00\n        /* \"contracts/reputation.sol\":1079:1087  provider */\n      dup4\n        /* \"contracts/reputation.sol\":1058:1088  InsuranceProviderRep[provider] */\n      0xffffffffffffffffffffffffffffffffffffffff\n      and\n      0xffffffffffffffffffffffffffffffffffffffff\n      and\n      dup2\n      mstore\n      0x20\n      add\n      swap1\n      dup2\n      mstore\n      0x20\n      add\n      0x00\n      keccak256\n      sload\n        /* \"contracts/reputation.sol\":1058:1093  InsuranceProviderRep[provider] == 0 */\n      eq\n        /* \"contracts/reputation.sol\":1050:1130  require(InsuranceProviderRep[provider] == 0, \"Insurance provider already added\") */\n      tag_28\n      jumpi\n      mload(0x40)\n      0x08c379a000000000000000000000000000000000000000000000000000000000\n      dup2\n      mstore\n      0x04\n      add\n      tag_29\n      swap1\n      tag_30\n      jump\t// in\n    tag_29:\n      mload(0x40)\n      dup1\n      swap2\n      sub\n      swap1\n      revert\n    tag_28:\n        /* \"contracts/reputation.sol\":1174:1176  80 */\n      0x50\n        /* \"contracts/reputation.sol\":1141:1161  InsuranceProviderRep */\n      0x01\n        /* \"contracts/reputation.sol\":1141:1171  InsuranceProviderRep[provider] */\n      0x00\n        /* \"contracts/reputation.sol\":1162:1170  provider */\n      dup4\n        /* \"contracts/reputation.sol\":1141:1171  InsuranceProviderRep[provider] */\n      0xffffffffffffffffffffffffffffffffffffffff\n      and\n      0xffffffffffffffffffffffffffffffffffffffff\n      and\n      dup2\n      mstore\n      0x20\n      add\n      swap1\n      dup2\n      mstore\n      0x20\n      add\n      0x00\n      keccak256\n        /* \"contracts/reputation.sol\":1141:1176  InsuranceProviderRep[provider] = 80 */\n      dup2\n      swap1\n      sstore\n      pop\n        /* \"contracts/reputation.sol\":974:1185  function addInsuranceProvider(address provider) public onlyOwner {... */\n      pop\n      jump\t// out\n        /* \"contracts/reputation.sol\":1778:2984  function calculateRep(address insurance_provider) external {... */\n    tag_13:\n        /* \"contracts/reputation.sol\":1856:1870  FarmerFeedback */\n      0x03\n        /* \"contracts/reputation.sol\":1856:1882  FarmerFeedback[msg.sender] */\n      0x00\n        /* \"contracts/reputation.sol\":1871:1881  msg.sender */\n      caller\n        /* \"contracts/reputation.sol\":1856:1882  FarmerFeedback[msg.sender] */\n      0xffffffffffffffffffffffffffffffffffffffff\n      and\n      0xffffffffffffffffffffffffffffffffffffffff\n      and\n      dup2\n      mstore\n      0x20\n      add\n      swap1\n      dup2\n      mstore\n      0x20\n      add\n      0x00\n      keccak256\n        /* \"contracts/reputation.sol\":1856:1902  FarmerFeedback[msg.sender].insurance_providers */\n      0x00\n      add\n        /* \"contracts/reputation.sol\":1856:1922  FarmerFeedback[msg.sender].insurance_providers[insurance_provider] */\n      0x00\n        /* \"contracts/reputation.sol\":1903:1921  insurance_provider */\n      dup3\n        /* \"contracts/reputation.sol\":1856:1922  FarmerFeedback[msg.sender].insurance_providers[insurance_provider] */\n      0xffffffffffffffffffffffffffffffffffffffff\n      and\n      0xffffffffffffffffffffffffffffffffffffffff\n      and\n      dup2\n      mstore\n      0x20\n      add\n      swap1\n      dup2\n      mstore\n      0x20\n      add\n      0x00\n      keccak256\n      0x00\n      swap1\n      sload\n      swap1\n      0x0100\n      exp\n      swap1\n      div\n      0xff\n      and\n        /* \"contracts/reputation.sol\":1848:1980  require(FarmerFeedback[msg.sender].insurance_providers[insurance_provider], ... */\n      tag_32\n      jumpi\n      mload(0x40)\n      0x08c379a000000000000000000000000000000000000000000000000000000000\n      dup2\n      mstore\n      0x04\n      add\n      tag_33\n      swap1\n      tag_34\n      jump\t// in\n    tag_33:\n      mload(0x40)\n      dup1\n      swap2\n      sub\n      swap1\n      revert\n    tag_32:\n        /* \"contracts/reputation.sol\":1993:2000  uint cr */\n      0x00\n        /* \"contracts/reputation.sol\":2015:2029  FarmerFeedback */\n      0x03\n        /* \"contracts/reputation.sol\":2015:2041  FarmerFeedback[msg.sender] */\n      0x00\n        /* \"contracts/reputation.sol\":2030:2040  msg.sender */\n      caller\n        /* \"contracts/reputation.sol\":2015:2041  FarmerFeedback[msg.sender] */\n      0xffffffffffffffffffffffffffffffffffffffff\n      and\n      0xffffffffffffffffffffffffffffffffffffffff\n      and\n      dup2\n      mstore\n      0x20\n      add\n      swap1\n      dup2\n      mstore\n      0x20\n      add\n      0x00\n      keccak256\n        /* \"contracts/reputation.sol\":2015:2048  FarmerFeedback[msg.sender].status */\n      0x01\n      add\n        /* \"contracts/reputation.sol\":2015:2068  FarmerFeedback[msg.sender].status[insurance_provider] */\n      0x00\n        /* \"contracts/reputation.sol\":2049:2067  insurance_provider */\n      dup4\n        /* \"contracts/reputation.sol\":2015:2068  FarmerFeedback[msg.sender].status[insurance_provider] */\n      0xffffffffffffffffffffffffffffffffffffffff\n      and\n      0xffffffffffffffffffffffffffffffffffffffff\n      and\n      dup2\n      mstore\n      0x20\n      add\n      swap1\n      dup2\n      mstore\n      0x20\n      add\n      0x00\n      keccak256\n      0x00\n      swap1\n      sload\n      swap1\n      0x0100\n      exp\n      swap1\n      div\n      0xff\n      and\n        /* \"contracts/reputation.sol\":2011:2291  if (FarmerFeedback[msg.sender].status[insurance_provider]) {... */\n      iszero\n      tag_35\n      jumpi\n        /* \"contracts/reputation.sol\":272:273  4 */\n      0x04\n        /* \"contracts/reputation.sol\":2141:2142  4 */\n      dup1\n        /* \"contracts/reputation.sol\":2141:2161  4 * adjusting_factor */\n      tag_36\n      swap2\n      swap1\n      tag_37\n      jump\t// in\n    tag_36:\n        /* \"contracts/reputation.sol\":2134:2136  95 */\n      0x5f\n        /* \"contracts/reputation.sol\":2091:2111  InsuranceProviderRep */\n      0x01\n        /* \"contracts/reputation.sol\":2091:2131  InsuranceProviderRep[insurance_provider] */\n      0x00\n        /* \"contracts/reputation.sol\":2112:2130  insurance_provider */\n      dup6\n        /* \"contracts/reputation.sol\":2091:2131  InsuranceProviderRep[insurance_provider] */\n      0xffffffffffffffffffffffffffffffffffffffff\n      and\n      0xffffffffffffffffffffffffffffffffffffffff\n      and\n      dup2\n      mstore\n      0x20\n      add\n      swap1\n      dup2\n      mstore\n      0x20\n      add\n      0x00\n      keccak256\n      sload\n        /* \"contracts/reputation.sol\":2091:2136  InsuranceProviderRep[insurance_provider] * 95 */\n      tag_38\n      swap2\n      swap1\n      tag_37\n      jump\t// in\n    tag_38:\n        /* \"contracts/reputation.sol\":2090:2162  (InsuranceProviderRep[insurance_provider] * 95) / (4 * adjusting_factor) */\n      tag_39\n      swap2\n      swap1\n      tag_40\n      jump\t// in\n    tag_39:\n        /* \"contracts/reputation.sol\":2085:2162  cr = (InsuranceProviderRep[insurance_provider] * 95) / (4 * adjusting_factor) */\n      swap1\n      pop\n        /* \"contracts/reputation.sol\":2011:2291  if (FarmerFeedback[msg.sender].status[insurance_provider]) {... */\n      jump(tag_41)\n    tag_35:\n        /* \"contracts/reputation.sol\":272:273  4 */\n      0x04\n        /* \"contracts/reputation.sol\":2256:2258  10 */\n      0x0a\n        /* \"contracts/reputation.sol\":2256:2277  10 - adjusting_factor */\n      tag_42\n      swap2\n      swap1\n      tag_43\n      jump\t// in\n    tag_42:\n        /* \"contracts/reputation.sol\":2251:2252  4 */\n      0x04\n        /* \"contracts/reputation.sol\":2251:2278  4 * (10 - adjusting_factor) */\n      tag_44\n      swap2\n      swap1\n      tag_37\n      jump\t// in\n    tag_44:\n        /* \"contracts/reputation.sol\":2244:2246  95 */\n      0x5f\n        /* \"contracts/reputation.sol\":2201:2221  InsuranceProviderRep */\n      0x01\n        /* \"contracts/reputation.sol\":2201:2241  InsuranceProviderRep[insurance_provider] */\n      0x00\n        /* \"contracts/reputation.sol\":2222:2240  insurance_provider */\n      dup6\n        /* \"contracts/reputation.sol\":2201:2241  InsuranceProviderRep[insurance_provider] */\n      0xffffffffffffffffffffffffffffffffffffffff\n      and\n      0xffffffffffffffffffffffffffffffffffffffff\n      and\n      dup2\n      mstore\n      0x20\n      add\n      swap1\n      dup2\n      mstore\n      0x20\n      add\n      0x00\n      keccak256\n      sload\n        /* \"contracts/reputation.sol\":2201:2246  InsuranceProviderRep[insurance_provider] * 95 */\n      tag_45\n      swap2\n      swap1\n      tag_37\n      jump\t// in\n    tag_45:\n        /* \"contracts/reputation.sol\":2200:2279  (InsuranceProviderRep[insurance_provider] * 95) / (4 * (10 - adjusting_factor)) */\n      tag_46\n      swap2\n      swap1\n      tag_40\n      jump\t// in\n    tag_46:\n        /* \"contracts/reputation.sol\":2195:2279  cr = (InsuranceProviderRep[insurance_provider] * 95) / (4 * (10 - adjusting_factor)) */\n      swap1\n      pop\n        /* \"contracts/reputation.sol\":2011:2291  if (FarmerFeedback[msg.sender].status[insurance_provider]) {... */\n    tag_41:\n        /* \"contracts/reputation.sol\":2317:2320  100 */\n      0x64\n        /* \"contracts/reputation.sol\":2311:2320  cr /= 100 */\n      dup2\n      tag_47\n      swap2\n      swap1\n      tag_40\n      jump\t// in\n    tag_47:\n      swap1\n      pop\n        /* \"contracts/reputation.sol\":2345:2359  FarmerFeedback */\n      0x03\n        /* \"contracts/reputation.sol\":2345:2371  FarmerFeedback[msg.sender] */\n      0x00\n        /* \"contracts/reputation.sol\":2360:2370  msg.sender */\n      caller\n        /* \"contracts/reputation.sol\":2345:2371  FarmerFeedback[msg.sender] */\n      0xffffffffffffffffffffffffffffffffffffffff\n      and\n      0xffffffffffffffffffffffffffffffffffffffff\n      and\n      dup2\n      mstore\n      0x20\n      add\n      swap1\n      dup2\n      mstore\n      0x20\n      add\n      0x00\n      keccak256\n        /* \"contracts/reputation.sol\":2345:2378  FarmerFeedback[msg.sender].status */\n      0x01\n      add\n        /* \"contracts/reputation.sol\":2345:2398  FarmerFeedback[msg.sender].status[insurance_provider] */\n      0x00\n        /* \"contracts/reputation.sol\":2379:2397  insurance_provider */\n      dup4\n        /* \"contracts/reputation.sol\":2345:2398  FarmerFeedback[msg.sender].status[insurance_provider] */\n      0xffffffffffffffffffffffffffffffffffffffff\n      and\n      0xffffffffffffffffffffffffffffffffffffffff\n      and\n      dup2\n      mstore\n      0x20\n      add\n      swap1\n      dup2\n      mstore\n      0x20\n      add\n      0x00\n      keccak256\n      0x00\n      swap1\n      sload\n      swap1\n      0x0100\n      exp\n      swap1\n      div\n      0xff\n      and\n        /* \"contracts/reputation.sol\":2341:2743  if (FarmerFeedback[msg.sender].status[insurance_provider]) {... */\n      iszero\n      tag_48\n      jumpi\n        /* \"contracts/reputation.sol\":2459:2461  cr */\n      dup1\n        /* \"contracts/reputation.sol\":2415:2435  InsuranceProviderRep */\n      0x01\n        /* \"contracts/reputation.sol\":2415:2455  InsuranceProviderRep[insurance_provider] */\n      0x00\n        /* \"contracts/reputation.sol\":2436:2454  insurance_provider */\n      dup5\n        /* \"contracts/reputation.sol\":2415:2455  InsuranceProviderRep[insurance_provider] */\n      0xffffffffffffffffffffffffffffffffffffffff\n      and\n      0xffffffffffffffffffffffffffffffffffffffff\n      and\n      dup2\n      mstore\n      0x20\n      add\n      swap1\n      dup2\n      mstore\n      0x20\n      add\n      0x00\n      keccak256\n      0x00\n        /* \"contracts/reputation.sol\":2415:2461  InsuranceProviderRep[insurance_provider] += cr */\n      dup3\n      dup3\n      sload\n      tag_49\n      swap2\n      swap1\n      tag_50\n      jump\t// in\n    tag_49:\n      swap3\n      pop\n      pop\n      dup2\n      swap1\n      sstore\n      pop\n        /* \"contracts/reputation.sol\":2341:2743  if (FarmerFeedback[msg.sender].status[insurance_provider]) {... */\n      jump(tag_51)\n    tag_48:\n        /* \"contracts/reputation.sol\":2541:2543  cr */\n      dup1\n        /* \"contracts/reputation.sol\":2498:2518  InsuranceProviderRep */\n      0x01\n        /* \"contracts/reputation.sol\":2498:2538  InsuranceProviderRep[insurance_provider] */\n      0x00\n        /* \"contracts/reputation.sol\":2519:2537  insurance_provider */\n      dup5\n        /* \"contracts/reputation.sol\":2498:2538  InsuranceProviderRep[insurance_provider] */\n      0xffffffffffffffffffffffffffffffffffffffff\n      and\n      0xffffffffffffffffffffffffffffffffffffffff\n      and\n      dup2\n      mstore\n      0x20\n      add\n      swap1\n      dup2\n      mstore\n      0x20\n      add\n      0x00\n      keccak256\n      sload\n        /* \"contracts/reputation.sol\":2498:2543  InsuranceProviderRep[insurance_provider] > cr */\n      gt\n        /* \"contracts/reputation.sol\":2494:2732  if (InsuranceProviderRep[insurance_provider] > cr) {... */\n      iszero\n      tag_52\n      jumpi\n        /* \"contracts/reputation.sol\":2608:2610  cr */\n      dup1\n        /* \"contracts/reputation.sol\":2564:2584  InsuranceProviderRep */\n      0x01\n        /* \"contracts/reputation.sol\":2564:2604  InsuranceProviderRep[insurance_provider] */\n      0x00\n        /* \"contracts/reputation.sol\":2585:2603  insurance_provider */\n      dup5\n        /* \"contracts/reputation.sol\":2564:2604  InsuranceProviderRep[insurance_provider] */\n      0xffffffffffffffffffffffffffffffffffffffff\n      and\n      0xffffffffffffffffffffffffffffffffffffffff\n      and\n      dup2\n      mstore\n      0x20\n      add\n      swap1\n      dup2\n      mstore\n      0x20\n      add\n      0x00\n      keccak256\n      0x00\n        /* \"contracts/reputation.sol\":2564:2610  InsuranceProviderRep[insurance_provider] -= cr */\n      dup3\n      dup3\n      sload\n      tag_53\n      swap2\n      swap1\n      tag_43\n      jump\t// in\n    tag_53:\n      swap3\n      pop\n      pop\n      dup2\n      swap1\n      sstore\n      pop\n        /* \"contracts/reputation.sol\":2494:2732  if (InsuranceProviderRep[insurance_provider] > cr) {... */\n      jump(tag_54)\n    tag_52:\n        /* \"contracts/reputation.sol\":2694:2695  0 */\n      0x00\n        /* \"contracts/reputation.sol\":2651:2671  InsuranceProviderRep */\n      0x01\n        /* \"contracts/reputation.sol\":2651:2691  InsuranceProviderRep[insurance_provider] */\n      0x00\n        /* \"contracts/reputation.sol\":2672:2690  insurance_provider */\n      dup5\n        /* \"contracts/reputation.sol\":2651:2691  InsuranceProviderRep[insurance_provider] */\n      0xffffffffffffffffffffffffffffffffffffffff\n      and\n      0xffffffffffffffffffffffffffffffffffffffff\n      and\n      dup2\n      mstore\n      0x20\n      add\n      swap1\n      dup2\n      mstore\n      0x20\n      add\n      0x00\n      keccak256\n        /* \"contracts/reputation.sol\":2651:2695  InsuranceProviderRep[insurance_provider] = 0 */\n      dup2\n      swap1\n      sstore\n      pop\n        /* \"contracts/reputation.sol\":2494:2732  if (InsuranceProviderRep[insurance_provider] > cr) {... */\n    tag_54:\n        /* \"contracts/reputation.sol\":2341:2743  if (FarmerFeedback[msg.sender].status[insurance_provider]) {... */\n    tag_51:\n        /* \"contracts/reputation.sol\":2802:2805  100 */\n      0x64\n        /* \"contracts/reputation.sol\":2759:2779  InsuranceProviderRep */\n      0x01\n        /* \"contracts/reputation.sol\":2759:2799  InsuranceProviderRep[insurance_provider] */\n      0x00\n        /* \"contracts/reputation.sol\":2780:2798  insurance_provider */\n      dup5\n        /* \"contracts/reputation.sol\":2759:2799  InsuranceProviderRep[insurance_provider] */\n      0xffffffffffffffffffffffffffffffffffffffff\n      and\n      0xffffffffffffffffffffffffffffffffffffffff\n      and\n      dup2\n      mstore\n      0x20\n      add\n      swap1\n      dup2\n      mstore\n      0x20\n      add\n      0x00\n      keccak256\n      sload\n        /* \"contracts/reputation.sol\":2759:2805  InsuranceProviderRep[insurance_provider] > 100 */\n      gt\n        /* \"contracts/reputation.sol\":2755:2880  if (InsuranceProviderRep[insurance_provider] > 100) {... */\n      iszero\n      tag_55\n      jumpi\n        /* \"contracts/reputation.sol\":2865:2868  100 */\n      0x64\n        /* \"contracts/reputation.sol\":2822:2842  InsuranceProviderRep */\n      0x01\n        /* \"contracts/reputation.sol\":2822:2862  InsuranceProviderRep[insurance_provider] */\n      0x00\n        /* \"contracts/reputation.sol\":2843:2861  insurance_provider */\n      dup5\n        /* \"contracts/reputation.sol\":2822:2862  InsuranceProviderRep[insurance_provider] */\n      0xffffffffffffffffffffffffffffffffffffffff\n      and\n      0xffffffffffffffffffffffffffffffffffffffff\n      and\n      dup2\n      mstore\n      0x20\n      add\n      swap1\n      dup2\n      mstore\n      0x20\n      add\n      0x00\n      keccak256\n        /* \"contracts/reputation.sol\":2822:2868  InsuranceProviderRep[insurance_provider] = 100 */\n      dup2\n      swap1\n      sstore\n      pop\n        /* \"contracts/reputation.sol\":2755:2880  if (InsuranceProviderRep[insurance_provider] > 100) {... */\n    tag_55:\n        /* \"contracts/reputation.sol\":2915:2933  insurance_provider */\n      dup2\n        /* \"contracts/reputation.sol\":2897:2976  ReputationUpdated(insurance_provider, InsuranceProviderRep[insurance_provider]) */\n      0xffffffffffffffffffffffffffffffffffffffff\n      and\n      0xfc577563f1b9a0461e24abef1e1fcc0d33d3d881f20b5df6dda59de4aae2c821\n        /* \"contracts/reputation.sol\":2935:2955  InsuranceProviderRep */\n      0x01\n        /* \"contracts/reputation.sol\":2935:2975  InsuranceProviderRep[insurance_provider] */\n      0x00\n        /* \"contracts/reputation.sol\":2956:2974  insurance_provider */\n      dup6\n        /* \"contracts/reputation.sol\":2935:2975  InsuranceProviderRep[insurance_provider] */\n      0xffffffffffffffffffffffffffffffffffffffff\n      and\n      0xffffffffffffffffffffffffffffffffffffffff\n      and\n      dup2\n      mstore\n      0x20\n      add\n      swap1\n      dup2\n      mstore\n      0x20\n      add\n      0x00\n      keccak256\n      sload\n        /* \"contracts/reputation.sol\":2897:2976  ReputationUpdated(insurance_provider, InsuranceProviderRep[insurance_provider]) */\n      mload(0x40)\n      tag_56\n      swap2\n      swap1\n      tag_22\n      jump\t// in\n    tag_56:\n      mload(0x40)\n      dup1\n      swap2\n      sub\n      swap1\n      log2\n        /* \"contracts/reputation.sol\":1837:2984  {... */\n      pop\n        /* \"contracts/reputation.sol\":1778:2984  function calculateRep(address insurance_provider) external {... */\n      pop\n      jump\t// out\n        /* \"contracts/reputation.sol\":1193:1770  function feedback(address insurance_provider, bool transactionSuccessful) public onlyFarmer {... */\n    tag_17:\n        /* \"contracts/reputation.sol\":520:540  registrationContract */\n      0x00\n      0x00\n      swap1\n      sload\n      swap1\n      0x0100\n      exp\n      swap1\n      div\n      0xffffffffffffffffffffffffffffffffffffffff\n      and\n        /* \"contracts/reputation.sol\":520:553  registrationContract.FarmerExists */\n      0xffffffffffffffffffffffffffffffffffffffff\n      and\n      0x7e0b782d\n        /* \"contracts/reputation.sol\":554:564  msg.sender */\n      caller\n        /* \"contracts/reputation.sol\":520:565  registrationContract.FarmerExists(msg.sender) */\n      mload(0x40)\n      dup3\n      0xffffffff\n      and\n      0xe0\n      shl\n      dup2\n      mstore\n      0x04\n      add\n      tag_58\n      swap2\n      swap1\n      tag_59\n      jump\t// in\n    tag_58:\n      0x20\n      mload(0x40)\n      dup1\n      dup4\n      sub\n      dup2\n      dup7\n      gas\n      staticcall\n      iszero\n      dup1\n      iszero\n      tag_61\n      jumpi\n      returndatacopy(0x00, 0x00, returndatasize)\n      revert(0x00, returndatasize)\n    tag_61:\n      pop\n      pop\n      pop\n      pop\n      mload(0x40)\n      returndatasize\n      not(0x1f)\n      0x1f\n      dup3\n      add\n      and\n      dup3\n      add\n      dup1\n      0x40\n      mstore\n      pop\n      dup2\n      add\n      swap1\n      tag_62\n      swap2\n      swap1\n      tag_63\n      jump\t// in\n    tag_62:\n        /* \"contracts/reputation.sol\":512:592  require(registrationContract.FarmerExists(msg.sender), \"Sender not authorized.\") */\n      tag_64\n      jumpi\n      mload(0x40)\n      0x08c379a000000000000000000000000000000000000000000000000000000000\n      dup2\n      mstore\n      0x04\n      add\n      tag_65\n      swap1\n      tag_26\n      jump\t// in\n    tag_65:\n      mload(0x40)\n      dup1\n      swap2\n      sub\n      swap1\n      revert\n    tag_64:\n        /* \"contracts/reputation.sol\":1305:1319  FarmerFeedback */\n      0x03\n        /* \"contracts/reputation.sol\":1305:1331  FarmerFeedback[msg.sender] */\n      0x00\n        /* \"contracts/reputation.sol\":1320:1330  msg.sender */\n      caller\n        /* \"contracts/reputation.sol\":1305:1331  FarmerFeedback[msg.sender] */\n      0xffffffffffffffffffffffffffffffffffffffff\n      and\n      0xffffffffffffffffffffffffffffffffffffffff\n      and\n      dup2\n      mstore\n      0x20\n      add\n      swap1\n      dup2\n      mstore\n      0x20\n      add\n      0x00\n      keccak256\n        /* \"contracts/reputation.sol\":1305:1351  FarmerFeedback[msg.sender].insurance_providers */\n      0x00\n      add\n        /* \"contracts/reputation.sol\":1305:1371  FarmerFeedback[msg.sender].insurance_providers[insurance_provider] */\n      0x00\n        /* \"contracts/reputation.sol\":1352:1370  insurance_provider */\n      dup4\n        /* \"contracts/reputation.sol\":1305:1371  FarmerFeedback[msg.sender].insurance_providers[insurance_provider] */\n      0xffffffffffffffffffffffffffffffffffffffff\n      and\n      0xffffffffffffffffffffffffffffffffffffffff\n      and\n      dup2\n      mstore\n      0x20\n      add\n      swap1\n      dup2\n      mstore\n      0x20\n      add\n      0x00\n      keccak256\n      0x00\n      swap1\n      sload\n      swap1\n      0x0100\n      exp\n      swap1\n      div\n      0xff\n      and\n        /* \"contracts/reputation.sol\":1304:1371  !FarmerFeedback[msg.sender].insurance_providers[insurance_provider] */\n      iszero\n        /* \"contracts/reputation.sol\":1296:1448  require(!FarmerFeedback[msg.sender].insurance_providers[insurance_provider], ... */\n      tag_67\n      jumpi\n      mload(0x40)\n      0x08c379a000000000000000000000000000000000000000000000000000000000\n      dup2\n      mstore\n      0x04\n      add\n      tag_68\n      swap1\n      tag_69\n      jump\t// in\n    tag_68:\n      mload(0x40)\n      dup1\n      swap2\n      sub\n      swap1\n      revert\n    tag_67:\n        /* \"contracts/reputation.sol\":1467:1487  registrationContract */\n      0x00\n      0x00\n      swap1\n      sload\n      swap1\n      0x0100\n      exp\n      swap1\n      div\n      0xffffffffffffffffffffffffffffffffffffffff\n      and\n        /* \"contracts/reputation.sol\":1467:1511  registrationContract.InsuranceProviderExists */\n      0xffffffffffffffffffffffffffffffffffffffff\n      and\n      0xe354fed0\n        /* \"contracts/reputation.sol\":1512:1530  insurance_provider */\n      dup4\n        /* \"contracts/reputation.sol\":1467:1531  registrationContract.InsuranceProviderExists(insurance_provider) */\n      mload(0x40)\n      dup3\n      0xffffffff\n      and\n      0xe0\n      shl\n      dup2\n      mstore\n      0x04\n      add\n      tag_70\n      swap2\n      swap1\n      tag_59\n      jump\t// in\n    tag_70:\n      0x20\n      mload(0x40)\n      dup1\n      dup4\n      sub\n      dup2\n      dup7\n      gas\n      staticcall\n      iszero\n      dup1\n      iszero\n      tag_72\n      jumpi\n      returndatacopy(0x00, 0x00, returndatasize)\n      revert(0x00, returndatasize)\n    tag_72:\n      pop\n      pop\n      pop\n      pop\n      mload(0x40)\n      returndatasize\n      not(0x1f)\n      0x1f\n      dup3\n      add\n      and\n      dup3\n      add\n      dup1\n      0x40\n      mstore\n      pop\n      dup2\n      add\n      swap1\n      tag_73\n      swap2\n      swap1\n      tag_63\n      jump\t// in\n    tag_73:\n        /* \"contracts/reputation.sol\":1459:1588  require(registrationContract.InsuranceProviderExists(insurance_provider), ... */\n      tag_74\n      jumpi\n      mload(0x40)\n      0x08c379a000000000000000000000000000000000000000000000000000000000\n      dup2\n      mstore\n      0x04\n      add\n      tag_75\n      swap1\n      tag_76\n      jump\t// in\n    tag_75:\n      mload(0x40)\n      dup1\n      swap2\n      sub\n      swap1\n      revert\n    tag_74:\n        /* \"contracts/reputation.sol\":1670:1674  true */\n      0x01\n        /* \"contracts/reputation.sol\":1601:1615  FarmerFeedback */\n      0x03\n        /* \"contracts/reputation.sol\":1601:1627  FarmerFeedback[msg.sender] */\n      0x00\n        /* \"contracts/reputation.sol\":1616:1626  msg.sender */\n      caller\n        /* \"contracts/reputation.sol\":1601:1627  FarmerFeedback[msg.sender] */\n      0xffffffffffffffffffffffffffffffffffffffff\n      and\n      0xffffffffffffffffffffffffffffffffffffffff\n      and\n      dup2\n      mstore\n      0x20\n      add\n      swap1\n      dup2\n      mstore\n      0x20\n      add\n      0x00\n      keccak256\n        /* \"contracts/reputation.sol\":1601:1647  FarmerFeedback[msg.sender].insurance_providers */\n      0x00\n      add\n        /* \"contracts/reputation.sol\":1601:1667  FarmerFeedback[msg.sender].insurance_providers[insurance_provider] */\n      0x00\n        /* \"contracts/reputation.sol\":1648:1666  insurance_provider */\n      dup5\n        /* \"contracts/reputation.sol\":1601:1667  FarmerFeedback[msg.sender].insurance_providers[insurance_provider] */\n      0xffffffffffffffffffffffffffffffffffffffff\n      and\n      0xffffffffffffffffffffffffffffffffffffffff\n      and\n      dup2\n      mstore\n      0x20\n      add\n      swap1\n      dup2\n      mstore\n      0x20\n      add\n      0x00\n      keccak256\n      0x00\n        /* \"contracts/reputation.sol\":1601:1674  FarmerFeedback[msg.sender].insurance_providers[insurance_provider] = true */\n      0x0100\n      exp\n      dup2\n      sload\n      dup2\n      0xff\n      mul\n      not\n      and\n      swap1\n      dup4\n      iszero\n      iszero\n      mul\n      or\n      swap1\n      sstore\n      pop\n        /* \"contracts/reputation.sol\":1741:1762  transactionSuccessful */\n      dup1\n        /* \"contracts/reputation.sol\":1685:1699  FarmerFeedback */\n      0x03\n        /* \"contracts/reputation.sol\":1685:1711  FarmerFeedback[msg.sender] */\n      0x00\n        /* \"contracts/reputation.sol\":1700:1710  msg.sender */\n      caller\n        /* \"contracts/reputation.sol\":1685:1711  FarmerFeedback[msg.sender] */\n      0xffffffffffffffffffffffffffffffffffffffff\n      and\n      0xffffffffffffffffffffffffffffffffffffffff\n      and\n      dup2\n      mstore\n      0x20\n      add\n      swap1\n      dup2\n      mstore\n      0x20\n      add\n      0x00\n      keccak256\n        /* \"contracts/reputation.sol\":1685:1718  FarmerFeedback[msg.sender].status */\n      0x01\n      add\n        /* \"contracts/reputation.sol\":1685:1738  FarmerFeedback[msg.sender].status[insurance_provider] */\n      0x00\n        /* \"contracts/reputation.sol\":1719:1737  insurance_provider */\n      dup5\n        /* \"contracts/reputation.sol\":1685:1738  FarmerFeedback[msg.sender].status[insurance_provider] */\n      0xffffffffffffffffffffffffffffffffffffffff\n      and\n      0xffffffffffffffffffffffffffffffffffffffff\n      and\n      dup2\n      mstore\n      0x20\n      add\n      swap1\n      dup2\n      mstore\n      0x20\n      add\n      0x00\n      keccak256\n      0x00\n        /* \"contracts/reputation.sol\":1685:1762  FarmerFeedback[msg.sender].status[insurance_provider] = transactionSuccessful */\n      0x0100\n      exp\n      dup2\n      sload\n      dup2\n      0xff\n      mul\n      not\n      and\n      swap1\n      dup4\n      iszero\n      iszero\n      mul\n      or\n      swap1\n      sstore\n      pop\n        /* \"contracts/reputation.sol\":1193:1770  function feedback(address insurance_provider, bool transactionSuccessful) public onlyFarmer {... */\n      pop\n      pop\n      jump\t// out\n        /* \"contracts/reputation.sol\":160:212  mapping(address => uint) public InsuranceProviderRep */\n    tag_20:\n      mstore(0x20, 0x01)\n      dup1\n      0x00\n      mstore\n      keccak256(0x00, 0x40)\n      0x00\n      swap2\n      pop\n      swap1\n      pop\n      sload\n      dup2\n      jump\t// out\n        /* \"#utility.yul\":88:205   */\n    tag_78:\n        /* \"#utility.yul\":197:198   */\n      0x00\n        /* \"#utility.yul\":194:195   */\n      0x00\n        /* \"#utility.yul\":187:199   */\n      revert\n        /* \"#utility.yul\":334:460   */\n    tag_80:\n        /* \"#utility.yul\":371:378   */\n      0x00\n        /* \"#utility.yul\":411:453   */\n      0xffffffffffffffffffffffffffffffffffffffff\n        /* \"#utility.yul\":404:409   */\n      dup3\n        /* \"#utility.yul\":400:454   */\n      and\n        /* \"#utility.yul\":389:454   */\n      swap1\n      pop\n        /* \"#utility.yul\":334:460   */\n      swap2\n      swap1\n      pop\n      jump\t// out\n        /* \"#utility.yul\":466:562   */\n    tag_81:\n        /* \"#utility.yul\":503:510   */\n      0x00\n        /* \"#utility.yul\":532:556   */\n      tag_110\n        /* \"#utility.yul\":550:555   */\n      dup3\n        /* \"#utility.yul\":532:556   */\n      tag_80\n      jump\t// in\n    tag_110:\n        /* \"#utility.yul\":521:556   */\n      swap1\n      pop\n        /* \"#utility.yul\":466:562   */\n      swap2\n      swap1\n      pop\n      jump\t// out\n        /* \"#utility.yul\":568:690   */\n    tag_82:\n        /* \"#utility.yul\":641:665   */\n      tag_112\n        /* \"#utility.yul\":659:664   */\n      dup2\n        /* \"#utility.yul\":641:665   */\n      tag_81\n      jump\t// in\n    tag_112:\n        /* \"#utility.yul\":634:639   */\n      dup2\n        /* \"#utility.yul\":631:666   */\n      eq\n        /* \"#utility.yul\":621:684   */\n      tag_113\n      jumpi\n        /* \"#utility.yul\":680:681   */\n      0x00\n        /* \"#utility.yul\":677:678   */\n      0x00\n        /* \"#utility.yul\":670:682   */\n      revert\n        /* \"#utility.yul\":621:684   */\n    tag_113:\n        /* \"#utility.yul\":568:690   */\n      pop\n      jump\t// out\n        /* \"#utility.yul\":696:835   */\n    tag_83:\n        /* \"#utility.yul\":742:747   */\n      0x00\n        /* \"#utility.yul\":780:786   */\n      dup2\n        /* \"#utility.yul\":767:787   */\n      calldataload\n        /* \"#utility.yul\":758:787   */\n      swap1\n      pop\n        /* \"#utility.yul\":796:829   */\n      tag_115\n        /* \"#utility.yul\":823:828   */\n      dup2\n        /* \"#utility.yul\":796:829   */\n      tag_82\n      jump\t// in\n    tag_115:\n        /* \"#utility.yul\":696:835   */\n      swap3\n      swap2\n      pop\n      pop\n      jump\t// out\n        /* \"#utility.yul\":841:1170   */\n    tag_9:\n        /* \"#utility.yul\":900:906   */\n      0x00\n        /* \"#utility.yul\":949:951   */\n      0x20\n        /* \"#utility.yul\":937:946   */\n      dup3\n        /* \"#utility.yul\":928:935   */\n      dup5\n        /* \"#utility.yul\":924:947   */\n      sub\n        /* \"#utility.yul\":920:952   */\n      slt\n        /* \"#utility.yul\":917:1036   */\n      iszero\n      tag_117\n      jumpi\n        /* \"#utility.yul\":955:1034   */\n      tag_118\n      tag_78\n      jump\t// in\n    tag_118:\n        /* \"#utility.yul\":917:1036   */\n    tag_117:\n        /* \"#utility.yul\":1075:1076   */\n      0x00\n        /* \"#utility.yul\":1100:1153   */\n      tag_119\n        /* \"#utility.yul\":1145:1152   */\n      dup5\n        /* \"#utility.yul\":1136:1142   */\n      dup3\n        /* \"#utility.yul\":1125:1134   */\n      dup6\n        /* \"#utility.yul\":1121:1143   */\n      add\n        /* \"#utility.yul\":1100:1153   */\n      tag_83\n      jump\t// in\n    tag_119:\n        /* \"#utility.yul\":1090:1153   */\n      swap2\n      pop\n        /* \"#utility.yul\":1046:1163   */\n      pop\n        /* \"#utility.yul\":841:1170   */\n      swap3\n      swap2\n      pop\n      pop\n      jump\t// out\n        /* \"#utility.yul\":1176:1266   */\n    tag_84:\n        /* \"#utility.yul\":1210:1217   */\n      0x00\n        /* \"#utility.yul\":1253:1258   */\n      dup2\n        /* \"#utility.yul\":1246:1259   */\n      iszero\n        /* \"#utility.yul\":1239:1260   */\n      iszero\n        /* \"#utility.yul\":1228:1260   */\n      swap1\n      pop\n        /* \"#utility.yul\":1176:1266   */\n      swap2\n      swap1\n      pop\n      jump\t// out\n        /* \"#utility.yul\":1272:1388   */\n    tag_85:\n        /* \"#utility.yul\":1342:1363   */\n      tag_122\n        /* \"#utility.yul\":1357:1362   */\n      dup2\n        /* \"#utility.yul\":1342:1363   */\n      tag_84\n      jump\t// in\n    tag_122:\n        /* \"#utility.yul\":1335:1340   */\n      dup2\n        /* \"#utility.yul\":1332:1364   */\n      eq\n        /* \"#utility.yul\":1322:1382   */\n      tag_123\n      jumpi\n        /* \"#utility.yul\":1378:1379   */\n      0x00\n        /* \"#utility.yul\":1375:1376   */\n      0x00\n        /* \"#utility.yul\":1368:1380   */\n      revert\n        /* \"#utility.yul\":1322:1382   */\n    tag_123:\n        /* \"#utility.yul\":1272:1388   */\n      pop\n      jump\t// out\n        /* \"#utility.yul\":1394:1527   */\n    tag_86:\n        /* \"#utility.yul\":1437:1442   */\n      0x00\n        /* \"#utility.yul\":1475:1481   */\n      dup2\n        /* \"#utility.yul\":1462:1482   */\n      calldataload\n        /* \"#utility.yul\":1453:1482   */\n      swap1\n      pop\n        /* \"#utility.yul\":1491:1521   */\n      tag_125\n        /* \"#utility.yul\":1515:1520   */\n      dup2\n        /* \"#utility.yul\":1491:1521   */\n      tag_85\n      jump\t// in\n    tag_125:\n        /* \"#utility.yul\":1394:1527   */\n      swap3\n      swap2\n      pop\n      pop\n      jump\t// out\n        /* \"#utility.yul\":1533:2001   */\n    tag_16:\n        /* \"#utility.yul\":1598:1604   */\n      0x00\n        /* \"#utility.yul\":1606:1612   */\n      0x00\n        /* \"#utility.yul\":1655:1657   */\n      0x40\n        /* \"#utility.yul\":1643:1652   */\n      dup4\n        /* \"#utility.yul\":1634:1641   */\n      dup6\n        /* \"#utility.yul\":1630:1653   */\n      sub\n        /* \"#utility.yul\":1626:1658   */\n      slt\n        /* \"#utility.yul\":1623:1742   */\n      iszero\n      tag_127\n      jumpi\n        /* \"#utility.yul\":1661:1740   */\n      tag_128\n      tag_78\n      jump\t// in\n    tag_128:\n        /* \"#utility.yul\":1623:1742   */\n    tag_127:\n        /* \"#utility.yul\":1781:1782   */\n      0x00\n        /* \"#utility.yul\":1806:1859   */\n      tag_129\n        /* \"#utility.yul\":1851:1858   */\n      dup6\n        /* \"#utility.yul\":1842:1848   */\n      dup3\n        /* \"#utility.yul\":1831:1840   */\n      dup7\n        /* \"#utility.yul\":1827:1849   */\n      add\n        /* \"#utility.yul\":1806:1859   */\n      tag_83\n      jump\t// in\n    tag_129:\n        /* \"#utility.yul\":1796:1859   */\n      swap3\n      pop\n        /* \"#utility.yul\":1752:1869   */\n      pop\n        /* \"#utility.yul\":1908:1910   */\n      0x20\n        /* \"#utility.yul\":1934:1984   */\n      tag_130\n        /* \"#utility.yul\":1976:1983   */\n      dup6\n        /* \"#utility.yul\":1967:1973   */\n      dup3\n        /* \"#utility.yul\":1956:1965   */\n      dup7\n        /* \"#utility.yul\":1952:1974   */\n      add\n        /* \"#utility.yul\":1934:1984   */\n      tag_86\n      jump\t// in\n    tag_130:\n        /* \"#utility.yul\":1924:1984   */\n      swap2\n      pop\n        /* \"#utility.yul\":1879:1994   */\n      pop\n        /* \"#utility.yul\":1533:2001   */\n      swap3\n      pop\n      swap3\n      swap1\n      pop\n      jump\t// out\n        /* \"#utility.yul\":2007:2084   */\n    tag_87:\n        /* \"#utility.yul\":2044:2051   */\n      0x00\n        /* \"#utility.yul\":2073:2078   */\n      dup2\n        /* \"#utility.yul\":2062:2078   */\n      swap1\n      pop\n        /* \"#utility.yul\":2007:2084   */\n      swap2\n      swap1\n      pop\n      jump\t// out\n        /* \"#utility.yul\":2090:2208   */\n    tag_88:\n        /* \"#utility.yul\":2177:2201   */\n      tag_133\n        /* \"#utility.yul\":2195:2200   */\n      dup2\n        /* \"#utility.yul\":2177:2201   */\n      tag_87\n      jump\t// in\n    tag_133:\n        /* \"#utility.yul\":2172:2175   */\n      dup3\n        /* \"#utility.yul\":2165:2202   */\n      mstore\n        /* \"#utility.yul\":2090:2208   */\n      pop\n      pop\n      jump\t// out\n        /* \"#utility.yul\":2214:2436   */\n    tag_22:\n        /* \"#utility.yul\":2307:2311   */\n      0x00\n        /* \"#utility.yul\":2345:2347   */\n      0x20\n        /* \"#utility.yul\":2334:2343   */\n      dup3\n        /* \"#utility.yul\":2330:2348   */\n      add\n        /* \"#utility.yul\":2322:2348   */\n      swap1\n      pop\n        /* \"#utility.yul\":2358:2429   */\n      tag_135\n        /* \"#utility.yul\":2426:2427   */\n      0x00\n        /* \"#utility.yul\":2415:2424   */\n      dup4\n        /* \"#utility.yul\":2411:2428   */\n      add\n        /* \"#utility.yul\":2402:2408   */\n      dup5\n        /* \"#utility.yul\":2358:2429   */\n      tag_88\n      jump\t// in\n    tag_135:\n        /* \"#utility.yul\":2214:2436   */\n      swap3\n      swap2\n      pop\n      pop\n      jump\t// out\n        /* \"#utility.yul\":2442:2611   */\n    tag_89:\n        /* \"#utility.yul\":2526:2537   */\n      0x00\n        /* \"#utility.yul\":2560:2566   */\n      dup3\n        /* \"#utility.yul\":2555:2558   */\n      dup3\n        /* \"#utility.yul\":2548:2567   */\n      mstore\n        /* \"#utility.yul\":2600:2604   */\n      0x20\n        /* \"#utility.yul\":2595:2598   */\n      dup3\n        /* \"#utility.yul\":2591:2605   */\n      add\n        /* \"#utility.yul\":2576:2605   */\n      swap1\n      pop\n        /* \"#utility.yul\":2442:2611   */\n      swap3\n      swap2\n      pop\n      pop\n      jump\t// out\n        /* \"#utility.yul\":2617:2789   */\n    tag_90:\n        /* \"#utility.yul\":2757:2781   */\n      0x53656e646572206e6f7420617574686f72697a65642e00000000000000000000\n        /* \"#utility.yul\":2753:2754   */\n      0x00\n        /* \"#utility.yul\":2745:2751   */\n      dup3\n        /* \"#utility.yul\":2741:2755   */\n      add\n        /* \"#utility.yul\":2734:2782   */\n      mstore\n        /* \"#utility.yul\":2617:2789   */\n      pop\n      jump\t// out\n        /* \"#utility.yul\":2795:3161   */\n    tag_91:\n        /* \"#utility.yul\":2937:2940   */\n      0x00\n        /* \"#utility.yul\":2958:3025   */\n      tag_139\n        /* \"#utility.yul\":3022:3024   */\n      0x16\n        /* \"#utility.yul\":3017:3020   */\n      dup4\n        /* \"#utility.yul\":2958:3025   */\n      tag_89\n      jump\t// in\n    tag_139:\n        /* \"#utility.yul\":2951:3025   */\n      swap2\n      pop\n        /* \"#utility.yul\":3034:3127   */\n      tag_140\n        /* \"#utility.yul\":3123:3126   */\n      dup3\n        /* \"#utility.yul\":3034:3127   */\n      tag_90\n      jump\t// in\n    tag_140:\n        /* \"#utility.yul\":3152:3154   */\n      0x20\n        /* \"#utility.yul\":3147:3150   */\n      dup3\n        /* \"#utility.yul\":3143:3155   */\n      add\n        /* \"#utility.yul\":3136:3155   */\n      swap1\n      pop\n        /* \"#utility.yul\":2795:3161   */\n      swap2\n      swap1\n      pop\n      jump\t// out\n        /* \"#utility.yul\":3167:3586   */\n    tag_26:\n        /* \"#utility.yul\":3333:3337   */\n      0x00\n        /* \"#utility.yul\":3371:3373   */\n      0x20\n        /* \"#utility.yul\":3360:3369   */\n      dup3\n        /* \"#utility.yul\":3356:3374   */\n      add\n        /* \"#utility.yul\":3348:3374   */\n      swap1\n      pop\n        /* \"#utility.yul\":3420:3429   */\n      dup2\n        /* \"#utility.yul\":3414:3418   */\n      dup2\n        /* \"#utility.yul\":3410:3430   */\n      sub\n        /* \"#utility.yul\":3406:3407   */\n      0x00\n        /* \"#utility.yul\":3395:3404   */\n      dup4\n        /* \"#utility.yul\":3391:3408   */\n      add\n        /* \"#utility.yul\":3384:3431   */\n      mstore\n        /* \"#utility.yul\":3448:3579   */\n      tag_142\n        /* \"#utility.yul\":3574:3578   */\n      dup2\n        /* \"#utility.yul\":3448:3579   */\n      tag_91\n      jump\t// in\n    tag_142:\n        /* \"#utility.yul\":3440:3579   */\n      swap1\n      pop\n        /* \"#utility.yul\":3167:3586   */\n      swap2\n      swap1\n      pop\n      jump\t// out\n        /* \"#utility.yul\":3592:3774   */\n    tag_92:\n        /* \"#utility.yul\":3732:3766   */\n      0x496e737572616e63652070726f766964657220616c7265616479206164646564\n        /* \"#utility.yul\":3728:3729   */\n      0x00\n        /* \"#utility.yul\":3720:3726   */\n      dup3\n        /* \"#utility.yul\":3716:3730   */\n      add\n        /* \"#utility.yul\":3709:3767   */\n      mstore\n        /* \"#utility.yul\":3592:3774   */\n      pop\n      jump\t// out\n        /* \"#utility.yul\":3780:4146   */\n    tag_93:\n        /* \"#utility.yul\":3922:3925   */\n      0x00\n        /* \"#utility.yul\":3943:4010   */\n      tag_145\n        /* \"#utility.yul\":4007:4009   */\n      0x20\n        /* \"#utility.yul\":4002:4005   */\n      dup4\n        /* \"#utility.yul\":3943:4010   */\n      tag_89\n      jump\t// in\n    tag_145:\n        /* \"#utility.yul\":3936:4010   */\n      swap2\n      pop\n        /* \"#utility.yul\":4019:4112   */\n      tag_146\n        /* \"#utility.yul\":4108:4111   */\n      dup3\n        /* \"#utility.yul\":4019:4112   */\n      tag_92\n      jump\t// in\n    tag_146:\n        /* \"#utility.yul\":4137:4139   */\n      0x20\n        /* \"#utility.yul\":4132:4135   */\n      dup3\n        /* \"#utility.yul\":4128:4140   */\n      add\n        /* \"#utility.yul\":4121:4140   */\n      swap1\n      pop\n        /* \"#utility.yul\":3780:4146   */\n      swap2\n      swap1\n      pop\n      jump\t// out\n        /* \"#utility.yul\":4152:4571   */\n    tag_30:\n        /* \"#utility.yul\":4318:4322   */\n      0x00\n        /* \"#utility.yul\":4356:4358   */\n      0x20\n        /* \"#utility.yul\":4345:4354   */\n      dup3\n        /* \"#utility.yul\":4341:4359   */\n      add\n        /* \"#utility.yul\":4333:4359   */\n      swap1\n      pop\n        /* \"#utility.yul\":4405:4414   */\n      dup2\n        /* \"#utility.yul\":4399:4403   */\n      dup2\n        /* \"#utility.yul\":4395:4415   */\n      sub\n        /* \"#utility.yul\":4391:4392   */\n      0x00\n        /* \"#utility.yul\":4380:4389   */\n      dup4\n        /* \"#utility.yul\":4376:4393   */\n      add\n        /* \"#utility.yul\":4369:4416   */\n      mstore\n        /* \"#utility.yul\":4433:4564   */\n      tag_148\n        /* \"#utility.yul\":4559:4563   */\n      dup2\n        /* \"#utility.yul\":4433:4564   */\n      tag_93\n      jump\t// in\n    tag_148:\n        /* \"#utility.yul\":4425:4564   */\n      swap1\n      pop\n        /* \"#utility.yul\":4152:4571   */\n      swap2\n      swap1\n      pop\n      jump\t// out\n        /* \"#utility.yul\":4577:4799   */\n    tag_94:\n        /* \"#utility.yul\":4717:4751   */\n      0x4e6f20666565646261636b2070726f7669646564206279207468697320666172\n        /* \"#utility.yul\":4713:4714   */\n      0x00\n        /* \"#utility.yul\":4705:4711   */\n      dup3\n        /* \"#utility.yul\":4701:4715   */\n      add\n        /* \"#utility.yul\":4694:4752   */\n      mstore\n        /* \"#utility.yul\":4786:4791   */\n      0x6d65720000000000000000000000000000000000000000000000000000000000\n        /* \"#utility.yul\":4781:4783   */\n      0x20\n        /* \"#utility.yul\":4773:4779   */\n      dup3\n        /* \"#utility.yul\":4769:4784   */\n      add\n        /* \"#utility.yul\":4762:4792   */\n      mstore\n        /* \"#utility.yul\":4577:4799   */\n      pop\n      jump\t// out\n        /* \"#utility.yul\":4805:5171   */\n    tag_95:\n        /* \"#utility.yul\":4947:4950   */\n      0x00\n        /* \"#utility.yul\":4968:5035   */\n      tag_151\n        /* \"#utility.yul\":5032:5034   */\n      0x23\n        /* \"#utility.yul\":5027:5030   */\n      dup4\n        /* \"#utility.yul\":4968:5035   */\n      tag_89\n      jump\t// in\n    tag_151:\n        /* \"#utility.yul\":4961:5035   */\n      swap2\n      pop\n        /* \"#utility.yul\":5044:5137   */\n      tag_152\n        /* \"#utility.yul\":5133:5136   */\n      dup3\n        /* \"#utility.yul\":5044:5137   */\n      tag_94\n      jump\t// in\n    tag_152:\n        /* \"#utility.yul\":5162:5164   */\n      0x40\n        /* \"#utility.yul\":5157:5160   */\n      dup3\n        /* \"#utility.yul\":5153:5165   */\n      add\n        /* \"#utility.yul\":5146:5165   */\n      swap1\n      pop\n        /* \"#utility.yul\":4805:5171   */\n      swap2\n      swap1\n      pop\n      jump\t// out\n        /* \"#utility.yul\":5177:5596   */\n    tag_34:\n        /* \"#utility.yul\":5343:5347   */\n      0x00\n        /* \"#utility.yul\":5381:5383   */\n      0x20\n        /* \"#utility.yul\":5370:5379   */\n      dup3\n        /* \"#utility.yul\":5366:5384   */\n      add\n        /* \"#utility.yul\":5358:5384   */\n      swap1\n      pop\n        /* \"#utility.yul\":5430:5439   */\n      dup2\n        /* \"#utility.yul\":5424:5428   */\n      dup2\n        /* \"#utility.yul\":5420:5440   */\n      sub\n        /* \"#utility.yul\":5416:5417   */\n      0x00\n        /* \"#utility.yul\":5405:5414   */\n      dup4\n        /* \"#utility.yul\":5401:5418   */\n      add\n        /* \"#utility.yul\":5394:5441   */\n      mstore\n        /* \"#utility.yul\":5458:5589   */\n      tag_154\n        /* \"#utility.yul\":5584:5588   */\n      dup2\n        /* \"#utility.yul\":5458:5589   */\n      tag_95\n      jump\t// in\n    tag_154:\n        /* \"#utility.yul\":5450:5589   */\n      swap1\n      pop\n        /* \"#utility.yul\":5177:5596   */\n      swap2\n      swap1\n      pop\n      jump\t// out\n        /* \"#utility.yul\":5602:5782   */\n    tag_96:\n        /* \"#utility.yul\":5650:5727   */\n      0x4e487b7100000000000000000000000000000000000000000000000000000000\n        /* \"#utility.yul\":5647:5648   */\n      0x00\n        /* \"#utility.yul\":5640:5728   */\n      mstore\n        /* \"#utility.yul\":5747:5751   */\n      0x11\n        /* \"#utility.yul\":5744:5745   */\n      0x04\n        /* \"#utility.yul\":5737:5752   */\n      mstore\n        /* \"#utility.yul\":5771:5775   */\n      0x24\n        /* \"#utility.yul\":5768:5769   */\n      0x00\n        /* \"#utility.yul\":5761:5776   */\n      revert\n        /* \"#utility.yul\":5788:6198   */\n    tag_37:\n        /* \"#utility.yul\":5828:5835   */\n      0x00\n        /* \"#utility.yul\":5851:5871   */\n      tag_157\n        /* \"#utility.yul\":5869:5870   */\n      dup3\n        /* \"#utility.yul\":5851:5871   */\n      tag_87\n      jump\t// in\n    tag_157:\n        /* \"#utility.yul\":5846:5871   */\n      swap2\n      pop\n        /* \"#utility.yul\":5885:5905   */\n      tag_158\n        /* \"#utility.yul\":5903:5904   */\n      dup4\n        /* \"#utility.yul\":5885:5905   */\n      tag_87\n      jump\t// in\n    tag_158:\n        /* \"#utility.yul\":5880:5905   */\n      swap3\n      pop\n        /* \"#utility.yul\":5940:5941   */\n      dup3\n        /* \"#utility.yul\":5937:5938   */\n      dup3\n        /* \"#utility.yul\":5933:5942   */\n      mul\n        /* \"#utility.yul\":5962:5992   */\n      tag_159\n        /* \"#utility.yul\":5980:5991   */\n      dup2\n        /* \"#utility.yul\":5962:5992   */\n      tag_87\n      jump\t// in\n    tag_159:\n        /* \"#utility.yul\":5951:5992   */\n      swap2\n      pop\n        /* \"#utility.yul\":6141:6142   */\n      dup3\n        /* \"#utility.yul\":6132:6139   */\n      dup3\n        /* \"#utility.yul\":6128:6143   */\n      div\n        /* \"#utility.yul\":6125:6126   */\n      dup5\n        /* \"#utility.yul\":6122:6144   */\n      eq\n        /* \"#utility.yul\":6102:6103   */\n      dup4\n        /* \"#utility.yul\":6095:6104   */\n      iszero\n        /* \"#utility.yul\":6075:6158   */\n      or\n        /* \"#utility.yul\":6052:6191   */\n      tag_160\n      jumpi\n        /* \"#utility.yul\":6171:6189   */\n      tag_161\n      tag_96\n      jump\t// in\n    tag_161:\n        /* \"#utility.yul\":6052:6191   */\n    tag_160:\n        /* \"#utility.yul\":5836:6198   */\n      pop\n        /* \"#utility.yul\":5788:6198   */\n      swap3\n      swap2\n      pop\n      pop\n      jump\t// out\n        /* \"#utility.yul\":6204:6384   */\n    tag_97:\n        /* \"#utility.yul\":6252:6329   */\n      0x4e487b7100000000000000000000000000000000000000000000000000000000\n        /* \"#utility.yul\":6249:6250   */\n      0x00\n        /* \"#utility.yul\":6242:6330   */\n      mstore\n        /* \"#utility.yul\":6349:6353   */\n      0x12\n        /* \"#utility.yul\":6346:6347   */\n      0x04\n        /* \"#utility.yul\":6339:6354   */\n      mstore\n        /* \"#utility.yul\":6373:6377   */\n      0x24\n        /* \"#utility.yul\":6370:6371   */\n      0x00\n        /* \"#utility.yul\":6363:6378   */\n      revert\n        /* \"#utility.yul\":6390:6575   */\n    tag_40:\n        /* \"#utility.yul\":6430:6431   */\n      0x00\n        /* \"#utility.yul\":6447:6467   */\n      tag_164\n        /* \"#utility.yul\":6465:6466   */\n      dup3\n        /* \"#utility.yul\":6447:6467   */\n      tag_87\n      jump\t// in\n    tag_164:\n        /* \"#utility.yul\":6442:6467   */\n      swap2\n      pop\n        /* \"#utility.yul\":6481:6501   */\n      tag_165\n        /* \"#utility.yul\":6499:6500   */\n      dup4\n        /* \"#utility.yul\":6481:6501   */\n      tag_87\n      jump\t// in\n    tag_165:\n        /* \"#utility.yul\":6476:6501   */\n      swap3\n      pop\n        /* \"#utility.yul\":6520:6521   */\n      dup3\n        /* \"#utility.yul\":6510:6545   */\n      tag_166\n      jumpi\n        /* \"#utility.yul\":6525:6543   */\n      tag_167\n      tag_97\n      jump\t// in\n    tag_167:\n        /* \"#utility.yul\":6510:6545   */\n    tag_166:\n        /* \"#utility.yul\":6567:6568   */\n      dup3\n        /* \"#utility.yul\":6564:6565   */\n      dup3\n        /* \"#utility.yul\":6560:6569   */\n      div\n        /* \"#utility.yul\":6555:6569   */\n      swap1\n      pop\n        /* \"#utility.yul\":6390:6575   */\n      swap3\n      swap2\n      pop\n      pop\n      jump\t// out\n        /* \"#utility.yul\":6581:6775   */\n    tag_43:\n        /* \"#utility.yul\":6621:6625   */\n      0x00\n        /* \"#utility.yul\":6641:6661   */\n      tag_169\n        /* \"#utility.yul\":6659:6660   */\n      dup3\n        /* \"#utility.yul\":6641:6661   */\n      tag_87\n      jump\t// in\n    tag_169:\n        /* \"#utility.yul\":6636:6661   */\n      swap2\n      pop\n        /* \"#utility.yul\":6675:6695   */\n      tag_170\n        /* \"#utility.yul\":6693:6694   */\n      dup4\n        /* \"#utility.yul\":6675:6695   */\n      tag_87\n      jump\t// in\n    tag_170:\n        /* \"#utility.yul\":6670:6695   */\n      swap3\n      pop\n        /* \"#utility.yul\":6719:6720   */\n      dup3\n        /* \"#utility.yul\":6716:6717   */\n      dup3\n        /* \"#utility.yul\":6712:6721   */\n      sub\n        /* \"#utility.yul\":6704:6721   */\n      swap1\n      pop\n        /* \"#utility.yul\":6743:6744   */\n      dup2\n        /* \"#utility.yul\":6737:6741   */\n      dup2\n        /* \"#utility.yul\":6734:6745   */\n      gt\n        /* \"#utility.yul\":6731:6768   */\n      iszero\n      tag_171\n      jumpi\n        /* \"#utility.yul\":6748:6766   */\n      tag_172\n      tag_96\n      jump\t// in\n    tag_172:\n        /* \"#utility.yul\":6731:6768   */\n    tag_171:\n        /* \"#utility.yul\":6581:6775   */\n      swap3\n      swap2\n      pop\n      pop\n      jump\t// out\n        /* \"#utility.yul\":6781:6972   */\n    tag_50:\n        /* \"#utility.yul\":6821:6824   */\n      0x00\n        /* \"#utility.yul\":6840:6860   */\n      tag_174\n        /* \"#utility.yul\":6858:6859   */\n      dup3\n        /* \"#utility.yul\":6840:6860   */\n      tag_87\n      jump\t// in\n    tag_174:\n        /* \"#utility.yul\":6835:6860   */\n      swap2\n      pop\n        /* \"#utility.yul\":6874:6894   */\n      tag_175\n        /* \"#utility.yul\":6892:6893   */\n      dup4\n        /* \"#utility.yul\":6874:6894   */\n      tag_87\n      jump\t// in\n    tag_175:\n        /* \"#utility.yul\":6869:6894   */\n      swap3\n      pop\n        /* \"#utility.yul\":6917:6918   */\n      dup3\n        /* \"#utility.yul\":6914:6915   */\n      dup3\n        /* \"#utility.yul\":6910:6919   */\n      add\n        /* \"#utility.yul\":6903:6919   */\n      swap1\n      pop\n        /* \"#utility.yul\":6938:6941   */\n      dup1\n        /* \"#utility.yul\":6935:6936   */\n      dup3\n        /* \"#utility.yul\":6932:6942   */\n      gt\n        /* \"#utility.yul\":6929:6965   */\n      iszero\n      tag_176\n      jumpi\n        /* \"#utility.yul\":6945:6963   */\n      tag_177\n      tag_96\n      jump\t// in\n    tag_177:\n        /* \"#utility.yul\":6929:6965   */\n    tag_176:\n        /* \"#utility.yul\":6781:6972   */\n      swap3\n      swap2\n      pop\n      pop\n      jump\t// out\n        /* \"#utility.yul\":6978:7096   */\n    tag_98:\n        /* \"#utility.yul\":7065:7089   */\n      tag_179\n        /* \"#utility.yul\":7083:7088   */\n      dup2\n        /* \"#utility.yul\":7065:7089   */\n      tag_81\n      jump\t// in\n    tag_179:\n        /* \"#utility.yul\":7060:7063   */\n      dup3\n        /* \"#utility.yul\":7053:7090   */\n      mstore\n        /* \"#utility.yul\":6978:7096   */\n      pop\n      pop\n      jump\t// out\n        /* \"#utility.yul\":7102:7324   */\n    tag_59:\n        /* \"#utility.yul\":7195:7199   */\n      0x00\n        /* \"#utility.yul\":7233:7235   */\n      0x20\n        /* \"#utility.yul\":7222:7231   */\n      dup3\n        /* \"#utility.yul\":7218:7236   */\n      add\n        /* \"#utility.yul\":7210:7236   */\n      swap1\n      pop\n        /* \"#utility.yul\":7246:7317   */\n      tag_181\n        /* \"#utility.yul\":7314:7315   */\n      0x00\n        /* \"#utility.yul\":7303:7312   */\n      dup4\n        /* \"#utility.yul\":7299:7316   */\n      add\n        /* \"#utility.yul\":7290:7296   */\n      dup5\n        /* \"#utility.yul\":7246:7317   */\n      tag_98\n      jump\t// in\n    tag_181:\n        /* \"#utility.yul\":7102:7324   */\n      swap3\n      swap2\n      pop\n      pop\n      jump\t// out\n        /* \"#utility.yul\":7330:7467   */\n    tag_99:\n        /* \"#utility.yul\":7384:7389   */\n      0x00\n        /* \"#utility.yul\":7415:7421   */\n      dup2\n        /* \"#utility.yul\":7409:7422   */\n      mload\n        /* \"#utility.yul\":7400:7422   */\n      swap1\n      pop\n        /* \"#utility.yul\":7431:7461   */\n      tag_183\n        /* \"#utility.yul\":7455:7460   */\n      dup2\n        /* \"#utility.yul\":7431:7461   */\n      tag_85\n      jump\t// in\n    tag_183:\n        /* \"#utility.yul\":7330:7467   */\n      swap3\n      swap2\n      pop\n      pop\n      jump\t// out\n        /* \"#utility.yul\":7473:7818   */\n    tag_63:\n        /* \"#utility.yul\":7540:7546   */\n      0x00\n        /* \"#utility.yul\":7589:7591   */\n      0x20\n        /* \"#utility.yul\":7577:7586   */\n      dup3\n        /* \"#utility.yul\":7568:7575   */\n      dup5\n        /* \"#utility.yul\":7564:7587   */\n      sub\n        /* \"#utility.yul\":7560:7592   */\n      slt\n        /* \"#utility.yul\":7557:7676   */\n      iszero\n      tag_185\n      jumpi\n        /* \"#utility.yul\":7595:7674   */\n      tag_186\n      tag_78\n      jump\t// in\n    tag_186:\n        /* \"#utility.yul\":7557:7676   */\n    tag_185:\n        /* \"#utility.yul\":7715:7716   */\n      0x00\n        /* \"#utility.yul\":7740:7801   */\n      tag_187\n        /* \"#utility.yul\":7793:7800   */\n      dup5\n        /* \"#utility.yul\":7784:7790   */\n      dup3\n        /* \"#utility.yul\":7773:7782   */\n      dup6\n        /* \"#utility.yul\":7769:7791   */\n      add\n        /* \"#utility.yul\":7740:7801   */\n      tag_99\n      jump\t// in\n    tag_187:\n        /* \"#utility.yul\":7730:7801   */\n      swap2\n      pop\n        /* \"#utility.yul\":7686:7811   */\n      pop\n        /* \"#utility.yul\":7473:7818   */\n      swap3\n      swap2\n      pop\n      pop\n      jump\t// out\n        /* \"#utility.yul\":7824:8065   */\n    tag_100:\n        /* \"#utility.yul\":7964:7998   */\n      0x4661726d65722068617320616c72656164792070726f76696465642066656564\n        /* \"#utility.yul\":7960:7961   */\n      0x00\n        /* \"#utility.yul\":7952:7958   */\n      dup3\n        /* \"#utility.yul\":7948:7962   */\n      add\n        /* \"#utility.yul\":7941:7999   */\n      mstore\n        /* \"#utility.yul\":8033:8057   */\n      0x6261636b20666f7220746869732070726f766964657200000000000000000000\n        /* \"#utility.yul\":8028:8030   */\n      0x20\n        /* \"#utility.yul\":8020:8026   */\n      dup3\n        /* \"#utility.yul\":8016:8031   */\n      add\n        /* \"#utility.yul\":8009:8058   */\n      mstore\n        /* \"#utility.yul\":7824:8065   */\n      pop\n      jump\t// out\n        /* \"#utility.yul\":8071:8437   */\n    tag_101:\n        /* \"#utility.yul\":8213:8216   */\n      0x00\n        /* \"#utility.yul\":8234:8301   */\n      tag_190\n        /* \"#utility.yul\":8298:8300   */\n      0x36\n        /* \"#utility.yul\":8293:8296   */\n      dup4\n        /* \"#utility.yul\":8234:8301   */\n      tag_89\n      jump\t// in\n    tag_190:\n        /* \"#utility.yul\":8227:8301   */\n      swap2\n      pop\n        /* \"#utility.yul\":8310:8403   */\n      tag_191\n        /* \"#utility.yul\":8399:8402   */\n      dup3\n        /* \"#utility.yul\":8310:8403   */\n      tag_100\n      jump\t// in\n    tag_191:\n        /* \"#utility.yul\":8428:8430   */\n      0x40\n        /* \"#utility.yul\":8423:8426   */\n      dup3\n        /* \"#utility.yul\":8419:8431   */\n      add\n        /* \"#utility.yul\":8412:8431   */\n      swap1\n      pop\n        /* \"#utility.yul\":8071:8437   */\n      swap2\n      swap1\n      pop\n      jump\t// out\n        /* \"#utility.yul\":8443:8862   */\n    tag_69:\n        /* \"#utility.yul\":8609:8613   */\n      0x00\n        /* \"#utility.yul\":8647:8649   */\n      0x20\n        /* \"#utility.yul\":8636:8645   */\n      dup3\n        /* \"#utility.yul\":8632:8650   */\n      add\n        /* \"#utility.yul\":8624:8650   */\n      swap1\n      pop\n        /* \"#utility.yul\":8696:8705   */\n      dup2\n        /* \"#utility.yul\":8690:8694   */\n      dup2\n        /* \"#utility.yul\":8686:8706   */\n      sub\n        /* \"#utility.yul\":8682:8683   */\n      0x00\n        /* \"#utility.yul\":8671:8680   */\n      dup4\n        /* \"#utility.yul\":8667:8684   */\n      add\n        /* \"#utility.yul\":8660:8707   */\n      mstore\n        /* \"#utility.yul\":8724:8855   */\n      tag_193\n        /* \"#utility.yul\":8850:8854   */\n      dup2\n        /* \"#utility.yul\":8724:8855   */\n      tag_101\n      jump\t// in\n    tag_193:\n        /* \"#utility.yul\":8716:8855   */\n      swap1\n      pop\n        /* \"#utility.yul\":8443:8862   */\n      swap2\n      swap1\n      pop\n      jump\t// out\n        /* \"#utility.yul\":8868:9089   */\n    tag_102:\n        /* \"#utility.yul\":9008:9042   */\n      0x496e76616c696420696e737572616e63652070726f7669646572206164647265\n        /* \"#utility.yul\":9004:9005   */\n      0x00\n        /* \"#utility.yul\":8996:9002   */\n      dup3\n        /* \"#utility.yul\":8992:9006   */\n      add\n        /* \"#utility.yul\":8985:9043   */\n      mstore\n        /* \"#utility.yul\":9077:9081   */\n      0x7373000000000000000000000000000000000000000000000000000000000000\n        /* \"#utility.yul\":9072:9074   */\n      0x20\n        /* \"#utility.yul\":9064:9070   */\n      dup3\n        /* \"#utility.yul\":9060:9075   */\n      add\n        /* \"#utility.yul\":9053:9082   */\n      mstore\n        /* \"#utility.yul\":8868:9089   */\n      pop\n      jump\t// out\n        /* \"#utility.yul\":9095:9461   */\n    tag_103:\n        /* \"#utility.yul\":9237:9240   */\n      0x00\n        /* \"#utility.yul\":9258:9325   */\n      tag_196\n        /* \"#utility.yul\":9322:9324   */\n      0x22\n        /* \"#utility.yul\":9317:9320   */\n      dup4\n        /* \"#utility.yul\":9258:9325   */\n      tag_89\n      jump\t// in\n    tag_196:\n        /* \"#utility.yul\":9251:9325   */\n      swap2\n      pop\n        /* \"#utility.yul\":9334:9427   */\n      tag_197\n        /* \"#utility.yul\":9423:9426   */\n      dup3\n        /* \"#utility.yul\":9334:9427   */\n      tag_102\n      jump\t// in\n    tag_197:\n        /* \"#utility.yul\":9452:9454   */\n      0x40\n        /* \"#utility.yul\":9447:9450   */\n      dup3\n        /* \"#utility.yul\":9443:9455   */\n      add\n        /* \"#utility.yul\":9436:9455   */\n      swap1\n      pop\n        /* \"#utility.yul\":9095:9461   */\n      swap2\n      swap1\n      pop\n      jump\t// out\n        /* \"#utility.yul\":9467:9886   */\n    tag_76:\n        /* \"#utility.yul\":9633:9637   */\n      0x00\n        /* \"#utility.yul\":9671:9673   */\n      0x20\n        /* \"#utility.yul\":9660:9669   */\n      dup3\n        /* \"#utility.yul\":9656:9674   */\n      add\n        /* \"#utility.yul\":9648:9674   */\n      swap1\n      pop\n        /* \"#utility.yul\":9720:9729   */\n      dup2\n        /* \"#utility.yul\":9714:9718   */\n      dup2\n        /* \"#utility.yul\":9710:9730   */\n      sub\n        /* \"#utility.yul\":9706:9707   */\n      0x00\n        /* \"#utility.yul\":9695:9704   */\n      dup4\n        /* \"#utility.yul\":9691:9708   */\n      add\n        /* \"#utility.yul\":9684:9731   */\n      mstore\n        /* \"#utility.yul\":9748:9879   */\n      tag_199\n        /* \"#utility.yul\":9874:9878   */\n      dup2\n        /* \"#utility.yul\":9748:9879   */\n      tag_103\n      jump\t// in\n    tag_199:\n        /* \"#utility.yul\":9740:9879   */\n      swap1\n      pop\n        /* \"#utility.yul\":9467:9886   */\n      swap2\n      swap1\n      pop\n      jump\t// out\n\n    auxdata: 0xa2646970667358221220435d9fcf5a05056a6fd917dde5d5b2a26d9efa14d261d9942396836715b80cfc64736f6c634300081d0033\n}\n",
				"bytecode": {
					"linkReferences": {},
					"object": "608060405234801561000f575f5ffd5b506040516111c43803806111c483398181016040528101906100319190610114565b805f5f6101000a81548173ffffffffffffffffffffffffffffffffffffffff021916908373ffffffffffffffffffffffffffffffffffffffff1602179055503360025f6101000a81548173ffffffffffffffffffffffffffffffffffffffff021916908373ffffffffffffffffffffffffffffffffffffffff1602179055505061013f565b5f5ffd5b5f73ffffffffffffffffffffffffffffffffffffffff82169050919050565b5f6100e3826100ba565b9050919050565b6100f3816100d9565b81146100fd575f5ffd5b50565b5f8151905061010e816100ea565b92915050565b5f60208284031215610129576101286100b6565b5b5f61013684828501610100565b91505092915050565b6110788061014c5f395ff3fe608060405234801561000f575f5ffd5b506004361061004a575f3560e01c80635a2449a91461004e57806382e5a30a1461006a578063905af92b14610086578063b079569e146100a2575b5f5ffd5b61006860048036038101906100639190610b51565b6100d2565b005b610084600480360381019061007f9190610b51565b610226565b005b6100a0600480360381019061009b9190610bb1565b610741565b005b6100bc60048036038101906100b79190610b51565b610ade565b6040516100c99190610c07565b60405180910390f35b60025f9054906101000a900473ffffffffffffffffffffffffffffffffffffffff1673ffffffffffffffffffffffffffffffffffffffff163373ffffffffffffffffffffffffffffffffffffffff1614610161576040517f08c379a000000000000000000000000000000000000000000000000000000000815260040161015890610c7a565b60405180910390fd5b5f60015f8373ffffffffffffffffffffffffffffffffffffffff1673ffffffffffffffffffffffffffffffffffffffff1681526020019081526020015f2054146101e0576040517f08c379a00000000000000000000000000000000000000000000000000000000081526004016101d790610ce2565b60405180910390fd5b605060015f8373ffffffffffffffffffffffffffffffffffffffff1673ffffffffffffffffffffffffffffffffffffffff1681526020019081526020015f208190555050565b60035f3373ffffffffffffffffffffffffffffffffffffffff1673ffffffffffffffffffffffffffffffffffffffff1681526020019081526020015f205f015f8273ffffffffffffffffffffffffffffffffffffffff1673ffffffffffffffffffffffffffffffffffffffff1681526020019081526020015f205f9054906101000a900460ff166102ec576040517f08c379a00000000000000000000000000000000000000000000000000000000081526004016102e390610d70565b60405180910390fd5b5f60035f3373ffffffffffffffffffffffffffffffffffffffff1673ffffffffffffffffffffffffffffffffffffffff1681526020019081526020015f206001015f8373ffffffffffffffffffffffffffffffffffffffff1673ffffffffffffffffffffffffffffffffffffffff1681526020019081526020015f205f9054906101000a900460ff16156103e2576004806103879190610dbb565b605f60015f8573ffffffffffffffffffffffffffffffffffffffff1673ffffffffffffffffffffffffffffffffffffffff1681526020019081526020015f20546103d19190610dbb565b6103db9190610e29565b9050610453565b6004600a6103f09190610e59565b60046103fc9190610dbb565b605f60015f8573ffffffffffffffffffffffffffffffffffffffff1673ffffffffffffffffffffffffffffffffffffffff1681526020019081526020015f20546104469190610dbb565b6104509190610e29565b90505b6064816104609190610e29565b905060035f3373ffffffffffffffffffffffffffffffffffffffff1673ffffffffffffffffffffffffffffffffffffffff1681526020019081526020015f206001015f8373ffffffffffffffffffffffffffffffffffffffff1673ffffffffffffffffffffffffffffffffffffffff1681526020019081526020015f205f9054906101000a900460ff1615610547578060015f8473ffffffffffffffffffffffffffffffffffffffff1673ffffffffffffffffffffffffffffffffffffffff1681526020019081526020015f205f82825461053b9190610e8c565b92505081905550610628565b8060015f8473ffffffffffffffffffffffffffffffffffffffff1673ffffffffffffffffffffffffffffffffffffffff1681526020019081526020015f205411156105e4578060015f8473ffffffffffffffffffffffffffffffffffffffff1673ffffffffffffffffffffffffffffffffffffffff1681526020019081526020015f205f8282546105d89190610e59565b92505081905550610627565b5f60015f8473ffffffffffffffffffffffffffffffffffffffff1673ffffffffffffffffffffffffffffffffffffffff1681526020019081526020015f20819055505b5b606460015f8473ffffffffffffffffffffffffffffffffffffffff1673ffffffffffffffffffffffffffffffffffffffff1681526020019081526020015f205411156106b257606460015f8473ffffffffffffffffffffffffffffffffffffffff1673ffffffffffffffffffffffffffffffffffffffff1681526020019081526020015f20819055505b8173ffffffffffffffffffffffffffffffffffffffff167ffc577563f1b9a0461e24abef1e1fcc0d33d3d881f20b5df6dda59de4aae2c82160015f8573ffffffffffffffffffffffffffffffffffffffff1673ffffffffffffffffffffffffffffffffffffffff1681526020019081526020015f20546040516107359190610c07565b60405180910390a25050565b5f5f9054906101000a900473ffffffffffffffffffffffffffffffffffffffff1673ffffffffffffffffffffffffffffffffffffffff16637e0b782d336040518263ffffffff1660e01b815260040161079a9190610ece565b602060405180830381865afa1580156107b5573d5f5f3e3d5ffd5b505050506040513d601f19601f820116820180604052508101906107d99190610efb565b610818576040517f08c379a000000000000000000000000000000000000000000000000000000000815260040161080f90610c7a565b60405180910390fd5b60035f3373ffffffffffffffffffffffffffffffffffffffff1673ffffffffffffffffffffffffffffffffffffffff1681526020019081526020015f205f015f8373ffffffffffffffffffffffffffffffffffffffff1673ffffffffffffffffffffffffffffffffffffffff1681526020019081526020015f205f9054906101000a900460ff16156108df576040517f08c379a00000000000000000000000000000000000000000000000000000000081526004016108d690610f96565b60405180910390fd5b5f5f9054906101000a900473ffffffffffffffffffffffffffffffffffffffff1673ffffffffffffffffffffffffffffffffffffffff1663e354fed0836040518263ffffffff1660e01b81526004016109389190610ece565b602060405180830381865afa158015610953573d5f5f3e3d5ffd5b505050506040513d601f19601f820116820180604052508101906109779190610efb565b6109b6576040517f08c379a00000000000000000000000000000000000000000000000000000000081526004016109ad90611024565b60405180910390fd5b600160035f3373ffffffffffffffffffffffffffffffffffffffff1673ffffffffffffffffffffffffffffffffffffffff1681526020019081526020015f205f015f8473ffffffffffffffffffffffffffffffffffffffff1673ffffffffffffffffffffffffffffffffffffffff1681526020019081526020015f205f6101000a81548160ff0219169083151502179055508060035f3373ffffffffffffffffffffffffffffffffffffffff1673ffffffffffffffffffffffffffffffffffffffff1681526020019081526020015f206001015f8473ffffffffffffffffffffffffffffffffffffffff1673ffffffffffffffffffffffffffffffffffffffff1681526020019081526020015f205f6101000a81548160ff0219169083151502179055505050565b6001602052805f5260405f205f915090505481565b5f5ffd5b5f73ffffffffffffffffffffffffffffffffffffffff82169050919050565b5f610b2082610af7565b9050919050565b610b3081610b16565b8114610b3a575f5ffd5b50565b5f81359050610b4b81610b27565b92915050565b5f60208284031215610b6657610b65610af3565b5b5f610b7384828501610b3d565b91505092915050565b5f8115159050919050565b610b9081610b7c565b8114610b9a575f5ffd5b50565b5f81359050610bab81610b87565b92915050565b5f5f60408385031215610bc757610bc6610af3565b5b5f610bd485828601610b3d565b9250506020610be585828601610b9d565b9150509250929050565b5f819050919050565b610c0181610bef565b82525050565b5f602082019050610c1a5f830184610bf8565b92915050565b5f82825260208201905092915050565b7f53656e646572206e6f7420617574686f72697a65642e000000000000000000005f82015250565b5f610c64601683610c20565b9150610c6f82610c30565b602082019050919050565b5f6020820190508181035f830152610c9181610c58565b9050919050565b7f496e737572616e63652070726f766964657220616c72656164792061646465645f82015250565b5f610ccc602083610c20565b9150610cd782610c98565b602082019050919050565b5f6020820190508181035f830152610cf981610cc0565b9050919050565b7f4e6f20666565646261636b2070726f76696465642062792074686973206661725f8201527f6d65720000000000000000000000000000000000000000000000000000000000602082015250565b5f610d5a602383610c20565b9150610d6582610d00565b604082019050919050565b5f6020820190508181035f830152610d8781610d4e565b9050919050565b7f4e487b71000000000000000000000000000000000000000000000000000000005f52601160045260245ffd5b5f610dc582610bef565b9150610dd083610bef565b9250828202610dde81610bef565b91508282048414831517610df557610df4610d8e565b5b5092915050565b7f4e487b71000000000000000000000000000000000000000000000000000000005f52601260045260245ffd5b5f610e3382610bef565b9150610e3e83610bef565b925082610e4e57610e4d610dfc565b5b828204905092915050565b5f610e6382610bef565b9150610e6e83610bef565b9250828203905081811115610e8657610e85610d8e565b5b92915050565b5f610e9682610bef565b9150610ea183610bef565b9250828201905080821115610eb957610eb8610d8e565b5b92915050565b610ec881610b16565b82525050565b5f602082019050610ee15f830184610ebf565b92915050565b5f81519050610ef581610b87565b92915050565b5f60208284031215610f1057610f0f610af3565b5b5f610f1d84828501610ee7565b91505092915050565b7f4661726d65722068617320616c72656164792070726f766964656420666565645f8201527f6261636b20666f7220746869732070726f766964657200000000000000000000602082015250565b5f610f80603683610c20565b9150610f8b82610f26565b604082019050919050565b5f6020820190508181035f830152610fad81610f74565b9050919050565b7f496e76616c696420696e737572616e63652070726f76696465722061646472655f8201527f7373000000000000000000000000000000000000000000000000000000000000602082015250565b5f61100e602283610c20565b915061101982610fb4565b604082019050919050565b5f6020820190508181035f83015261103b81611002565b905091905056fea2646970667358221220435d9fcf5a05056a6fd917dde5d5b2a26d9efa14d261d9942396836715b80cfc64736f6c634300081d0033",
					"opcodes": "PUSH1 0x80 PUSH1 0x40 MSTORE CALLVALUE DUP1 ISZERO PUSH2 0xF JUMPI PUSH0 PUSH0 REVERT JUMPDEST POP PUSH1 0x40 MLOAD PUSH2 0x11C4 CODESIZE SUB DUP1 PUSH2 0x11C4 DUP4 CODECOPY DUP2 DUP2 ADD PUSH1 0x40 MSTORE DUP2 ADD SWAP1 PUSH2 0x31 SWAP2 SWAP1 PUSH2 0x114 JUMP JUMPDEST DUP1 PUSH0 PUSH0 PUSH2 0x100 EXP DUP2 SLOAD DUP2 PUSH20 0xFFFFFFFFFFFFFFFFFFFFFFFFFFFFFFFFFFFFFFFF MUL NOT AND SWAP1 DUP4 PUSH20 0xFFFFFFFFFFFFFFFFFFFFFFFFFFFFFFFFFFFFFFFF AND MUL OR SWAP1 SSTORE POP CALLER PUSH1 0x2 PUSH0 PUSH2 0x100 EXP DUP2 SLOAD DUP2 PUSH20 0xFFFFFFFFFFFFFFFFFFFFFFFFFFFFFFFFFFFFFFFF MUL NOT AND SWAP1 DUP4 PUSH20 0xFFFFFFFFFFFFFFFFFFFFFFFFFFFFFFFFFFFFFFFF AND MUL OR SWAP1 SSTORE POP POP PUSH2 0x13F JUMP JUMPDEST PUSH0 PUSH0 REVERT JUMPDEST PUSH0 PUSH20 0xFFFFFFFFFFFFFFFFFFFFFFFFFFFFFFFFFFFFFFFF DUP3 AND SWAP1 POP SWAP2 SWAP1 POP JUMP JUMPDEST PUSH0 PUSH2 0xE3 DUP3 PUSH2 0xBA JUMP JUMPDEST SWAP1 POP SWAP2 SWAP1 POP JUMP JUMPDEST PUSH2 0xF3 DUP2 PUSH2 0xD9 JUMP JUMPDEST DUP2 EQ PUSH2 0xFD JUMPI PUSH0 PUSH0 REVERT JUMPDEST POP JUMP JUMPDEST PUSH0 DUP2 MLOAD SWAP1 POP PUSH2 0x10E DUP2 PUSH2 0xEA JUMP JUMPDEST SWAP3 SWAP2 POP POP JUMP JUMPDEST PUSH0 PUSH1 0x20 DUP3 DUP5 SUB SLT ISZERO PUSH2 0x129 JUMPI PUSH2 0x128 PUSH2 0xB6 JUMP JUMPDEST JUMPDEST PUSH0 PUSH2 0x136 DUP5 DUP3 DUP6 ADD PUSH2 0x100 JUMP JUMPDEST SWAP2 POP POP SWAP3 SWAP2 POP POP JUMP JUMPDEST PUSH2 0x1078 DUP1 PUSH2 0x14C PUSH0 CODECOPY PUSH0 RETURN INVALID PUSH1 0x80 PUSH1 0x40 MSTORE CALLVALUE DUP1 ISZERO PUSH2 0xF JUMPI PUSH0 PUSH0 REVERT JUMPDEST POP PUSH1 0x4 CALLDATASIZE LT PUSH2 0x4A JUMPI PUSH0 CALLDATALOAD PUSH1 0xE0 SHR DUP1 PUSH4 0x5A2449A9 EQ PUSH2 0x4E JUMPI DUP1 PUSH4 0x82E5A30A EQ PUSH2 0x6A JUMPI DUP1 PUSH4 0x905AF92B EQ PUSH2 0x86 JUMPI DUP1 PUSH4 0xB079569E EQ PUSH2 0xA2 JUMPI JUMPDEST PUSH0 PUSH0 REVERT JUMPDEST PUSH2 0x68 PUSH1 0x4 DUP1 CALLDATASIZE SUB DUP2 ADD SWAP1 PUSH2 0x63 SWAP2 SWAP1 PUSH2 0xB51 JUMP JUMPDEST PUSH2 0xD2 JUMP JUMPDEST STOP JUMPDEST PUSH2 0x84 PUSH1 0x4 DUP1 CALLDATASIZE SUB DUP2 ADD SWAP1 PUSH2 0x7F SWAP2 SWAP1 PUSH2 0xB51 JUMP JUMPDEST PUSH2 0x226 JUMP JUMPDEST STOP JUMPDEST PUSH2 0xA0 PUSH1 0x4 DUP1 CALLDATASIZE SUB DUP2 ADD SWAP1 PUSH2 0x9B SWAP2 SWAP1 PUSH2 0xBB1 JUMP JUMPDEST PUSH2 0x741 JUMP JUMPDEST STOP JUMPDEST PUSH2 0xBC PUSH1 0x4 DUP1 CALLDATASIZE SUB DUP2 ADD SWAP1 PUSH2 0xB7 SWAP2 SWAP1 PUSH2 0xB51 JUMP JUMPDEST PUSH2 0xADE JUMP JUMPDEST PUSH1 0x40 MLOAD PUSH2 0xC9 SWAP2 SWAP1 PUSH2 0xC07 JUMP JUMPDEST PUSH1 0x40 MLOAD DUP1 SWAP2 SUB SWAP1 RETURN JUMPDEST PUSH1 0x2 PUSH0 SWAP1 SLOAD SWAP1 PUSH2 0x100 EXP SWAP1 DIV PUSH20 0xFFFFFFFFFFFFFFFFFFFFFFFFFFFFFFFFFFFFFFFF AND PUSH20 0xFFFFFFFFFFFFFFFFFFFFFFFFFFFFFFFFFFFFFFFF AND CALLER PUSH20 0xFFFFFFFFFFFFFFFFFFFFFFFFFFFFFFFFFFFFFFFF AND EQ PUSH2 0x161 JUMPI PUSH1 0x40 MLOAD PUSH32 0x8C379A000000000000000000000000000000000000000000000000000000000 DUP2 MSTORE PUSH1 0x4 ADD PUSH2 0x158 SWAP1 PUSH2 0xC7A JUMP JUMPDEST PUSH1 0x40 MLOAD DUP1 SWAP2 SUB SWAP1 REVERT JUMPDEST PUSH0 PUSH1 0x1 PUSH0 DUP4 PUSH20 0xFFFFFFFFFFFFFFFFFFFFFFFFFFFFFFFFFFFFFFFF AND PUSH20 0xFFFFFFFFFFFFFFFFFFFFFFFFFFFFFFFFFFFFFFFF AND DUP2 MSTORE PUSH1 0x20 ADD SWAP1 DUP2 MSTORE PUSH1 0x20 ADD PUSH0 KECCAK256 SLOAD EQ PUSH2 0x1E0 JUMPI PUSH1 0x40 MLOAD PUSH32 0x8C379A000000000000000000000000000000000000000000000000000000000 DUP2 MSTORE PUSH1 0x4 ADD PUSH2 0x1D7 SWAP1 PUSH2 0xCE2 JUMP JUMPDEST PUSH1 0x40 MLOAD DUP1 SWAP2 SUB SWAP1 REVERT JUMPDEST PUSH1 0x50 PUSH1 0x1 PUSH0 DUP4 PUSH20 0xFFFFFFFFFFFFFFFFFFFFFFFFFFFFFFFFFFFFFFFF AND PUSH20 0xFFFFFFFFFFFFFFFFFFFFFFFFFFFFFFFFFFFFFFFF AND DUP2 MSTORE PUSH1 0x20 ADD SWAP1 DUP2 MSTORE PUSH1 0x20 ADD PUSH0 KECCAK256 DUP2 SWAP1 SSTORE POP POP JUMP JUMPDEST PUSH1 0x3 PUSH0 CALLER PUSH20 0xFFFFFFFFFFFFFFFFFFFFFFFFFFFFFFFFFFFFFFFF AND PUSH20 0xFFFFFFFFFFFFFFFFFFFFFFFFFFFFFFFFFFFFFFFF AND DUP2 MSTORE PUSH1 0x20 ADD SWAP1 DUP2 MSTORE PUSH1 0x20 ADD PUSH0 KECCAK256 PUSH0 ADD PUSH0 DUP3 PUSH20 0xFFFFFFFFFFFFFFFFFFFFFFFFFFFFFFFFFFFFFFFF AND PUSH20 0xFFFFFFFFFFFFFFFFFFFFFFFFFFFFFFFFFFFFFFFF AND DUP2 MSTORE PUSH1 0x20 ADD SWAP1 DUP2 MSTORE PUSH1 0x20 ADD PUSH0 KECCAK256 PUSH0 SWAP1 SLOAD SWAP1 PUSH2 0x100 EXP SWAP1 DIV PUSH1 0xFF AND PUSH2 0x2EC JUMPI PUSH1 0x40 MLOAD PUSH32 0x8C379A000000000000000000000000000000000000000000000000000000000 DUP2 MSTORE PUSH1 0x4 ADD PUSH2 0x2E3 SWAP1 PUSH2 0xD70 JUMP JUMPDEST PUSH1 0x40 MLOAD DUP1 SWAP2 SUB SWAP1 REVERT JUMPDEST PUSH0 PUSH1 0x3 PUSH0 CALLER PUSH20 0xFFFFFFFFFFFFFFFFFFFFFFFFFFFFFFFFFFFFFFFF AND PUSH20 0xFFFFFFFFFFFFFFFFFFFFFFFFFFFFFFFFFFFFFFFF AND DUP2 MSTORE PUSH1 0x20 ADD SWAP1 DUP2 MSTORE PUSH1 0x20 ADD PUSH0 KECCAK256 PUSH1 0x1 ADD PUSH0 DUP4 PUSH20 0xFFFFFFFFFFFFFFFFFFFFFFFFFFFFFFFFFFFFFFFF AND PUSH20 0xFFFFFFFFFFFFFFFFFFFFFFFFFFFFFFFFFFFFFFFF AND DUP2 MSTORE PUSH1 0x20 ADD SWAP1 DUP2 MSTORE PUSH1 0x20 ADD PUSH0 KECCAK256 PUSH0 SWAP1 SLOAD SWAP1 PUSH2 0x100 EXP SWAP1 DIV PUSH1 0xFF AND ISZERO PUSH2 0x3E2 JUMPI PUSH1 0x4 DUP1 PUSH2 0x387 SWAP2 SWAP1 PUSH2 0xDBB JUMP JUMPDEST PUSH1 0x5F PUSH1 0x1 PUSH0 DUP6 PUSH20 0xFFFFFFFFFFFFFFFFFFFFFFFFFFFFFFFFFFFFFFFF AND PUSH20 0xFFFFFFFFFFFFFFFFFFFFFFFFFFFFFFFFFFFFFFFF AND DUP2 MSTORE PUSH1 0x20 ADD SWAP1 DUP2 MSTORE PUSH1 0x20 ADD PUSH0 KECCAK256 SLOAD PUSH2 0x3D1 SWAP2 SWAP1 PUSH2 0xDBB JUMP JUMPDEST PUSH2 0x3DB SWAP2 SWAP1 PUSH2 0xE29 JUMP JUMPDEST SWAP1 POP PUSH2 0x453 JUMP JUMPDEST PUSH1 0x4 PUSH1 0xA PUSH2 0x3F0 SWAP2 SWAP1 PUSH2 0xE59 JUMP JUMPDEST PUSH1 0x4 PUSH2 0x3FC SWAP2 SWAP1 PUSH2 0xDBB JUMP JUMPDEST PUSH1 0x5F PUSH1 0x1 PUSH0 DUP6 PUSH20 0xFFFFFFFFFFFFFFFFFFFFFFFFFFFFFFFFFFFFFFFF AND PUSH20 0xFFFFFFFFFFFFFFFFFFFFFFFFFFFFFFFFFFFFFFFF AND DUP2 MSTORE PUSH1 0x20 ADD SWAP1 DUP2 MSTORE PUSH1 0x20 ADD PUSH0 KECCAK256 SLOAD PUSH2 0x446 SWAP2 SWAP1 PUSH2 0xDBB JUMP JUMPDEST PUSH2 0x450 SWAP2 SWAP1 PUSH2 0xE29 JUMP JUMPDEST SWAP1 POP JUMPDEST PUSH1 0x64 DUP2 PUSH2 0x460 SWAP2 SWAP1 PUSH2 0xE29 JUMP JUMPDEST SWAP1 POP PUSH1 0x3 PUSH0 CALLER PUSH20 0xFFFFFFFFFFFFFFFFFFFFFFFFFFFFFFFFFFFFFFFF AND PUSH20 0xFFFFFFFFFFFFFFFFFFFFFFFFFFFFFFFFFFFFFFFF AND DUP2 MSTORE PUSH1 0x20 ADD SWAP1 DUP2 MSTORE PUSH1 0x20 ADD PUSH0 KECCAK256 PUSH1 0x1 ADD PUSH0 DUP4 PUSH20 0xFFFFFFFFFFFFFFFFFFFFFFFFFFFFFFFFFFFFFFFF AND PUSH20 0xFFFFFFFFFFFFFFFFFFFFFFFFFFFFFFFFFFFFFFFF AND DUP2 MSTORE PUSH1 0x20 ADD SWAP1 DUP2 MSTORE PUSH1 0x20 ADD PUSH0 KECCAK256 PUSH0 SWAP1 SLOAD SWAP1 PUSH2 0x100 EXP SWAP1 DIV PUSH1 0xFF AND ISZERO PUSH2 0x547 JUMPI DUP1 PUSH1 0x1 PUSH0 DUP5 PUSH20 0xFFFFFFFFFFFFFFFFFFFFFFFFFFFFFFFFFFFFFFFF AND PUSH20 0xFFFFFFFFFFFFFFFFFFFFFFFFFFFFFFFFFFFFFFFF AND DUP2 MSTORE PUSH1 0x20 ADD SWAP1 DUP2 MSTORE PUSH1 0x20 ADD PUSH0 KECCAK256 PUSH0 DUP3 DUP3 SLOAD PUSH2 0x53B SWAP2 SWAP1 PUSH2 0xE8C JUMP JUMPDEST SWAP3 POP POP DUP2 SWAP1 SSTORE POP PUSH2 0x628 JUMP JUMPDEST DUP1 PUSH1 0x1 PUSH0 DUP5 PUSH20 0xFFFFFFFFFFFFFFFFFFFFFFFFFFFFFFFFFFFFFFFF AND PUSH20 0xFFFFFFFFFFFFFFFFFFFFFFFFFFFFFFFFFFFFFFFF AND DUP2 MSTORE PUSH1 0x20 ADD SWAP1 DUP2 MSTORE PUSH1 0x20 ADD PUSH0 KECCAK256 SLOAD GT ISZERO PUSH2 0x5E4 JUMPI DUP1 PUSH1 0x1 PUSH0 DUP5 PUSH20 0xFFFFFFFFFFFFFFFFFFFFFFFFFFFFFFFFFFFFFFFF AND PUSH20 0xFFFFFFFFFFFFFFFFFFFFFFFFFFFFFFFFFFFFFFFF AND DUP2 MSTORE PUSH1 0x20 ADD SWAP1 DUP2 MSTORE PUSH1 0x20 ADD PUSH0 KECCAK256 PUSH0 DUP3 DUP3 SLOAD PUSH2 0x5D8 SWAP2 SWAP1 PUSH2 0xE59 JUMP JUMPDEST SWAP3 POP POP DUP2 SWAP1 SSTORE POP PUSH2 0x627 JUMP JUMPDEST PUSH0 PUSH1 0x1 PUSH0 DUP5 PUSH20 0xFFFFFFFFFFFFFFFFFFFFFFFFFFFFFFFFFFFFFFFF AND PUSH20 0xFFFFFFFFFFFFFFFFFFFFFFFFFFFFFFFFFFFFFFFF AND DUP2 MSTORE PUSH1 0x20 ADD SWAP1 DUP2 MSTORE PUSH1 0x20 ADD PUSH0 KECCAK256 DUP2 SWAP1 SSTORE POP JUMPDEST JUMPDEST PUSH1 0x64 PUSH1 0x1 PUSH0 DUP5 PUSH20 0xFFFFFFFFFFFFFFFFFFFFFFFFFFFFFFFFFFFFFFFF AND PUSH20 0xFFFFFFFFFFFFFFFFFFFFFFFFFFFFFFFFFFFFFFFF AND DUP2 MSTORE PUSH1 0x20 ADD SWAP1 DUP2 MSTORE PUSH1 0x20 ADD PUSH0 KECCAK256 SLOAD GT ISZERO PUSH2 0x6B2 JUMPI PUSH1 0x64 PUSH1 0x1 PUSH0 DUP5 PUSH20 0xFFFFFFFFFFFFFFFFFFFFFFFFFFFFFFFFFFFFFFFF AND PUSH20 0xFFFFFFFFFFFFFFFFFFFFFFFFFFFFFFFFFFFFFFFF AND DUP2 MSTORE PUSH1 0x20 ADD SWAP1 DUP2 MSTORE PUSH1 0x20 ADD PUSH0 KECCAK256 DUP2 SWAP1 SSTORE POP JUMPDEST DUP2 PUSH20 0xFFFFFFFFFFFFFFFFFFFFFFFFFFFFFFFFFFFFFFFF AND PUSH32 0xFC577563F1B9A0461E24ABEF1E1FCC0D33D3D881F20B5DF6DDA59DE4AAE2C821 PUSH1 0x1 PUSH0 DUP6 PUSH20 0xFFFFFFFFFFFFFFFFFFFFFFFFFFFFFFFFFFFFFFFF AND PUSH20 0xFFFFFFFFFFFFFFFFFFFFFFFFFFFFFFFFFFFFFFFF AND DUP2 MSTORE PUSH1 0x20 ADD SWAP1 DUP2 MSTORE PUSH1 0x20 ADD PUSH0 KECCAK256 SLOAD PUSH1 0x40 MLOAD PUSH2 0x735 SWAP2 SWAP1 PUSH2 0xC07 JUMP JUMPDEST PUSH1 0x40 MLOAD DUP1 SWAP2 SUB SWAP1 LOG2 POP POP JUMP JUMPDEST PUSH0 PUSH0 SWAP1 SLOAD SWAP1 PUSH2 0x100 EXP SWAP1 DIV PUSH20 0xFFFFFFFFFFFFFFFFFFFFFFFFFFFFFFFFFFFFFFFF AND PUSH20 0xFFFFFFFFFFFFFFFFFFFFFFFFFFFFFFFFFFFFFFFF AND PUSH4 0x7E0B782D CALLER PUSH1 0x40 MLOAD DUP3 PUSH4 0xFFFFFFFF AND PUSH1 0xE0 SHL DUP2 MSTORE PUSH1 0x4 ADD PUSH2 0x79A SWAP2 SWAP1 PUSH2 0xECE JUMP JUMPDEST PUSH1 0x20 PUSH1 0x40 MLOAD DUP1 DUP4 SUB DUP2 DUP7 GAS STATICCALL ISZERO DUP1 ISZERO PUSH2 0x7B5 JUMPI RETURNDATASIZE PUSH0 PUSH0 RETURNDATACOPY RETURNDATASIZE PUSH0 REVERT JUMPDEST POP POP POP POP PUSH1 0x40 MLOAD RETURNDATASIZE PUSH1 0x1F NOT PUSH1 0x1F DUP3 ADD AND DUP3 ADD DUP1 PUSH1 0x40 MSTORE POP DUP2 ADD SWAP1 PUSH2 0x7D9 SWAP2 SWAP1 PUSH2 0xEFB JUMP JUMPDEST PUSH2 0x818 JUMPI PUSH1 0x40 MLOAD PUSH32 0x8C379A000000000000000000000000000000000000000000000000000000000 DUP2 MSTORE PUSH1 0x4 ADD PUSH2 0x80F SWAP1 PUSH2 0xC7A JUMP JUMPDEST PUSH1 0x40 MLOAD DUP1 SWAP2 SUB SWAP1 REVERT JUMPDEST PUSH1 0x3 PUSH0 CALLER PUSH20 0xFFFFFFFFFFFFFFFFFFFFFFFFFFFFFFFFFFFFFFFF AND PUSH20 0xFFFFFFFFFFFFFFFFFFFFFFFFFFFFFFFFFFFFFFFF AND DUP2 MSTORE PUSH1 0x20 ADD SWAP1 DUP2 MSTORE PUSH1 0x20 ADD PUSH0 KECCAK256 PUSH0 ADD PUSH0 DUP4 PUSH20 0xFFFFFFFFFFFFFFFFFFFFFFFFFFFFFFFFFFFFFFFF AND PUSH20 0xFFFFFFFFFFFFFFFFFFFFFFFFFFFFFFFFFFFFFFFF AND DUP2 MSTORE PUSH1 0x20 ADD SWAP1 DUP2 MSTORE PUSH1 0x20 ADD PUSH0 KECCAK256 PUSH0 SWAP1 SLOAD SWAP1 PUSH2 0x100 EXP SWAP1 DIV PUSH1 0xFF AND ISZERO PUSH2 0x8DF JUMPI PUSH1 0x40 MLOAD PUSH32 0x8C379A000000000000000000000000000000000000000000000000000000000 DUP2 MSTORE PUSH1 0x4 ADD PUSH2 0x8D6 SWAP1 PUSH2 0xF96 JUMP JUMPDEST PUSH1 0x40 MLOAD DUP1 SWAP2 SUB SWAP1 REVERT JUMPDEST PUSH0 PUSH0 SWAP1 SLOAD SWAP1 PUSH2 0x100 EXP SWAP1 DIV PUSH20 0xFFFFFFFFFFFFFFFFFFFFFFFFFFFFFFFFFFFFFFFF AND PUSH20 0xFFFFFFFFFFFFFFFFFFFFFFFFFFFFFFFFFFFFFFFF AND PUSH4 0xE354FED0 DUP4 PUSH1 0x40 MLOAD DUP3 PUSH4 0xFFFFFFFF AND PUSH1 0xE0 SHL DUP2 MSTORE PUSH1 0x4 ADD PUSH2 0x938 SWAP2 SWAP1 PUSH2 0xECE JUMP JUMPDEST PUSH1 0x20 PUSH1 0x40 MLOAD DUP1 DUP4 SUB DUP2 DUP7 GAS STATICCALL ISZERO DUP1 ISZERO PUSH2 0x953 JUMPI RETURNDATASIZE PUSH0 PUSH0 RETURNDATACOPY RETURNDATASIZE PUSH0 REVERT JUMPDEST POP POP POP POP PUSH1 0x40 MLOAD RETURNDATASIZE PUSH1 0x1F NOT PUSH1 0x1F DUP3 ADD AND DUP3 ADD DUP1 PUSH1 0x40 MSTORE POP DUP2 ADD SWAP1 PUSH2 0x977 SWAP2 SWAP1 PUSH2 0xEFB JUMP JUMPDEST PUSH2 0x9B6 JUMPI PUSH1 0x40 MLOAD PUSH32 0x8C379A000000000000000000000000000000000000000000000000000000000 DUP2 MSTORE PUSH1 0x4 ADD PUSH2 0x9AD SWAP1 PUSH2 0x1024 JUMP JUMPDEST PUSH1 0x40 MLOAD DUP1 SWAP2 SUB SWAP1 REVERT JUMPDEST PUSH1 0x1 PUSH1 0x3 PUSH0 CALLER PUSH20 0xFFFFFFFFFFFFFFFFFFFFFFFFFFFFFFFFFFFFFFFF AND PUSH20 0xFFFFFFFFFFFFFFFFFFFFFFFFFFFFFFFFFFFFFFFF AND DUP2 MSTORE PUSH1 0x20 ADD SWAP1 DUP2 MSTORE PUSH1 0x20 ADD PUSH0 KECCAK256 PUSH0 ADD PUSH0 DUP5 PUSH20 0xFFFFFFFFFFFFFFFFFFFFFFFFFFFFFFFFFFFFFFFF AND PUSH20 0xFFFFFFFFFFFFFFFFFFFFFFFFFFFFFFFFFFFFFFFF AND DUP2 MSTORE PUSH1 0x20 ADD SWAP1 DUP2 MSTORE PUSH1 0x20 ADD PUSH0 KECCAK256 PUSH0 PUSH2 0x100 EXP DUP2 SLOAD DUP2 PUSH1 0xFF MUL NOT AND SWAP1 DUP4 ISZERO ISZERO MUL OR SWAP1 SSTORE POP DUP1 PUSH1 0x3 PUSH0 CALLER PUSH20 0xFFFFFFFFFFFFFFFFFFFFFFFFFFFFFFFFFFFFFFFF AND PUSH20 0xFFFFFFFFFFFFFFFFFFFFFFFFFFFFFFFFFFFFFFFF AND DUP2 MSTORE PUSH1 0x20 ADD SWAP1 DUP2 MSTORE PUSH1 0x20 ADD PUSH0 KECCAK256 PUSH1 0x1 ADD PUSH0 DUP5 PUSH20 0xFFFFFFFFFFFFFFFFFFFFFFFFFFFFFFFFFFFFFFFF AND PUSH20 0xFFFFFFFFFFFFFFFFFFFFFFFFFFFFFFFFFFFFFFFF AND DUP2 MSTORE PUSH1 0x20 ADD SWAP1 DUP2 MSTORE PUSH1 0x20 ADD PUSH0 KECCAK256 PUSH0 PUSH2 0x100 EXP DUP2 SLOAD DUP2 PUSH1 0xFF MUL NOT AND SWAP1 DUP4 ISZERO ISZERO MUL OR SWAP1 SSTORE POP POP POP JUMP JUMPDEST PUSH1 0x1 PUSH1 0x20 MSTORE DUP1 PUSH0 MSTORE PUSH1 0x40 PUSH0 KECCAK256 PUSH0 SWAP2 POP SWAP1 POP SLOAD DUP2 JUMP JUMPDEST PUSH0 PUSH0 REVERT JUMPDEST PUSH0 PUSH20 0xFFFFFFFFFFFFFFFFFFFFFFFFFFFFFFFFFFFFFFFF DUP3 AND SWAP1 POP SWAP2 SWAP1 POP JUMP JUMPDEST PUSH0 PUSH2 0xB20 DUP3 PUSH2 0xAF7 JUMP JUMPDEST SWAP1 POP SWAP2 SWAP1 POP JUMP JUMPDEST PUSH2 0xB30 DUP2 PUSH2 0xB16 JUMP JUMPDEST DUP2 EQ PUSH2 0xB3A JUMPI PUSH0 PUSH0 REVERT JUMPDEST POP JUMP JUMPDEST PUSH0 DUP2 CALLDATALOAD SWAP1 POP PUSH2 0xB4B DUP2 PUSH2 0xB27 JUMP JUMPDEST SWAP3 SWAP2 POP POP JUMP JUMPDEST PUSH0 PUSH1 0x20 DUP3 DUP5 SUB SLT ISZERO PUSH2 0xB66 JUMPI PUSH2 0xB65 PUSH2 0xAF3 JUMP JUMPDEST JUMPDEST PUSH0 PUSH2 0xB73 DUP5 DUP3 DUP6 ADD PUSH2 0xB3D JUMP JUMPDEST SWAP2 POP POP SWAP3 SWAP2 POP POP JUMP JUMPDEST PUSH0 DUP2 ISZERO ISZERO SWAP1 POP SWAP2 SWAP1 POP JUMP JUMPDEST PUSH2 0xB90 DUP2 PUSH2 0xB7C JUMP JUMPDEST DUP2 EQ PUSH2 0xB9A JUMPI PUSH0 PUSH0 REVERT JUMPDEST POP JUMP JUMPDEST PUSH0 DUP2 CALLDATALOAD SWAP1 POP PUSH2 0xBAB DUP2 PUSH2 0xB87 JUMP JUMPDEST SWAP3 SWAP2 POP POP JUMP JUMPDEST PUSH0 PUSH0 PUSH1 0x40 DUP4 DUP6 SUB SLT ISZERO PUSH2 0xBC7 JUMPI PUSH2 0xBC6 PUSH2 0xAF3 JUMP JUMPDEST JUMPDEST PUSH0 PUSH2 0xBD4 DUP6 DUP3 DUP7 ADD PUSH2 0xB3D JUMP JUMPDEST SWAP3 POP POP PUSH1 0x20 PUSH2 0xBE5 DUP6 DUP3 DUP7 ADD PUSH2 0xB9D JUMP JUMPDEST SWAP2 POP POP SWAP3 POP SWAP3 SWAP1 POP JUMP JUMPDEST PUSH0 DUP2 SWAP1 POP SWAP2 SWAP1 POP JUMP JUMPDEST PUSH2 0xC01 DUP2 PUSH2 0xBEF JUMP JUMPDEST DUP3 MSTORE POP POP JUMP JUMPDEST PUSH0 PUSH1 0x20 DUP3 ADD SWAP1 POP PUSH2 0xC1A PUSH0 DUP4 ADD DUP5 PUSH2 0xBF8 JUMP JUMPDEST SWAP3 SWAP2 POP POP JUMP JUMPDEST PUSH0 DUP3 DUP3 MSTORE PUSH1 0x20 DUP3 ADD SWAP1 POP SWAP3 SWAP2 POP POP JUMP JUMPDEST PUSH32 0x53656E646572206E6F7420617574686F72697A65642E00000000000000000000 PUSH0 DUP3 ADD MSTORE POP JUMP JUMPDEST PUSH0 PUSH2 0xC64 PUSH1 0x16 DUP4 PUSH2 0xC20 JUMP JUMPDEST SWAP2 POP PUSH2 0xC6F DUP3 PUSH2 0xC30 JUMP JUMPDEST PUSH1 0x20 DUP3 ADD SWAP1 POP SWAP2 SWAP1 POP JUMP JUMPDEST PUSH0 PUSH1 0x20 DUP3 ADD SWAP1 POP DUP2 DUP2 SUB PUSH0 DUP4 ADD MSTORE PUSH2 0xC91 DUP2 PUSH2 0xC58 JUMP JUMPDEST SWAP1 POP SWAP2 SWAP1 POP JUMP JUMPDEST PUSH32 0x496E737572616E63652070726F766964657220616C7265616479206164646564 PUSH0 DUP3 ADD MSTORE POP JUMP JUMPDEST PUSH0 PUSH2 0xCCC PUSH1 0x20 DUP4 PUSH2 0xC20 JUMP JUMPDEST SWAP2 POP PUSH2 0xCD7 DUP3 PUSH2 0xC98 JUMP JUMPDEST PUSH1 0x20 DUP3 ADD SWAP1 POP SWAP2 SWAP1 POP JUMP JUMPDEST PUSH0 PUSH1 0x20 DUP3 ADD SWAP1 POP DUP2 DUP2 SUB PUSH0 DUP4 ADD MSTORE PUSH2 0xCF9 DUP2 PUSH2 0xCC0 JUMP JUMPDEST SWAP1 POP SWAP2 SWAP1 POP JUMP JUMPDEST PUSH32 0x4E6F20666565646261636B2070726F7669646564206279207468697320666172 PUSH0 DUP3 ADD MSTORE PUSH32 0x6D65720000000000000000000000000000000000000000000000000000000000 PUSH1 0x20 DUP3 ADD MSTORE POP JUMP JUMPDEST PUSH0 PUSH2 0xD5A PUSH1 0x23 DUP4 PUSH2 0xC20 JUMP JUMPDEST SWAP2 POP PUSH2 0xD65 DUP3 PUSH2 0xD00 JUMP JUMPDEST PUSH1 0x40 DUP3 ADD SWAP1 POP SWAP2 SWAP1 POP JUMP JUMPDEST PUSH0 PUSH1 0x20 DUP3 ADD SWAP1 POP DUP2 DUP2 SUB PUSH0 DUP4 ADD MSTORE PUSH2 0xD87 DUP2 PUSH2 0xD4E JUMP JUMPDEST SWAP1 POP SWAP2 SWAP1 POP JUMP JUMPDEST PUSH32 0x4E487B7100000000000000000000000000000000000000000000000000000000 PUSH0 MSTORE PUSH1 0x11 PUSH1 0x4 MSTORE PUSH1 0x24 PUSH0 REVERT JUMPDEST PUSH0 PUSH2 0xDC5 DUP3 PUSH2 0xBEF JUMP JUMPDEST SWAP2 POP PUSH2 0xDD0 DUP4 PUSH2 0xBEF JUMP JUMPDEST SWAP3 POP DUP3 DUP3 MUL PUSH2 0xDDE DUP2 PUSH2 0xBEF JUMP JUMPDEST SWAP2 POP DUP3 DUP3 DIV DUP5 EQ DUP4 ISZERO OR PUSH2 0xDF5 JUMPI PUSH2 0xDF4 PUSH2 0xD8E JUMP JUMPDEST JUMPDEST POP SWAP3 SWAP2 POP POP JUMP JUMPDEST PUSH32 0x4E487B7100000000000000000000000000000000000000000000000000000000 PUSH0 MSTORE PUSH1 0x12 PUSH1 0x4 MSTORE PUSH1 0x24 PUSH0 REVERT JUMPDEST PUSH0 PUSH2 0xE33 DUP3 PUSH2 0xBEF JUMP JUMPDEST SWAP2 POP PUSH2 0xE3E DUP4 PUSH2 0xBEF JUMP JUMPDEST SWAP3 POP DUP3 PUSH2 0xE4E JUMPI PUSH2 0xE4D PUSH2 0xDFC JUMP JUMPDEST JUMPDEST DUP3 DUP3 DIV SWAP1 POP SWAP3 SWAP2 POP POP JUMP JUMPDEST PUSH0 PUSH2 0xE63 DUP3 PUSH2 0xBEF JUMP JUMPDEST SWAP2 POP PUSH2 0xE6E DUP4 PUSH2 0xBEF JUMP JUMPDEST SWAP3 POP DUP3 DUP3 SUB SWAP1 POP DUP2 DUP2 GT ISZERO PUSH2 0xE86 JUMPI PUSH2 0xE85 PUSH2 0xD8E JUMP JUMPDEST JUMPDEST SWAP3 SWAP2 POP POP JUMP JUMPDEST PUSH0 PUSH2 0xE96 DUP3 PUSH2 0xBEF JUMP JUMPDEST SWAP2 POP PUSH2 0xEA1 DUP4 PUSH2 0xBEF JUMP JUMPDEST SWAP3 POP DUP3 DUP3 ADD SWAP1 POP DUP1 DUP3 GT ISZERO PUSH2 0xEB9 JUMPI PUSH2 0xEB8 PUSH2 0xD8E JUMP JUMPDEST JUMPDEST SWAP3 SWAP2 POP POP JUMP JUMPDEST PUSH2 0xEC8 DUP2 PUSH2 0xB16 JUMP JUMPDEST DUP3 MSTORE POP POP JUMP JUMPDEST PUSH0 PUSH1 0x20 DUP3 ADD SWAP1 POP PUSH2 0xEE1 PUSH0 DUP4 ADD DUP5 PUSH2 0xEBF JUMP JUMPDEST SWAP3 SWAP2 POP POP JUMP JUMPDEST PUSH0 DUP2 MLOAD SWAP1 POP PUSH2 0xEF5 DUP2 PUSH2 0xB87 JUMP JUMPDEST SWAP3 SWAP2 POP POP JUMP JUMPDEST PUSH0 PUSH1 0x20 DUP3 DUP5 SUB SLT ISZERO PUSH2 0xF10 JUMPI PUSH2 0xF0F PUSH2 0xAF3 JUMP JUMPDEST JUMPDEST PUSH0 PUSH2 0xF1D DUP5 DUP3 DUP6 ADD PUSH2 0xEE7 JUMP JUMPDEST SWAP2 POP POP SWAP3 SWAP2 POP POP JUMP JUMPDEST PUSH32 0x4661726D65722068617320616C72656164792070726F76696465642066656564 PUSH0 DUP3 ADD MSTORE PUSH32 0x6261636B20666F7220746869732070726F766964657200000000000000000000 PUSH1 0x20 DUP3 ADD MSTORE POP JUMP JUMPDEST PUSH0 PUSH2 0xF80 PUSH1 0x36 DUP4 PUSH2 0xC20 JUMP JUMPDEST SWAP2 POP PUSH2 0xF8B DUP3 PUSH2 0xF26 JUMP JUMPDEST PUSH1 0x40 DUP3 ADD SWAP1 POP SWAP2 SWAP1 POP JUMP JUMPDEST PUSH0 PUSH1 0x20 DUP3 ADD SWAP1 POP DUP2 DUP2 SUB PUSH0 DUP4 ADD MSTORE PUSH2 0xFAD DUP2 PUSH2 0xF74 JUMP JUMPDEST SWAP1 POP SWAP2 SWAP1 POP JUMP JUMPDEST PUSH32 0x496E76616C696420696E737572616E63652070726F7669646572206164647265 PUSH0 DUP3 ADD MSTORE PUSH32 0x7373000000000000000000000000000000000000000000000000000000000000 PUSH1 0x20 DUP3 ADD MSTORE POP JUMP JUMPDEST PUSH0 PUSH2 0x100E PUSH1 0x22 DUP4 PUSH2 0xC20 JUMP JUMPDEST SWAP2 POP PUSH2 0x1019 DUP3 PUSH2 0xFB4 JUMP JUMPDEST PUSH1 0x40 DUP3 ADD SWAP1 POP SWAP2 SWAP1 POP JUMP JUMPDEST PUSH0 PUSH1 0x20 DUP3 ADD SWAP1 POP DUP2 DUP2 SUB PUSH0 DUP4 ADD MSTORE PUSH2 0x103B DUP2 PUSH2 0x1002 JUMP JUMPDEST SWAP1 POP SWAP2 SWAP1 POP JUMP INVALID LOG2 PUSH5 0x6970667358 0x22 SLT KECCAK256 NUMBER TSTORE SWAP16 0xCF GAS SDIV SDIV PUSH11 0x6FD917DDE5D5B2A26D9EFA EQ 0xD2 PUSH2 0xD994 0x23 SWAP7 DUP4 PUSH8 0x15B80CFC64736F6C PUSH4 0x4300081D STOP CALLER "
				},
				"gasEstimates": {
					"creation": {
						"codeDepositCost": "843200",
						"executionCost": "infinite",
						"totalCost": "infinite"
					},
					"external": {
						"InsuranceProviderRep(address)": "2846",
						"addInsuranceProvider(address)": "27008",
						"calculateRep(address)": "infinite",
						"feedback(address,bool)": "infinite"
					}
				},
				"methodIdentifiers": {
					"InsuranceProviderRep(address)": "b079569e",
					"addInsuranceProvider(address)": "5a2449a9",
					"calculateRep(address)": "82e5a30a",
					"feedback(address,bool)": "905af92b"
				}
			},
			"storageLayout": {
				"storage": [
					{
						"astId": 190,
						"contract": "contracts/reputation.sol:Reputation",
						"label": "registrationContract",
						"offset": 0,
						"slot": "0",
						"type": "t_contract(Registration)184"
					},
					{
						"astId": 194,
						"contract": "contracts/reputation.sol:Reputation",
						"label": "InsuranceProviderRep",
						"offset": 0,
						"slot": "1",
						"type": "t_mapping(t_address,t_uint256)"
					},
					{
						"astId": 196,
						"contract": "contracts/reputation.sol:Reputation",
						"label": "owner",
						"offset": 0,
						"slot": "2",
						"type": "t_address"
					},
					{
						"astId": 244,
						"contract": "contracts/reputation.sol:Reputation",
						"label": "FarmerFeedback",
						"offset": 0,
						"slot": "3",
						"type": "t_mapping(t_address,t_struct(FarmerFeedbackData)239_storage)"
					}
				],
				"types": {
					"t_address": {
						"encoding": "inplace",
						"label": "address",
						"numberOfBytes": "20"
					},
					"t_bool": {
						"encoding": "inplace",
						"label": "bool",
						"numberOfBytes": "1"
					},
					"t_contract(Registration)184": {
						"encoding": "inplace",
						"label": "contract Registration",
						"numberOfBytes": "20"
					},
					"t_mapping(t_address,t_bool)": {
						"encoding": "mapping",
						"key": "t_address",
						"label": "mapping(address => bool)",
						"numberOfBytes": "32",
						"value": "t_bool"
					},
					"t_mapping(t_address,t_struct(FarmerFeedbackData)239_storage)": {
						"encoding": "mapping",
						"key": "t_address",
						"label": "mapping(address => struct Reputation.FarmerFeedbackData)",
						"numberOfBytes": "32",
						"value": "t_struct(FarmerFeedbackData)239_storage"
					},
					"t_mapping(t_address,t_uint256)": {
						"encoding": "mapping",
						"key": "t_address",
						"label": "mapping(address => uint256)",
						"numberOfBytes": "32",
						"value": "t_uint256"
					},
					"t_struct(FarmerFeedbackData)239_storage": {
						"encoding": "inplace",
						"label": "struct Reputation.FarmerFeedbackData",
						"members": [
							{
								"astId": 234,
								"contract": "contracts/reputation.sol:Reputation",
								"label": "insurance_providers",
								"offset": 0,
								"slot": "0",
								"type": "t_mapping(t_address,t_bool)"
							},
							{
								"astId": 238,
								"contract": "contracts/reputation.sol:Reputation",
								"label": "status",
								"offset": 0,
								"slot": "1",
								"type": "t_mapping(t_address,t_bool)"
							}
						],
						"numberOfBytes": "64"
					},
					"t_uint256": {
						"encoding": "inplace",
						"label": "uint256",
						"numberOfBytes": "32"
					}
				}
			},
			"userdoc": {
				"kind": "user",
				"methods": {},
				"version": 1
			}
		}
	}
}