{
	"contracts/registration.sol": {
		"Registration": {
			"abi": [
				{
					"inputs": [],
					"stateMutability": "nonpayable",
					"type": "constructor"
				},
				{
					"anonymous": false,
					"inputs": [
						{
							"indexed": false,
							"internalType": "address",
							"name": "farmer",
							"type": "address"
						}
					],
					"name": "FarmerRegistered",
					"type": "event"
				},
				{
					"anonymous": false,
					"inputs": [
						{
							"indexed": false,
							"internalType": "address",
							"name": "insurance_provider",
							"type": "address"
						}
					],
					"name": "Insurance_providerRegistered",
					"type": "event"
				},
				{
					"anonymous": false,
					"inputs": [
						{
							"indexed": false,
							"internalType": "address",
							"name": "weather_provider",
							"type": "address"
						}
					],
					"name": "Weather_providerRegistered",
					"type": "event"
				},
				{
					"inputs": [
						{
							"internalType": "address",
							"name": "s",
							"type": "address"
						}
					],
					"name": "FarmerExists",
					"outputs": [
						{
							"internalType": "bool",
							"name": "",
							"type": "bool"
						}
					],
					"stateMutability": "view",
					"type": "function"
				},
				{
					"inputs": [
						{
							"internalType": "address",
							"name": "r",
							"type": "address"
						}
					],
					"name": "InsuranceProviderExists",
					"outputs": [
						{
							"internalType": "bool",
							"name": "",
							"type": "bool"
						}
					],
					"stateMutability": "view",
					"type": "function"
				},
				{
					"inputs": [
						{
							"internalType": "address",
							"name": "t",
							"type": "address"
						}
					],
					"name": "WeatherProviderExists",
					"outputs": [
						{
							"internalType": "bool",
							"name": "",
							"type": "bool"
						}
					],
					"stateMutability": "view",
					"type": "function"
				},
				{
					"inputs": [
						{
							"internalType": "address",
							"name": "",
							"type": "address"
						}
					],
					"name": "farmer",
					"outputs": [
						{
							"internalType": "bool",
							"name": "",
							"type": "bool"
						}
					],
					"stateMutability": "view",
					"type": "function"
				},
				{
					"inputs": [
						{
							"internalType": "address",
							"name": "",
							"type": "address"
						}
					],
					"name": "insurance_provider",
					"outputs": [
						{
							"internalType": "bool",
							"name": "",
							"type": "bool"
						}
					],
					"stateMutability": "view",
					"type": "function"
				},
				{
					"inputs": [],
					"name": "registerFarmer",
					"outputs": [],
					"stateMutability": "nonpayable",
					"type": "function"
				},
				{
					"inputs": [],
					"name": "registerInsurance_provider",
					"outputs": [],
					"stateMutability": "nonpayable",
					"type": "function"
				},
				{
					"inputs": [],
					"name": "registerWeather_provider",
					"outputs": [],
					"stateMutability": "nonpayable",
					"type": "function"
				},
				{
					"inputs": [
						{
							"internalType": "address",
							"name": "",
							"type": "address"
						}
					],
					"name": "weather_provider",
					"outputs": [
						{
							"internalType": "bool",
							"name": "",
							"type": "bool"
						}
					],
					"stateMutability": "view",
					"type": "function"
				}
			],
			"devdoc": {
				"kind": "dev",
				"methods": {},
				"version": 1
			},
			"evm": {
				"assembly": "    /* \"contracts/registration.sol\":61:1781  contract Registration {... */\n  mstore(0x40, 0x80)\n    /* \"contracts/registration.sol\":466:515  constructor() {... */\n  callvalue\n  dup1\n  iszero\n  tag_1\n  jumpi\n  revert(0x00, 0x00)\ntag_1:\n  pop\n    /* \"contracts/registration.sol\":497:507  msg.sender */\n  caller\n    /* \"contracts/registration.sol\":491:496  owner */\n  0x00\n  0x00\n    /* \"contracts/registration.sol\":491:507  owner=msg.sender */\n  0x0100\n  exp\n  dup2\n  sload\n  dup2\n  0xffffffffffffffffffffffffffffffffffffffff\n  mul\n  not\n  and\n  swap1\n  dup4\n  0xffffffffffffffffffffffffffffffffffffffff\n  and\n  mul\n  or\n  swap1\n  sstore\n  pop\n    /* \"contracts/registration.sol\":61:1781  contract Registration {... */\n  dataSize(sub_0)\n  dup1\n  dataOffset(sub_0)\n  0x00\n  codecopy\n  0x00\n  return\nstop\n\nsub_0: assembly {\n        /* \"contracts/registration.sol\":61:1781  contract Registration {... */\n      mstore(0x40, 0x80)\n      callvalue\n      dup1\n      iszero\n      tag_1\n      jumpi\n      revert(0x00, 0x00)\n    tag_1:\n      pop\n      jumpi(tag_2, lt(calldatasize, 0x04))\n      shr(0xe0, calldataload(0x00))\n      dup1\n      0x7e0b782d\n      gt\n      tag_12\n      jumpi\n      dup1\n      0x7e0b782d\n      eq\n      tag_7\n      jumpi\n      dup1\n      0xadc4e839\n      eq\n      tag_8\n      jumpi\n      dup1\n      0xb00cc9e4\n      eq\n      tag_9\n      jumpi\n      dup1\n      0xd68ef2e2\n      eq\n      tag_10\n      jumpi\n      dup1\n      0xe354fed0\n      eq\n      tag_11\n      jumpi\n      jump(tag_2)\n    tag_12:\n      dup1\n      0x048287a5\n      eq\n      tag_3\n      jumpi\n      dup1\n      0x25026f44\n      eq\n      tag_4\n      jumpi\n      dup1\n      0x3d2121f8\n      eq\n      tag_5\n      jumpi\n      dup1\n      0x6f70904a\n      eq\n      tag_6\n      jumpi\n    tag_2:\n      revert(0x00, 0x00)\n        /* \"contracts/registration.sol\":1664:1778  function WeatherProviderExists(address t) view public returns (bool) {... */\n    tag_3:\n      tag_13\n      0x04\n      dup1\n      calldatasize\n      sub\n      dup2\n      add\n      swap1\n      tag_14\n      swap2\n      swap1\n      tag_15\n      jump\t// in\n    tag_14:\n      tag_16\n      jump\t// in\n    tag_13:\n      mload(0x40)\n      tag_17\n      swap2\n      swap1\n      tag_18\n      jump\t// in\n    tag_17:\n      mload(0x40)\n      dup1\n      swap2\n      sub\n      swap1\n      return\n        /* \"contracts/registration.sol\":169:217  mapping(address=>bool) public insurance_provider */\n    tag_4:\n      tag_19\n      0x04\n      dup1\n      calldatasize\n      sub\n      dup2\n      add\n      swap1\n      tag_20\n      swap2\n      swap1\n      tag_15\n      jump\t// in\n    tag_20:\n      tag_21\n      jump\t// in\n    tag_19:\n      mload(0x40)\n      tag_22\n      swap2\n      swap1\n      tag_18\n      jump\t// in\n    tag_22:\n      mload(0x40)\n      dup1\n      swap2\n      sub\n      swap1\n      return\n        /* \"contracts/registration.sol\":807:1112  function registerInsurance_provider() public{... */\n    tag_5:\n      tag_23\n      tag_24\n      jump\t// in\n    tag_23:\n      stop\n        /* \"contracts/registration.sol\":224:270  mapping(address=>bool) public weather_provider */\n    tag_6:\n      tag_25\n      0x04\n      dup1\n      calldatasize\n      sub\n      dup2\n      add\n      swap1\n      tag_26\n      swap2\n      swap1\n      tag_15\n      jump\t// in\n    tag_26:\n      tag_27\n      jump\t// in\n    tag_25:\n      mload(0x40)\n      tag_28\n      swap2\n      swap1\n      tag_18\n      jump\t// in\n    tag_28:\n      mload(0x40)\n      dup1\n      swap2\n      sub\n      swap1\n      return\n        /* \"contracts/registration.sol\":1431:1526  function FarmerExists(address s) view public returns (bool) {... */\n    tag_7:\n      tag_29\n      0x04\n      dup1\n      calldatasize\n      sub\n      dup2\n      add\n      swap1\n      tag_30\n      swap2\n      swap1\n      tag_15\n      jump\t// in\n    tag_30:\n      tag_31\n      jump\t// in\n    tag_29:\n      mload(0x40)\n      tag_32\n      swap2\n      swap1\n      tag_18\n      jump\t// in\n    tag_32:\n      mload(0x40)\n      dup1\n      swap2\n      sub\n      swap1\n      return\n        /* \"contracts/registration.sol\":126:162  mapping(address=>bool) public farmer */\n    tag_8:\n      tag_33\n      0x04\n      dup1\n      calldatasize\n      sub\n      dup2\n      add\n      swap1\n      tag_34\n      swap2\n      swap1\n      tag_15\n      jump\t// in\n    tag_34:\n      tag_35\n      jump\t// in\n    tag_33:\n      mload(0x40)\n      tag_36\n      swap2\n      swap1\n      tag_18\n      jump\t// in\n    tag_36:\n      mload(0x40)\n      dup1\n      swap2\n      sub\n      swap1\n      return\n        /* \"contracts/registration.sol\":527:795  function registerFarmer() public{... */\n    tag_9:\n      tag_37\n      tag_38\n      jump\t// in\n    tag_37:\n      stop\n        /* \"contracts/registration.sol\":1120:1419  function registerWeather_provider() public{... */\n    tag_10:\n      tag_39\n      tag_40\n      jump\t// in\n    tag_39:\n      stop\n        /* \"contracts/registration.sol\":1538:1656  function InsuranceProviderExists(address r) view public returns (bool) {... */\n    tag_11:\n      tag_41\n      0x04\n      dup1\n      calldatasize\n      sub\n      dup2\n      add\n      swap1\n      tag_42\n      swap2\n      swap1\n      tag_15\n      jump\t// in\n    tag_42:\n      tag_43\n      jump\t// in\n    tag_41:\n      mload(0x40)\n      tag_44\n      swap2\n      swap1\n      tag_18\n      jump\t// in\n    tag_44:\n      mload(0x40)\n      dup1\n      swap2\n      sub\n      swap1\n      return\n        /* \"contracts/registration.sol\":1664:1778  function WeatherProviderExists(address t) view public returns (bool) {... */\n    tag_16:\n        /* \"contracts/registration.sol\":1727:1731  bool */\n      0x00\n        /* \"contracts/registration.sol\":1751:1767  weather_provider */\n      0x03\n        /* \"contracts/registration.sol\":1751:1770  weather_provider[t] */\n      0x00\n        /* \"contracts/registration.sol\":1768:1769  t */\n      dup4\n        /* \"contracts/registration.sol\":1751:1770  weather_provider[t] */\n      0xffffffffffffffffffffffffffffffffffffffff\n      and\n      0xffffffffffffffffffffffffffffffffffffffff\n      and\n      dup2\n      mstore\n      0x20\n      add\n      swap1\n      dup2\n      mstore\n      0x20\n      add\n      0x00\n      keccak256\n      0x00\n      swap1\n      sload\n      swap1\n      0x0100\n      exp\n      swap1\n      div\n      0xff\n      and\n        /* \"contracts/registration.sol\":1744:1770  return weather_provider[t] */\n      swap1\n      pop\n        /* \"contracts/registration.sol\":1664:1778  function WeatherProviderExists(address t) view public returns (bool) {... */\n      swap2\n      swap1\n      pop\n      jump\t// out\n        /* \"contracts/registration.sol\":169:217  mapping(address=>bool) public insurance_provider */\n    tag_21:\n      mstore(0x20, 0x02)\n      dup1\n      0x00\n      mstore\n      keccak256(0x00, 0x40)\n      0x00\n      swap2\n      pop\n      sload\n      swap1\n      0x0100\n      exp\n      swap1\n      div\n      0xff\n      and\n      dup2\n      jump\t// out\n        /* \"contracts/registration.sol\":807:1112  function registerInsurance_provider() public{... */\n    tag_24:\n        /* \"contracts/registration.sol\":872:878  farmer */\n      0x01\n        /* \"contracts/registration.sol\":872:890  farmer[msg.sender] */\n      0x00\n        /* \"contracts/registration.sol\":879:889  msg.sender */\n      caller\n        /* \"contracts/registration.sol\":872:890  farmer[msg.sender] */\n      0xffffffffffffffffffffffffffffffffffffffff\n      and\n      0xffffffffffffffffffffffffffffffffffffffff\n      and\n      dup2\n      mstore\n      0x20\n      add\n      swap1\n      dup2\n      mstore\n      0x20\n      add\n      0x00\n      keccak256\n      0x00\n      swap1\n      sload\n      swap1\n      0x0100\n      exp\n      swap1\n      div\n      0xff\n      and\n        /* \"contracts/registration.sol\":871:890  !farmer[msg.sender] */\n      iszero\n        /* \"contracts/registration.sol\":871:925  !farmer[msg.sender] && !insurance_provider[msg.sender] */\n      dup1\n      iszero\n      tag_47\n      jumpi\n      pop\n        /* \"contracts/registration.sol\":895:913  insurance_provider */\n      0x02\n        /* \"contracts/registration.sol\":895:925  insurance_provider[msg.sender] */\n      0x00\n        /* \"contracts/registration.sol\":914:924  msg.sender */\n      caller\n        /* \"contracts/registration.sol\":895:925  insurance_provider[msg.sender] */\n      0xffffffffffffffffffffffffffffffffffffffff\n      and\n      0xffffffffffffffffffffffffffffffffffffffff\n      and\n      dup2\n      mstore\n      0x20\n      add\n      swap1\n      dup2\n      mstore\n      0x20\n      add\n      0x00\n      keccak256\n      0x00\n      swap1\n      sload\n      swap1\n      0x0100\n      exp\n      swap1\n      div\n      0xff\n      and\n        /* \"contracts/registration.sol\":894:925  !insurance_provider[msg.sender] */\n      iszero\n        /* \"contracts/registration.sol\":871:925  !farmer[msg.sender] && !insurance_provider[msg.sender] */\n    tag_47:\n        /* \"contracts/registration.sol\":871:958  !farmer[msg.sender] && !insurance_provider[msg.sender] && !weather_provider[msg.sender] */\n      dup1\n      iszero\n      tag_48\n      jumpi\n      pop\n        /* \"contracts/registration.sol\":930:946  weather_provider */\n      0x03\n        /* \"contracts/registration.sol\":930:958  weather_provider[msg.sender] */\n      0x00\n        /* \"contracts/registration.sol\":947:957  msg.sender */\n      caller\n        /* \"contracts/registration.sol\":930:958  weather_provider[msg.sender] */\n      0xffffffffffffffffffffffffffffffffffffffff\n      and\n      0xffffffffffffffffffffffffffffffffffffffff\n      and\n      dup2\n      mstore\n      0x20\n      add\n      swap1\n      dup2\n      mstore\n      0x20\n      add\n      0x00\n      keccak256\n      0x00\n      swap1\n      sload\n      swap1\n      0x0100\n      exp\n      swap1\n      div\n      0xff\n      and\n        /* \"contracts/registration.sol\":929:958  !weather_provider[msg.sender] */\n      iszero\n        /* \"contracts/registration.sol\":871:958  !farmer[msg.sender] && !insurance_provider[msg.sender] && !weather_provider[msg.sender] */\n    tag_48:\n        /* \"contracts/registration.sol\":863:992  require(!farmer[msg.sender] && !insurance_provider[msg.sender] && !weather_provider[msg.sender],... */\n      tag_49\n      jumpi\n      mload(0x40)\n      0x08c379a000000000000000000000000000000000000000000000000000000000\n      dup2\n      mstore\n      0x04\n      add\n      tag_50\n      swap1\n      tag_51\n      jump\t// in\n    tag_50:\n      mload(0x40)\n      dup1\n      swap2\n      sub\n      swap1\n      revert\n    tag_49:\n        /* \"contracts/registration.sol\":1044:1048  true */\n      0x01\n        /* \"contracts/registration.sol\":1013:1031  insurance_provider */\n      0x02\n        /* \"contracts/registration.sol\":1013:1043  insurance_provider[msg.sender] */\n      0x00\n        /* \"contracts/registration.sol\":1032:1042  msg.sender */\n      caller\n        /* \"contracts/registration.sol\":1013:1043  insurance_provider[msg.sender] */\n      0xffffffffffffffffffffffffffffffffffffffff\n      and\n      0xffffffffffffffffffffffffffffffffffffffff\n      and\n      dup2\n      mstore\n      0x20\n      add\n      swap1\n      dup2\n      mstore\n      0x20\n      add\n      0x00\n      keccak256\n      0x00\n        /* \"contracts/registration.sol\":1013:1048  insurance_provider[msg.sender]=true */\n      0x0100\n      exp\n      dup2\n      sload\n      dup2\n      0xff\n      mul\n      not\n      and\n      swap1\n      dup4\n      iszero\n      iszero\n      mul\n      or\n      swap1\n      sstore\n      pop\n        /* \"contracts/registration.sol\":1064:1104  Insurance_providerRegistered(msg.sender) */\n      0x0bf4b695b151c6219a3bf1f8406346eca84d73ab372d5c44963a76209d4b5547\n        /* \"contracts/registration.sol\":1093:1103  msg.sender */\n      caller\n        /* \"contracts/registration.sol\":1064:1104  Insurance_providerRegistered(msg.sender) */\n      mload(0x40)\n      tag_52\n      swap2\n      swap1\n      tag_53\n      jump\t// in\n    tag_52:\n      mload(0x40)\n      dup1\n      swap2\n      sub\n      swap1\n      log1\n        /* \"contracts/registration.sol\":807:1112  function registerInsurance_provider() public{... */\n      jump\t// out\n        /* \"contracts/registration.sol\":224:270  mapping(address=>bool) public weather_provider */\n    tag_27:\n      mstore(0x20, 0x03)\n      dup1\n      0x00\n      mstore\n      keccak256(0x00, 0x40)\n      0x00\n      swap2\n      pop\n      sload\n      swap1\n      0x0100\n      exp\n      swap1\n      div\n      0xff\n      and\n      dup2\n      jump\t// out\n        /* \"contracts/registration.sol\":1431:1526  function FarmerExists(address s) view public returns (bool) {... */\n    tag_31:\n        /* \"contracts/registration.sol\":1485:1489  bool */\n      0x00\n        /* \"contracts/registration.sol\":1509:1515  farmer */\n      0x01\n        /* \"contracts/registration.sol\":1509:1518  farmer[s] */\n      0x00\n        /* \"contracts/registration.sol\":1516:1517  s */\n      dup4\n        /* \"contracts/registration.sol\":1509:1518  farmer[s] */\n      0xffffffffffffffffffffffffffffffffffffffff\n      and\n      0xffffffffffffffffffffffffffffffffffffffff\n      and\n      dup2\n      mstore\n      0x20\n      add\n      swap1\n      dup2\n      mstore\n      0x20\n      add\n      0x00\n      keccak256\n      0x00\n      swap1\n      sload\n      swap1\n      0x0100\n      exp\n      swap1\n      div\n      0xff\n      and\n        /* \"contracts/registration.sol\":1502:1518  return farmer[s] */\n      swap1\n      pop\n        /* \"contracts/registration.sol\":1431:1526  function FarmerExists(address s) view public returns (bool) {... */\n      swap2\n      swap1\n      pop\n      jump\t// out\n        /* \"contracts/registration.sol\":126:162  mapping(address=>bool) public farmer */\n    tag_35:\n      mstore(0x20, 0x01)\n      dup1\n      0x00\n      mstore\n      keccak256(0x00, 0x40)\n      0x00\n      swap2\n      pop\n      sload\n      swap1\n      0x0100\n      exp\n      swap1\n      div\n      0xff\n      and\n      dup2\n      jump\t// out\n        /* \"contracts/registration.sol\":527:795  function registerFarmer() public{... */\n    tag_38:\n        /* \"contracts/registration.sol\":579:585  farmer */\n      0x01\n        /* \"contracts/registration.sol\":579:597  farmer[msg.sender] */\n      0x00\n        /* \"contracts/registration.sol\":586:596  msg.sender */\n      caller\n        /* \"contracts/registration.sol\":579:597  farmer[msg.sender] */\n      0xffffffffffffffffffffffffffffffffffffffff\n      and\n      0xffffffffffffffffffffffffffffffffffffffff\n      and\n      dup2\n      mstore\n      0x20\n      add\n      swap1\n      dup2\n      mstore\n      0x20\n      add\n      0x00\n      keccak256\n      0x00\n      swap1\n      sload\n      swap1\n      0x0100\n      exp\n      swap1\n      div\n      0xff\n      and\n        /* \"contracts/registration.sol\":578:597  !farmer[msg.sender] */\n      iszero\n        /* \"contracts/registration.sol\":578:632  !farmer[msg.sender] && !insurance_provider[msg.sender] */\n      dup1\n      iszero\n      tag_56\n      jumpi\n      pop\n        /* \"contracts/registration.sol\":602:620  insurance_provider */\n      0x02\n        /* \"contracts/registration.sol\":602:632  insurance_provider[msg.sender] */\n      0x00\n        /* \"contracts/registration.sol\":621:631  msg.sender */\n      caller\n        /* \"contracts/registration.sol\":602:632  insurance_provider[msg.sender] */\n      0xffffffffffffffffffffffffffffffffffffffff\n      and\n      0xffffffffffffffffffffffffffffffffffffffff\n      and\n      dup2\n      mstore\n      0x20\n      add\n      swap1\n      dup2\n      mstore\n      0x20\n      add\n      0x00\n      keccak256\n      0x00\n      swap1\n      sload\n      swap1\n      0x0100\n      exp\n      swap1\n      div\n      0xff\n      and\n        /* \"contracts/registration.sol\":601:632  !insurance_provider[msg.sender] */\n      iszero\n        /* \"contracts/registration.sol\":578:632  !farmer[msg.sender] && !insurance_provider[msg.sender] */\n    tag_56:\n        /* \"contracts/registration.sol\":578:665  !farmer[msg.sender] && !insurance_provider[msg.sender] && !weather_provider[msg.sender] */\n      dup1\n      iszero\n      tag_57\n      jumpi\n      pop\n        /* \"contracts/registration.sol\":637:653  weather_provider */\n      0x03\n        /* \"contracts/registration.sol\":637:665  weather_provider[msg.sender] */\n      0x00\n        /* \"contracts/registration.sol\":654:664  msg.sender */\n      caller\n        /* \"contracts/registration.sol\":637:665  weather_provider[msg.sender] */\n      0xffffffffffffffffffffffffffffffffffffffff\n      and\n      0xffffffffffffffffffffffffffffffffffffffff\n      and\n      dup2\n      mstore\n      0x20\n      add\n      swap1\n      dup2\n      mstore\n      0x20\n      add\n      0x00\n      keccak256\n      0x00\n      swap1\n      sload\n      swap1\n      0x0100\n      exp\n      swap1\n      div\n      0xff\n      and\n        /* \"contracts/registration.sol\":636:665  !weather_provider[msg.sender] */\n      iszero\n        /* \"contracts/registration.sol\":578:665  !farmer[msg.sender] && !insurance_provider[msg.sender] && !weather_provider[msg.sender] */\n    tag_57:\n        /* \"contracts/registration.sol\":570:699  require(!farmer[msg.sender] && !insurance_provider[msg.sender] && !weather_provider[msg.sender],... */\n      tag_58\n      jumpi\n      mload(0x40)\n      0x08c379a000000000000000000000000000000000000000000000000000000000\n      dup2\n      mstore\n      0x04\n      add\n      tag_59\n      swap1\n      tag_51\n      jump\t// in\n    tag_59:\n      mload(0x40)\n      dup1\n      swap2\n      sub\n      swap1\n      revert\n    tag_58:\n        /* \"contracts/registration.sol\":739:743  true */\n      0x01\n        /* \"contracts/registration.sol\":720:726  farmer */\n      dup1\n        /* \"contracts/registration.sol\":720:738  farmer[msg.sender] */\n      0x00\n        /* \"contracts/registration.sol\":727:737  msg.sender */\n      caller\n        /* \"contracts/registration.sol\":720:738  farmer[msg.sender] */\n      0xffffffffffffffffffffffffffffffffffffffff\n      and\n      0xffffffffffffffffffffffffffffffffffffffff\n      and\n      dup2\n      mstore\n      0x20\n      add\n      swap1\n      dup2\n      mstore\n      0x20\n      add\n      0x00\n      keccak256\n      0x00\n        /* \"contracts/registration.sol\":720:743  farmer[msg.sender]=true */\n      0x0100\n      exp\n      dup2\n      sload\n      dup2\n      0xff\n      mul\n      not\n      and\n      swap1\n      dup4\n      iszero\n      iszero\n      mul\n      or\n      swap1\n      sstore\n      pop\n        /* \"contracts/registration.sol\":759:787  FarmerRegistered(msg.sender) */\n      0xb823648a4f966454b9528e4cff62de3873b6d49fb7f49062b9a1840d252c2393\n        /* \"contracts/registration.sol\":776:786  msg.sender */\n      caller\n        /* \"contracts/registration.sol\":759:787  FarmerRegistered(msg.sender) */\n      mload(0x40)\n      tag_60\n      swap2\n      swap1\n      tag_53\n      jump\t// in\n    tag_60:\n      mload(0x40)\n      dup1\n      swap2\n      sub\n      swap1\n      log1\n        /* \"contracts/registration.sol\":527:795  function registerFarmer() public{... */\n      jump\t// out\n        /* \"contracts/registration.sol\":1120:1419  function registerWeather_provider() public{... */\n    tag_40:\n        /* \"contracts/registration.sol\":1183:1189  farmer */\n      0x01\n        /* \"contracts/registration.sol\":1183:1201  farmer[msg.sender] */\n      0x00\n        /* \"contracts/registration.sol\":1190:1200  msg.sender */\n      caller\n        /* \"contracts/registration.sol\":1183:1201  farmer[msg.sender] */\n      0xffffffffffffffffffffffffffffffffffffffff\n      and\n      0xffffffffffffffffffffffffffffffffffffffff\n      and\n      dup2\n      mstore\n      0x20\n      add\n      swap1\n      dup2\n      mstore\n      0x20\n      add\n      0x00\n      keccak256\n      0x00\n      swap1\n      sload\n      swap1\n      0x0100\n      exp\n      swap1\n      div\n      0xff\n      and\n        /* \"contracts/registration.sol\":1182:1201  !farmer[msg.sender] */\n      iszero\n        /* \"contracts/registration.sol\":1182:1236  !farmer[msg.sender] && !insurance_provider[msg.sender] */\n      dup1\n      iszero\n      tag_62\n      jumpi\n      pop\n        /* \"contracts/registration.sol\":1206:1224  insurance_provider */\n      0x02\n        /* \"contracts/registration.sol\":1206:1236  insurance_provider[msg.sender] */\n      0x00\n        /* \"contracts/registration.sol\":1225:1235  msg.sender */\n      caller\n        /* \"contracts/registration.sol\":1206:1236  insurance_provider[msg.sender] */\n      0xffffffffffffffffffffffffffffffffffffffff\n      and\n      0xffffffffffffffffffffffffffffffffffffffff\n      and\n      dup2\n      mstore\n      0x20\n      add\n      swap1\n      dup2\n      mstore\n      0x20\n      add\n      0x00\n      keccak256\n      0x00\n      swap1\n      sload\n      swap1\n      0x0100\n      exp\n      swap1\n      div\n      0xff\n      and\n        /* \"contracts/registration.sol\":1205:1236  !insurance_provider[msg.sender] */\n      iszero\n        /* \"contracts/registration.sol\":1182:1236  !farmer[msg.sender] && !insurance_provider[msg.sender] */\n    tag_62:\n        /* \"contracts/registration.sol\":1182:1269  !farmer[msg.sender] && !insurance_provider[msg.sender] && !weather_provider[msg.sender] */\n      dup1\n      iszero\n      tag_63\n      jumpi\n      pop\n        /* \"contracts/registration.sol\":1241:1257  weather_provider */\n      0x03\n        /* \"contracts/registration.sol\":1241:1269  weather_provider[msg.sender] */\n      0x00\n        /* \"contracts/registration.sol\":1258:1268  msg.sender */\n      caller\n        /* \"contracts/registration.sol\":1241:1269  weather_provider[msg.sender] */\n      0xffffffffffffffffffffffffffffffffffffffff\n      and\n      0xffffffffffffffffffffffffffffffffffffffff\n      and\n      dup2\n      mstore\n      0x20\n      add\n      swap1\n      dup2\n      mstore\n      0x20\n      add\n      0x00\n      keccak256\n      0x00\n      swap1\n      sload\n      swap1\n      0x0100\n      exp\n      swap1\n      div\n      0xff\n      and\n        /* \"contracts/registration.sol\":1240:1269  !weather_provider[msg.sender] */\n      iszero\n        /* \"contracts/registration.sol\":1182:1269  !farmer[msg.sender] && !insurance_provider[msg.sender] && !weather_provider[msg.sender] */\n    tag_63:\n        /* \"contracts/registration.sol\":1174:1303  require(!farmer[msg.sender] && !insurance_provider[msg.sender] && !weather_provider[msg.sender],... */\n      tag_64\n      jumpi\n      mload(0x40)\n      0x08c379a000000000000000000000000000000000000000000000000000000000\n      dup2\n      mstore\n      0x04\n      add\n      tag_65\n      swap1\n      tag_51\n      jump\t// in\n    tag_65:\n      mload(0x40)\n      dup1\n      swap2\n      sub\n      swap1\n      revert\n    tag_64:\n        /* \"contracts/registration.sol\":1353:1357  true */\n      0x01\n        /* \"contracts/registration.sol\":1324:1340  weather_provider */\n      0x03\n        /* \"contracts/registration.sol\":1324:1352  weather_provider[msg.sender] */\n      0x00\n        /* \"contracts/registration.sol\":1341:1351  msg.sender */\n      caller\n        /* \"contracts/registration.sol\":1324:1352  weather_provider[msg.sender] */\n      0xffffffffffffffffffffffffffffffffffffffff\n      and\n      0xffffffffffffffffffffffffffffffffffffffff\n      and\n      dup2\n      mstore\n      0x20\n      add\n      swap1\n      dup2\n      mstore\n      0x20\n      add\n      0x00\n      keccak256\n      0x00\n        /* \"contracts/registration.sol\":1324:1357  weather_provider[msg.sender]=true */\n      0x0100\n      exp\n      dup2\n      sload\n      dup2\n      0xff\n      mul\n      not\n      and\n      swap1\n      dup4\n      iszero\n      iszero\n      mul\n      or\n      swap1\n      sstore\n      pop\n        /* \"contracts/registration.sol\":1373:1411  Weather_providerRegistered(msg.sender) */\n      0x05011a6e99a3a04889cc02d1db3f1c39cc5f6d4f15ae8ab92b2f712d4c5f3b98\n        /* \"contracts/registration.sol\":1400:1410  msg.sender */\n      caller\n        /* \"contracts/registration.sol\":1373:1411  Weather_providerRegistered(msg.sender) */\n      mload(0x40)\n      tag_66\n      swap2\n      swap1\n      tag_53\n      jump\t// in\n    tag_66:\n      mload(0x40)\n      dup1\n      swap2\n      sub\n      swap1\n      log1\n        /* \"contracts/registration.sol\":1120:1419  function registerWeather_provider() public{... */\n      jump\t// out\n        /* \"contracts/registration.sol\":1538:1656  function InsuranceProviderExists(address r) view public returns (bool) {... */\n    tag_43:\n        /* \"contracts/registration.sol\":1603:1607  bool */\n      0x00\n        /* \"contracts/registration.sol\":1627:1645  insurance_provider */\n      0x02\n        /* \"contracts/registration.sol\":1627:1648  insurance_provider[r] */\n      0x00\n        /* \"contracts/registration.sol\":1646:1647  r */\n      dup4\n        /* \"contracts/registration.sol\":1627:1648  insurance_provider[r] */\n      0xffffffffffffffffffffffffffffffffffffffff\n      and\n      0xffffffffffffffffffffffffffffffffffffffff\n      and\n      dup2\n      mstore\n      0x20\n      add\n      swap1\n      dup2\n      mstore\n      0x20\n      add\n      0x00\n      keccak256\n      0x00\n      swap1\n      sload\n      swap1\n      0x0100\n      exp\n      swap1\n      div\n      0xff\n      and\n        /* \"contracts/registration.sol\":1620:1648  return insurance_provider[r] */\n      swap1\n      pop\n        /* \"contracts/registration.sol\":1538:1656  function InsuranceProviderExists(address r) view public returns (bool) {... */\n      swap2\n      swap1\n      pop\n      jump\t// out\n        /* \"#utility.yul\":88:205   */\n    tag_69:\n        /* \"#utility.yul\":197:198   */\n      0x00\n        /* \"#utility.yul\":194:195   */\n      0x00\n        /* \"#utility.yul\":187:199   */\n      revert\n        /* \"#utility.yul\":334:460   */\n    tag_71:\n        /* \"#utility.yul\":371:378   */\n      0x00\n        /* \"#utility.yul\":411:453   */\n      0xffffffffffffffffffffffffffffffffffffffff\n        /* \"#utility.yul\":404:409   */\n      dup3\n        /* \"#utility.yul\":400:454   */\n      and\n        /* \"#utility.yul\":389:454   */\n      swap1\n      pop\n        /* \"#utility.yul\":334:460   */\n      swap2\n      swap1\n      pop\n      jump\t// out\n        /* \"#utility.yul\":466:562   */\n    tag_72:\n        /* \"#utility.yul\":503:510   */\n      0x00\n        /* \"#utility.yul\":532:556   */\n      tag_87\n        /* \"#utility.yul\":550:555   */\n      dup3\n        /* \"#utility.yul\":532:556   */\n      tag_71\n      jump\t// in\n    tag_87:\n        /* \"#utility.yul\":521:556   */\n      swap1\n      pop\n        /* \"#utility.yul\":466:562   */\n      swap2\n      swap1\n      pop\n      jump\t// out\n        /* \"#utility.yul\":568:690   */\n    tag_73:\n        /* \"#utility.yul\":641:665   */\n      tag_89\n        /* \"#utility.yul\":659:664   */\n      dup2\n        /* \"#utility.yul\":641:665   */\n      tag_72\n      jump\t// in\n    tag_89:\n        /* \"#utility.yul\":634:639   */\n      dup2\n        /* \"#utility.yul\":631:666   */\n      eq\n        /* \"#utility.yul\":621:684   */\n      tag_90\n      jumpi\n        /* \"#utility.yul\":680:681   */\n      0x00\n        /* \"#utility.yul\":677:678   */\n      0x00\n        /* \"#utility.yul\":670:682   */\n      revert\n        /* \"#utility.yul\":621:684   */\n    tag_90:\n        /* \"#utility.yul\":568:690   */\n      pop\n      jump\t// out\n        /* \"#utility.yul\":696:835   */\n    tag_74:\n        /* \"#utility.yul\":742:747   */\n      0x00\n        /* \"#utility.yul\":780:786   */\n      dup2\n        /* \"#utility.yul\":767:787   */\n      calldataload\n        /* \"#utility.yul\":758:787   */\n      swap1\n      pop\n        /* \"#utility.yul\":796:829   */\n      tag_92\n        /* \"#utility.yul\":823:828   */\n      dup2\n        /* \"#utility.yul\":796:829   */\n      tag_73\n      jump\t// in\n    tag_92:\n        /* \"#utility.yul\":696:835   */\n      swap3\n      swap2\n      pop\n      pop\n      jump\t// out\n        /* \"#utility.yul\":841:1170   */\n    tag_15:\n        /* \"#utility.yul\":900:906   */\n      0x00\n        /* \"#utility.yul\":949:951   */\n      0x20\n        /* \"#utility.yul\":937:946   */\n      dup3\n        /* \"#utility.yul\":928:935   */\n      dup5\n        /* \"#utility.yul\":924:947   */\n      sub\n        /* \"#utility.yul\":920:952   */\n      slt\n        /* \"#utility.yul\":917:1036   */\n      iszero\n      tag_94\n      jumpi\n        /* \"#utility.yul\":955:1034   */\n      tag_95\n      tag_69\n      jump\t// in\n    tag_95:\n        /* \"#utility.yul\":917:1036   */\n    tag_94:\n        /* \"#utility.yul\":1075:1076   */\n      0x00\n        /* \"#utility.yul\":1100:1153   */\n      tag_96\n        /* \"#utility.yul\":1145:1152   */\n      dup5\n        /* \"#utility.yul\":1136:1142   */\n      dup3\n        /* \"#utility.yul\":1125:1134   */\n      dup6\n        /* \"#utility.yul\":1121:1143   */\n      add\n        /* \"#utility.yul\":1100:1153   */\n      tag_74\n      jump\t// in\n    tag_96:\n        /* \"#utility.yul\":1090:1153   */\n      swap2\n      pop\n        /* \"#utility.yul\":1046:1163   */\n      pop\n        /* \"#utility.yul\":841:1170   */\n      swap3\n      swap2\n      pop\n      pop\n      jump\t// out\n        /* \"#utility.yul\":1176:1266   */\n    tag_75:\n        /* \"#utility.yul\":1210:1217   */\n      0x00\n        /* \"#utility.yul\":1253:1258   */\n      dup2\n        /* \"#utility.yul\":1246:1259   */\n      iszero\n        /* \"#utility.yul\":1239:1260   */\n      iszero\n        /* \"#utility.yul\":1228:1260   */\n      swap1\n      pop\n        /* \"#utility.yul\":1176:1266   */\n      swap2\n      swap1\n      pop\n      jump\t// out\n        /* \"#utility.yul\":1272:1381   */\n    tag_76:\n        /* \"#utility.yul\":1353:1374   */\n      tag_99\n        /* \"#utility.yul\":1368:1373   */\n      dup2\n        /* \"#utility.yul\":1353:1374   */\n      tag_75\n      jump\t// in\n    tag_99:\n        /* \"#utility.yul\":1348:1351   */\n      dup3\n        /* \"#utility.yul\":1341:1375   */\n      mstore\n        /* \"#utility.yul\":1272:1381   */\n      pop\n      pop\n      jump\t// out\n        /* \"#utility.yul\":1387:1597   */\n    tag_18:\n        /* \"#utility.yul\":1474:1478   */\n      0x00\n        /* \"#utility.yul\":1512:1514   */\n      0x20\n        /* \"#utility.yul\":1501:1510   */\n      dup3\n        /* \"#utility.yul\":1497:1515   */\n      add\n        /* \"#utility.yul\":1489:1515   */\n      swap1\n      pop\n        /* \"#utility.yul\":1525:1590   */\n      tag_101\n        /* \"#utility.yul\":1587:1588   */\n      0x00\n        /* \"#utility.yul\":1576:1585   */\n      dup4\n        /* \"#utility.yul\":1572:1589   */\n      add\n        /* \"#utility.yul\":1563:1569   */\n      dup5\n        /* \"#utility.yul\":1525:1590   */\n      tag_76\n      jump\t// in\n    tag_101:\n        /* \"#utility.yul\":1387:1597   */\n      swap3\n      swap2\n      pop\n      pop\n      jump\t// out\n        /* \"#utility.yul\":1603:1772   */\n    tag_77:\n        /* \"#utility.yul\":1687:1698   */\n      0x00\n        /* \"#utility.yul\":1721:1727   */\n      dup3\n        /* \"#utility.yul\":1716:1719   */\n      dup3\n        /* \"#utility.yul\":1709:1728   */\n      mstore\n        /* \"#utility.yul\":1761:1765   */\n      0x20\n        /* \"#utility.yul\":1756:1759   */\n      dup3\n        /* \"#utility.yul\":1752:1766   */\n      add\n        /* \"#utility.yul\":1737:1766   */\n      swap1\n      pop\n        /* \"#utility.yul\":1603:1772   */\n      swap3\n      swap2\n      pop\n      pop\n      jump\t// out\n        /* \"#utility.yul\":1778:1948   */\n    tag_78:\n        /* \"#utility.yul\":1918:1940   */\n      0x4164647265737320616c72656164792075736564000000000000000000000000\n        /* \"#utility.yul\":1914:1915   */\n      0x00\n        /* \"#utility.yul\":1906:1912   */\n      dup3\n        /* \"#utility.yul\":1902:1916   */\n      add\n        /* \"#utility.yul\":1895:1941   */\n      mstore\n        /* \"#utility.yul\":1778:1948   */\n      pop\n      jump\t// out\n        /* \"#utility.yul\":1954:2320   */\n    tag_79:\n        /* \"#utility.yul\":2096:2099   */\n      0x00\n        /* \"#utility.yul\":2117:2184   */\n      tag_105\n        /* \"#utility.yul\":2181:2183   */\n      0x14\n        /* \"#utility.yul\":2176:2179   */\n      dup4\n        /* \"#utility.yul\":2117:2184   */\n      tag_77\n      jump\t// in\n    tag_105:\n        /* \"#utility.yul\":2110:2184   */\n      swap2\n      pop\n        /* \"#utility.yul\":2193:2286   */\n      tag_106\n        /* \"#utility.yul\":2282:2285   */\n      dup3\n        /* \"#utility.yul\":2193:2286   */\n      tag_78\n      jump\t// in\n    tag_106:\n        /* \"#utility.yul\":2311:2313   */\n      0x20\n        /* \"#utility.yul\":2306:2309   */\n      dup3\n        /* \"#utility.yul\":2302:2314   */\n      add\n        /* \"#utility.yul\":2295:2314   */\n      swap1\n      pop\n        /* \"#utility.yul\":1954:2320   */\n      swap2\n      swap1\n      pop\n      jump\t// out\n        /* \"#utility.yul\":2326:2745   */\n    tag_51:\n        /* \"#utility.yul\":2492:2496   */\n      0x00\n        /* \"#utility.yul\":2530:2532   */\n      0x20\n        /* \"#utility.yul\":2519:2528   */\n      dup3\n        /* \"#utility.yul\":2515:2533   */\n      add\n        /* \"#utility.yul\":2507:2533   */\n      swap1\n      pop\n        /* \"#utility.yul\":2579:2588   */\n      dup2\n        /* \"#utility.yul\":2573:2577   */\n      dup2\n        /* \"#utility.yul\":2569:2589   */\n      sub\n        /* \"#utility.yul\":2565:2566   */\n      0x00\n        /* \"#utility.yul\":2554:2563   */\n      dup4\n        /* \"#utility.yul\":2550:2567   */\n      add\n        /* \"#utility.yul\":2543:2590   */\n      mstore\n        /* \"#utility.yul\":2607:2738   */\n      tag_108\n        /* \"#utility.yul\":2733:2737   */\n      dup2\n        /* \"#utility.yul\":2607:2738   */\n      tag_79\n      jump\t// in\n    tag_108:\n        /* \"#utility.yul\":2599:2738   */\n      swap1\n      pop\n        /* \"#utility.yul\":2326:2745   */\n      swap2\n      swap1\n      pop\n      jump\t// out\n        /* \"#utility.yul\":2751:2869   */\n    tag_80:\n        /* \"#utility.yul\":2838:2862   */\n      tag_110\n        /* \"#utility.yul\":2856:2861   */\n      dup2\n        /* \"#utility.yul\":2838:2862   */\n      tag_72\n      jump\t// in\n    tag_110:\n        /* \"#utility.yul\":2833:2836   */\n      dup3\n        /* \"#utility.yul\":2826:2863   */\n      mstore\n        /* \"#utility.yul\":2751:2869   */\n      pop\n      pop\n      jump\t// out\n        /* \"#utility.yul\":2875:3097   */\n    tag_53:\n        /* \"#utility.yul\":2968:2972   */\n      0x00\n        /* \"#utility.yul\":3006:3008   */\n      0x20\n        /* \"#utility.yul\":2995:3004   */\n      dup3\n        /* \"#utility.yul\":2991:3009   */\n      add\n        /* \"#utility.yul\":2983:3009   */\n      swap1\n      pop\n        /* \"#utility.yul\":3019:3090   */\n      tag_112\n        /* \"#utility.yul\":3087:3088   */\n      0x00\n        /* \"#utility.yul\":3076:3085   */\n      dup4\n        /* \"#utility.yul\":3072:3089   */\n      add\n        /* \"#utility.yul\":3063:3069   */\n      dup5\n        /* \"#utility.yul\":3019:3090   */\n      tag_80\n      jump\t// in\n    tag_112:\n        /* \"#utility.yul\":2875:3097   */\n      swap3\n      swap2\n      pop\n      pop\n      jump\t// out\n\n    auxdata: 0xa2646970667358221220a5bbf434a1274ab010f210318e76ecffc4cf882f5d021491f43945ef9c28116e64736f6c634300081d0033\n}\n",
				"bytecode": {
					"linkReferences": {},
					"object": "6080604052348015600e575f5ffd5b50335f5f6101000a81548173ffffffffffffffffffffffffffffffffffffffff021916908373ffffffffffffffffffffffffffffffffffffffff1602179055506109eb8061005b5f395ff3fe608060405234801561000f575f5ffd5b5060043610610091575f3560e01c80637e0b782d116100645780637e0b782d1461012f578063adc4e8391461015f578063b00cc9e41461018f578063d68ef2e214610199578063e354fed0146101a357610091565b8063048287a51461009557806325026f44146100c55780633d2121f8146100f55780636f70904a146100ff575b5f5ffd5b6100af60048036038101906100aa91906108b7565b6101d3565b6040516100bc91906108fc565b60405180910390f35b6100df60048036038101906100da91906108b7565b610225565b6040516100ec91906108fc565b60405180910390f35b6100fd610242565b005b610119600480360381019061011491906108b7565b610400565b60405161012691906108fc565b60405180910390f35b610149600480360381019061014491906108b7565b61041d565b60405161015691906108fc565b60405180910390f35b610179600480360381019061017491906108b7565b61046f565b60405161018691906108fc565b60405180910390f35b61019761048c565b005b6101a1610649565b005b6101bd60048036038101906101b891906108b7565b610807565b6040516101ca91906108fc565b60405180910390f35b5f60035f8373ffffffffffffffffffffffffffffffffffffffff1673ffffffffffffffffffffffffffffffffffffffff1681526020019081526020015f205f9054906101000a900460ff169050919050565b6002602052805f5260405f205f915054906101000a900460ff1681565b60015f3373ffffffffffffffffffffffffffffffffffffffff1673ffffffffffffffffffffffffffffffffffffffff1681526020019081526020015f205f9054906101000a900460ff161580156102e0575060025f3373ffffffffffffffffffffffffffffffffffffffff1673ffffffffffffffffffffffffffffffffffffffff1681526020019081526020015f205f9054906101000a900460ff16155b8015610333575060035f3373ffffffffffffffffffffffffffffffffffffffff1673ffffffffffffffffffffffffffffffffffffffff1681526020019081526020015f205f9054906101000a900460ff16155b610372576040517f08c379a00000000000000000000000000000000000000000000000000000000081526004016103699061096f565b60405180910390fd5b600160025f3373ffffffffffffffffffffffffffffffffffffffff1673ffffffffffffffffffffffffffffffffffffffff1681526020019081526020015f205f6101000a81548160ff0219169083151502179055507f0bf4b695b151c6219a3bf1f8406346eca84d73ab372d5c44963a76209d4b5547336040516103f6919061099c565b60405180910390a1565b6003602052805f5260405f205f915054906101000a900460ff1681565b5f60015f8373ffffffffffffffffffffffffffffffffffffffff1673ffffffffffffffffffffffffffffffffffffffff1681526020019081526020015f205f9054906101000a900460ff169050919050565b6001602052805f5260405f205f915054906101000a900460ff1681565b60015f3373ffffffffffffffffffffffffffffffffffffffff1673ffffffffffffffffffffffffffffffffffffffff1681526020019081526020015f205f9054906101000a900460ff1615801561052a575060025f3373ffffffffffffffffffffffffffffffffffffffff1673ffffffffffffffffffffffffffffffffffffffff1681526020019081526020015f205f9054906101000a900460ff16155b801561057d575060035f3373ffffffffffffffffffffffffffffffffffffffff1673ffffffffffffffffffffffffffffffffffffffff1681526020019081526020015f205f9054906101000a900460ff16155b6105bc576040517f08c379a00000000000000000000000000000000000000000000000000000000081526004016105b39061096f565b60405180910390fd5b6001805f3373ffffffffffffffffffffffffffffffffffffffff1673ffffffffffffffffffffffffffffffffffffffff1681526020019081526020015f205f6101000a81548160ff0219169083151502179055507fb823648a4f966454b9528e4cff62de3873b6d49fb7f49062b9a1840d252c23933360405161063f919061099c565b60405180910390a1565b60015f3373ffffffffffffffffffffffffffffffffffffffff1673ffffffffffffffffffffffffffffffffffffffff1681526020019081526020015f205f9054906101000a900460ff161580156106e7575060025f3373ffffffffffffffffffffffffffffffffffffffff1673ffffffffffffffffffffffffffffffffffffffff1681526020019081526020015f205f9054906101000a900460ff16155b801561073a575060035f3373ffffffffffffffffffffffffffffffffffffffff1673ffffffffffffffffffffffffffffffffffffffff1681526020019081526020015f205f9054906101000a900460ff16155b610779576040517f08c379a00000000000000000000000000000000000000000000000000000000081526004016107709061096f565b60405180910390fd5b600160035f3373ffffffffffffffffffffffffffffffffffffffff1673ffffffffffffffffffffffffffffffffffffffff1681526020019081526020015f205f6101000a81548160ff0219169083151502179055507f05011a6e99a3a04889cc02d1db3f1c39cc5f6d4f15ae8ab92b2f712d4c5f3b98336040516107fd919061099c565b60405180910390a1565b5f60025f8373ffffffffffffffffffffffffffffffffffffffff1673ffffffffffffffffffffffffffffffffffffffff1681526020019081526020015f205f9054906101000a900460ff169050919050565b5f5ffd5b5f73ffffffffffffffffffffffffffffffffffffffff82169050919050565b5f6108868261085d565b9050919050565b6108968161087c565b81146108a0575f5ffd5b50565b5f813590506108b18161088d565b92915050565b5f602082840312156108cc576108cb610859565b5b5f6108d9848285016108a3565b91505092915050565b5f8115159050919050565b6108f6816108e2565b82525050565b5f60208201905061090f5f8301846108ed565b92915050565b5f82825260208201905092915050565b7f4164647265737320616c726561647920757365640000000000000000000000005f82015250565b5f610959601483610915565b915061096482610925565b602082019050919050565b5f6020820190508181035f8301526109868161094d565b9050919050565b6109968161087c565b82525050565b5f6020820190506109af5f83018461098d565b9291505056fea2646970667358221220a5bbf434a1274ab010f210318e76ecffc4cf882f5d021491f43945ef9c28116e64736f6c634300081d0033",
					"opcodes": "PUSH1 0x80 PUSH1 0x40 MSTORE CALLVALUE DUP1 ISZERO PUSH1 0xE JUMPI PUSH0 PUSH0 REVERT JUMPDEST POP CALLER PUSH0 PUSH0 PUSH2 0x100 EXP DUP2 SLOAD DUP2 PUSH20 0xFFFFFFFFFFFFFFFFFFFFFFFFFFFFFFFFFFFFFFFF MUL NOT AND SWAP1 DUP4 PUSH20 0xFFFFFFFFFFFFFFFFFFFFFFFFFFFFFFFFFFFFFFFF AND MUL OR SWAP1 SSTORE POP PUSH2 0x9EB DUP1 PUSH2 0x5B PUSH0 CODECOPY PUSH0 RETURN INVALID PUSH1 0x80 PUSH1 0x40 MSTORE CALLVALUE DUP1 ISZERO PUSH2 0xF JUMPI PUSH0 PUSH0 REVERT JUMPDEST POP PUSH1 0x4 CALLDATASIZE LT PUSH2 0x91 JUMPI PUSH0 CALLDATALOAD PUSH1 0xE0 SHR DUP1 PUSH4 0x7E0B782D GT PUSH2 0x64 JUMPI DUP1 PUSH4 0x7E0B782D EQ PUSH2 0x12F JUMPI DUP1 PUSH4 0xADC4E839 EQ PUSH2 0x15F JUMPI DUP1 PUSH4 0xB00CC9E4 EQ PUSH2 0x18F JUMPI DUP1 PUSH4 0xD68EF2E2 EQ PUSH2 0x199 JUMPI DUP1 PUSH4 0xE354FED0 EQ PUSH2 0x1A3 JUMPI PUSH2 0x91 JUMP JUMPDEST DUP1 PUSH4 0x48287A5 EQ PUSH2 0x95 JUMPI DUP1 PUSH4 0x25026F44 EQ PUSH2 0xC5 JUMPI DUP1 PUSH4 0x3D2121F8 EQ PUSH2 0xF5 JUMPI DUP1 PUSH4 0x6F70904A EQ PUSH2 0xFF JUMPI JUMPDEST PUSH0 PUSH0 REVERT JUMPDEST PUSH2 0xAF PUSH1 0x4 DUP1 CALLDATASIZE SUB DUP2 ADD SWAP1 PUSH2 0xAA SWAP2 SWAP1 PUSH2 0x8B7 JUMP JUMPDEST PUSH2 0x1D3 JUMP JUMPDEST PUSH1 0x40 MLOAD PUSH2 0xBC SWAP2 SWAP1 PUSH2 0x8FC JUMP JUMPDEST PUSH1 0x40 MLOAD DUP1 SWAP2 SUB SWAP1 RETURN JUMPDEST PUSH2 0xDF PUSH1 0x4 DUP1 CALLDATASIZE SUB DUP2 ADD SWAP1 PUSH2 0xDA SWAP2 SWAP1 PUSH2 0x8B7 JUMP JUMPDEST PUSH2 0x225 JUMP JUMPDEST PUSH1 0x40 MLOAD PUSH2 0xEC SWAP2 SWAP1 PUSH2 0x8FC JUMP JUMPDEST PUSH1 0x40 MLOAD DUP1 SWAP2 SUB SWAP1 RETURN JUMPDEST PUSH2 0xFD PUSH2 0x242 JUMP JUMPDEST STOP JUMPDEST PUSH2 0x119 PUSH1 0x4 DUP1 CALLDATASIZE SUB DUP2 ADD SWAP1 PUSH2 0x114 SWAP2 SWAP1 PUSH2 0x8B7 JUMP JUMPDEST PUSH2 0x400 JUMP JUMPDEST PUSH1 0x40 MLOAD PUSH2 0x126 SWAP2 SWAP1 PUSH2 0x8FC JUMP JUMPDEST PUSH1 0x40 MLOAD DUP1 SWAP2 SUB SWAP1 RETURN JUMPDEST PUSH2 0x149 PUSH1 0x4 DUP1 CALLDATASIZE SUB DUP2 ADD SWAP1 PUSH2 0x144 SWAP2 SWAP1 PUSH2 0x8B7 JUMP JUMPDEST PUSH2 0x41D JUMP JUMPDEST PUSH1 0x40 MLOAD PUSH2 0x156 SWAP2 SWAP1 PUSH2 0x8FC JUMP JUMPDEST PUSH1 0x40 MLOAD DUP1 SWAP2 SUB SWAP1 RETURN JUMPDEST PUSH2 0x179 PUSH1 0x4 DUP1 CALLDATASIZE SUB DUP2 ADD SWAP1 PUSH2 0x174 SWAP2 SWAP1 PUSH2 0x8B7 JUMP JUMPDEST PUSH2 0x46F JUMP JUMPDEST PUSH1 0x40 MLOAD PUSH2 0x186 SWAP2 SWAP1 PUSH2 0x8FC JUMP JUMPDEST PUSH1 0x40 MLOAD DUP1 SWAP2 SUB SWAP1 RETURN JUMPDEST PUSH2 0x197 PUSH2 0x48C JUMP JUMPDEST STOP JUMPDEST PUSH2 0x1A1 PUSH2 0x649 JUMP JUMPDEST STOP JUMPDEST PUSH2 0x1BD PUSH1 0x4 DUP1 CALLDATASIZE SUB DUP2 ADD SWAP1 PUSH2 0x1B8 SWAP2 SWAP1 PUSH2 0x8B7 JUMP JUMPDEST PUSH2 0x807 JUMP JUMPDEST PUSH1 0x40 MLOAD PUSH2 0x1CA SWAP2 SWAP1 PUSH2 0x8FC JUMP JUMPDEST PUSH1 0x40 MLOAD DUP1 SWAP2 SUB SWAP1 RETURN JUMPDEST PUSH0 PUSH1 0x3 PUSH0 DUP4 PUSH20 0xFFFFFFFFFFFFFFFFFFFFFFFFFFFFFFFFFFFFFFFF AND PUSH20 0xFFFFFFFFFFFFFFFFFFFFFFFFFFFFFFFFFFFFFFFF AND DUP2 MSTORE PUSH1 0x20 ADD SWAP1 DUP2 MSTORE PUSH1 0x20 ADD PUSH0 KECCAK256 PUSH0 SWAP1 SLOAD SWAP1 PUSH2 0x100 EXP SWAP1 DIV PUSH1 0xFF AND SWAP1 POP SWAP2 SWAP1 POP JUMP JUMPDEST PUSH1 0x2 PUSH1 0x20 MSTORE DUP1 PUSH0 MSTORE PUSH1 0x40 PUSH0 KECCAK256 PUSH0 SWAP2 POP SLOAD SWAP1 PUSH2 0x100 EXP SWAP1 DIV PUSH1 0xFF AND DUP2 JUMP JUMPDEST PUSH1 0x1 PUSH0 CALLER PUSH20 0xFFFFFFFFFFFFFFFFFFFFFFFFFFFFFFFFFFFFFFFF AND PUSH20 0xFFFFFFFFFFFFFFFFFFFFFFFFFFFFFFFFFFFFFFFF AND DUP2 MSTORE PUSH1 0x20 ADD SWAP1 DUP2 MSTORE PUSH1 0x20 ADD PUSH0 KECCAK256 PUSH0 SWAP1 SLOAD SWAP1 PUSH2 0x100 EXP SWAP1 DIV PUSH1 0xFF AND ISZERO DUP1 ISZERO PUSH2 0x2E0 JUMPI POP PUSH1 0x2 PUSH0 CALLER PUSH20 0xFFFFFFFFFFFFFFFFFFFFFFFFFFFFFFFFFFFFFFFF AND PUSH20 0xFFFFFFFFFFFFFFFFFFFFFFFFFFFFFFFFFFFFFFFF AND DUP2 MSTORE PUSH1 0x20 ADD SWAP1 DUP2 MSTORE PUSH1 0x20 ADD PUSH0 KECCAK256 PUSH0 SWAP1 SLOAD SWAP1 PUSH2 0x100 EXP SWAP1 DIV PUSH1 0xFF AND ISZERO JUMPDEST DUP1 ISZERO PUSH2 0x333 JUMPI POP PUSH1 0x3 PUSH0 CALLER PUSH20 0xFFFFFFFFFFFFFFFFFFFFFFFFFFFFFFFFFFFFFFFF AND PUSH20 0xFFFFFFFFFFFFFFFFFFFFFFFFFFFFFFFFFFFFFFFF AND DUP2 MSTORE PUSH1 0x20 ADD SWAP1 DUP2 MSTORE PUSH1 0x20 ADD PUSH0 KECCAK256 PUSH0 SWAP1 SLOAD SWAP1 PUSH2 0x100 EXP SWAP1 DIV PUSH1 0xFF AND ISZERO JUMPDEST PUSH2 0x372 JUMPI PUSH1 0x40 MLOAD PUSH32 0x8C379A000000000000000000000000000000000000000000000000000000000 DUP2 MSTORE PUSH1 0x4 ADD PUSH2 0x369 SWAP1 PUSH2 0x96F JUMP JUMPDEST PUSH1 0x40 MLOAD DUP1 SWAP2 SUB SWAP1 REVERT JUMPDEST PUSH1 0x1 PUSH1 0x2 PUSH0 CALLER PUSH20 0xFFFFFFFFFFFFFFFFFFFFFFFFFFFFFFFFFFFFFFFF AND PUSH20 0xFFFFFFFFFFFFFFFFFFFFFFFFFFFFFFFFFFFFFFFF AND DUP2 MSTORE PUSH1 0x20 ADD SWAP1 DUP2 MSTORE PUSH1 0x20 ADD PUSH0 KECCAK256 PUSH0 PUSH2 0x100 EXP DUP2 SLOAD DUP2 PUSH1 0xFF MUL NOT AND SWAP1 DUP4 ISZERO ISZERO MUL OR SWAP1 SSTORE POP PUSH32 0xBF4B695B151C6219A3BF1F8406346ECA84D73AB372D5C44963A76209D4B5547 CALLER PUSH1 0x40 MLOAD PUSH2 0x3F6 SWAP2 SWAP1 PUSH2 0x99C JUMP JUMPDEST PUSH1 0x40 MLOAD DUP1 SWAP2 SUB SWAP1 LOG1 JUMP JUMPDEST PUSH1 0x3 PUSH1 0x20 MSTORE DUP1 PUSH0 MSTORE PUSH1 0x40 PUSH0 KECCAK256 PUSH0 SWAP2 POP SLOAD SWAP1 PUSH2 0x100 EXP SWAP1 DIV PUSH1 0xFF AND DUP2 JUMP JUMPDEST PUSH0 PUSH1 0x1 PUSH0 DUP4 PUSH20 0xFFFFFFFFFFFFFFFFFFFFFFFFFFFFFFFFFFFFFFFF AND PUSH20 0xFFFFFFFFFFFFFFFFFFFFFFFFFFFFFFFFFFFFFFFF AND DUP2 MSTORE PUSH1 0x20 ADD SWAP1 DUP2 MSTORE PUSH1 0x20 ADD PUSH0 KECCAK256 PUSH0 SWAP1 SLOAD SWAP1 PUSH2 0x100 EXP SWAP1 DIV PUSH1 0xFF AND SWAP1 POP SWAP2 SWAP1 POP JUMP JUMPDEST PUSH1 0x1 PUSH1 0x20 MSTORE DUP1 PUSH0 MSTORE PUSH1 0x40 PUSH0 KECCAK256 PUSH0 SWAP2 POP SLOAD SWAP1 PUSH2 0x100 EXP SWAP1 DIV PUSH1 0xFF AND DUP2 JUMP JUMPDEST PUSH1 0x1 PUSH0 CALLER PUSH20 0xFFFFFFFFFFFFFFFFFFFFFFFFFFFFFFFFFFFFFFFF AND PUSH20 0xFFFFFFFFFFFFFFFFFFFFFFFFFFFFFFFFFFFFFFFF AND DUP2 MSTORE PUSH1 0x20 ADD SWAP1 DUP2 MSTORE PUSH1 0x20 ADD PUSH0 KECCAK256 PUSH0 SWAP1 SLOAD SWAP1 PUSH2 0x100 EXP SWAP1 DIV PUSH1 0xFF AND ISZERO DUP1 ISZERO PUSH2 0x52A JUMPI POP PUSH1 0x2 PUSH0 CALLER PUSH20 0xFFFFFFFFFFFFFFFFFFFFFFFFFFFFFFFFFFFFFFFF AND PUSH20 0xFFFFFFFFFFFFFFFFFFFFFFFFFFFFFFFFFFFFFFFF AND DUP2 MSTORE PUSH1 0x20 ADD SWAP1 DUP2 MSTORE PUSH1 0x20 ADD PUSH0 KECCAK256 PUSH0 SWAP1 SLOAD SWAP1 PUSH2 0x100 EXP SWAP1 DIV PUSH1 0xFF AND ISZERO JUMPDEST DUP1 ISZERO PUSH2 0x57D JUMPI POP PUSH1 0x3 PUSH0 CALLER PUSH20 0xFFFFFFFFFFFFFFFFFFFFFFFFFFFFFFFFFFFFFFFF AND PUSH20 0xFFFFFFFFFFFFFFFFFFFFFFFFFFFFFFFFFFFFFFFF AND DUP2 MSTORE PUSH1 0x20 ADD SWAP1 DUP2 MSTORE PUSH1 0x20 ADD PUSH0 KECCAK256 PUSH0 SWAP1 SLOAD SWAP1 PUSH2 0x100 EXP SWAP1 DIV PUSH1 0xFF AND ISZERO JUMPDEST PUSH2 0x5BC JUMPI PUSH1 0x40 MLOAD PUSH32 0x8C379A000000000000000000000000000000000000000000000000000000000 DUP2 MSTORE PUSH1 0x4 ADD PUSH2 0x5B3 SWAP1 PUSH2 0x96F JUMP JUMPDEST PUSH1 0x40 MLOAD DUP1 SWAP2 SUB SWAP1 REVERT JUMPDEST PUSH1 0x1 DUP1 PUSH0 CALLER PUSH20 0xFFFFFFFFFFFFFFFFFFFFFFFFFFFFFFFFFFFFFFFF AND PUSH20 0xFFFFFFFFFFFFFFFFFFFFFFFFFFFFFFFFFFFFFFFF AND DUP2 MSTORE PUSH1 0x20 ADD SWAP1 DUP2 MSTORE PUSH1 0x20 ADD PUSH0 KECCAK256 PUSH0 PUSH2 0x100 EXP DUP2 SLOAD DUP2 PUSH1 0xFF MUL NOT AND SWAP1 DUP4 ISZERO ISZERO MUL OR SWAP1 SSTORE POP PUSH32 0xB823648A4F966454B9528E4CFF62DE3873B6D49FB7F49062B9A1840D252C2393 CALLER PUSH1 0x40 MLOAD PUSH2 0x63F SWAP2 SWAP1 PUSH2 0x99C JUMP JUMPDEST PUSH1 0x40 MLOAD DUP1 SWAP2 SUB SWAP1 LOG1 JUMP JUMPDEST PUSH1 0x1 PUSH0 CALLER PUSH20 0xFFFFFFFFFFFFFFFFFFFFFFFFFFFFFFFFFFFFFFFF AND PUSH20 0xFFFFFFFFFFFFFFFFFFFFFFFFFFFFFFFFFFFFFFFF AND DUP2 MSTORE PUSH1 0x20 ADD SWAP1 DUP2 MSTORE PUSH1 0x20 ADD PUSH0 KECCAK256 PUSH0 SWAP1 SLOAD SWAP1 PUSH2 0x100 EXP SWAP1 DIV PUSH1 0xFF AND ISZERO DUP1 ISZERO PUSH2 0x6E7 JUMPI POP PUSH1 0x2 PUSH0 CALLER PUSH20 0xFFFFFFFFFFFFFFFFFFFFFFFFFFFFFFFFFFFFFFFF AND PUSH20 0xFFFFFFFFFFFFFFFFFFFFFFFFFFFFFFFFFFFFFFFF AND DUP2 MSTORE PUSH1 0x20 ADD SWAP1 DUP2 MSTORE PUSH1 0x20 ADD PUSH0 KECCAK256 PUSH0 SWAP1 SLOAD SWAP1 PUSH2 0x100 EXP SWAP1 DIV PUSH1 0xFF AND ISZERO JUMPDEST DUP1 ISZERO PUSH2 0x73A JUMPI POP PUSH1 0x3 PUSH0 CALLER PUSH20 0xFFFFFFFFFFFFFFFFFFFFFFFFFFFFFFFFFFFFFFFF AND PUSH20 0xFFFFFFFFFFFFFFFFFFFFFFFFFFFFFFFFFFFFFFFF AND DUP2 MSTORE PUSH1 0x20 ADD SWAP1 DUP2 MSTORE PUSH1 0x20 ADD PUSH0 KECCAK256 PUSH0 SWAP1 SLOAD SWAP1 PUSH2 0x100 EXP SWAP1 DIV PUSH1 0xFF AND ISZERO JUMPDEST PUSH2 0x779 JUMPI PUSH1 0x40 MLOAD PUSH32 0x8C379A000000000000000000000000000000000000000000000000000000000 DUP2 MSTORE PUSH1 0x4 ADD PUSH2 0x770 SWAP1 PUSH2 0x96F JUMP JUMPDEST PUSH1 0x40 MLOAD DUP1 SWAP2 SUB SWAP1 REVERT JUMPDEST PUSH1 0x1 PUSH1 0x3 PUSH0 CALLER PUSH20 0xFFFFFFFFFFFFFFFFFFFFFFFFFFFFFFFFFFFFFFFF AND PUSH20 0xFFFFFFFFFFFFFFFFFFFFFFFFFFFFFFFFFFFFFFFF AND DUP2 MSTORE PUSH1 0x20 ADD SWAP1 DUP2 MSTORE PUSH1 0x20 ADD PUSH0 KECCAK256 PUSH0 PUSH2 0x100 EXP DUP2 SLOAD DUP2 PUSH1 0xFF MUL NOT AND SWAP1 DUP4 ISZERO ISZERO MUL OR SWAP1 SSTORE POP PUSH32 0x5011A6E99A3A04889CC02D1DB3F1C39CC5F6D4F15AE8AB92B2F712D4C5F3B98 CALLER PUSH1 0x40 MLOAD PUSH2 0x7FD SWAP2 SWAP1 PUSH2 0x99C JUMP JUMPDEST PUSH1 0x40 MLOAD DUP1 SWAP2 SUB SWAP1 LOG1 JUMP JUMPDEST PUSH0 PUSH1 0x2 PUSH0 DUP4 PUSH20 0xFFFFFFFFFFFFFFFFFFFFFFFFFFFFFFFFFFFFFFFF AND PUSH20 0xFFFFFFFFFFFFFFFFFFFFFFFFFFFFFFFFFFFFFFFF AND DUP2 MSTORE PUSH1 0x20 ADD SWAP1 DUP2 MSTORE PUSH1 0x20 ADD PUSH0 KECCAK256 PUSH0 SWAP1 SLOAD SWAP1 PUSH2 0x100 EXP SWAP1 DIV PUSH1 0xFF AND SWAP1 POP SWAP2 SWAP1 POP JUMP JUMPDEST PUSH0 PUSH0 REVERT JUMPDEST PUSH0 PUSH20 0xFFFFFFFFFFFFFFFFFFFFFFFFFFFFFFFFFFFFFFFF DUP3 AND SWAP1 POP SWAP2 SWAP1 POP JUMP JUMPDEST PUSH0 PUSH2 0x886 DUP3 PUSH2 0x85D JUMP JUMPDEST SWAP1 POP SWAP2 SWAP1 POP JUMP JUMPDEST PUSH2 0x896 DUP2 PUSH2 0x87C JUMP JUMPDEST DUP2 EQ PUSH2 0x8A0 JUMPI PUSH0 PUSH0 REVERT JUMPDEST POP JUMP JUMPDEST PUSH0 DUP2 CALLDATALOAD SWAP1 POP PUSH2 0x8B1 DUP2 PUSH2 0x88D JUMP JUMPDEST SWAP3 SWAP2 POP POP JUMP JUMPDEST PUSH0 PUSH1 0x20 DUP3 DUP5 SUB SLT ISZERO PUSH2 0x8CC JUMPI PUSH2 0x8CB PUSH2 0x859 JUMP JUMPDEST JUMPDEST PUSH0 PUSH2 0x8D9 DUP5 DUP3 DUP6 ADD PUSH2 0x8A3 JUMP JUMPDEST SWAP2 POP POP SWAP3 SWAP2 POP POP JUMP JUMPDEST PUSH0 DUP2 ISZERO ISZERO SWAP1 POP SWAP2 SWAP1 POP JUMP JUMPDEST PUSH2 0x8F6 DUP2 PUSH2 0x8E2 JUMP JUMPDEST DUP3 MSTORE POP POP JUMP JUMPDEST PUSH0 PUSH1 0x20 DUP3 ADD SWAP1 POP PUSH2 0x90F PUSH0 DUP4 ADD DUP5 PUSH2 0x8ED JUMP JUMPDEST SWAP3 SWAP2 POP POP JUMP JUMPDEST PUSH0 DUP3 DUP3 MSTORE PUSH1 0x20 DUP3 ADD SWAP1 POP SWAP3 SWAP2 POP POP JUMP JUMPDEST PUSH32 0x4164647265737320616C72656164792075736564000000000000000000000000 PUSH0 DUP3 ADD MSTORE POP JUMP JUMPDEST PUSH0 PUSH2 0x959 PUSH1 0x14 DUP4 PUSH2 0x915 JUMP JUMPDEST SWAP2 POP PUSH2 0x964 DUP3 PUSH2 0x925 JUMP JUMPDEST PUSH1 0x20 DUP3 ADD SWAP1 POP SWAP2 SWAP1 POP JUMP JUMPDEST PUSH0 PUSH1 0x20 DUP3 ADD SWAP1 POP DUP2 DUP2 SUB PUSH0 DUP4 ADD MSTORE PUSH2 0x986 DUP2 PUSH2 0x94D JUMP JUMPDEST SWAP1 POP SWAP2 SWAP1 POP JUMP JUMPDEST PUSH2 0x996 DUP2 PUSH2 0x87C JUMP JUMPDEST DUP3 MSTORE POP POP JUMP JUMPDEST PUSH0 PUSH1 0x20 DUP3 ADD SWAP1 POP PUSH2 0x9AF PUSH0 DUP4 ADD DUP5 PUSH2 0x98D JUMP JUMPDEST SWAP3 SWAP2 POP POP JUMP INVALID LOG2 PUSH5 0x6970667358 0x22 SLT KECCAK256 0xA5 0xBB DELEGATECALL CALLVALUE LOG1 0x27 BLOBBASEFEE 0xB0 LT CALLCODE LT BALANCE DUP15 PUSH23 0xECFFC4CF882F5D021491F43945EF9C28116E64736F6C63 NUMBER STOP ADDMOD SAR STOP CALLER "
				},
				"gasEstimates": {
					"creation": {
						"codeDepositCost": "507800",
						"executionCost": "24805",
						"totalCost": "532605"
					},
					"external": {
						"FarmerExists(address)": "2870",
						"InsuranceProviderExists(address)": "2958",
						"WeatherProviderExists(address)": "2871",
						"farmer(address)": "2855",
						"insurance_provider(address)": "2856",
						"registerFarmer()": "32517",
						"registerInsurance_provider()": "32518",
						"registerWeather_provider()": "32539",
						"weather_provider(address)": "2900"
					}
				},
				"methodIdentifiers": {
					"FarmerExists(address)": "7e0b782d",
					"InsuranceProviderExists(address)": "e354fed0",
					"WeatherProviderExists(address)": "048287a5",
					"farmer(address)": "adc4e839",
					"insurance_provider(address)": "25026f44",
					"registerFarmer()": "b00cc9e4",
					"registerInsurance_provider()": "3d2121f8",
					"registerWeather_provider()": "d68ef2e2",
					"weather_provider(address)": "6f70904a"
				}
			},
			"storageLayout": {
				"storage": [
					{
						"astId": 3,
						"contract": "contracts/registration.sol:Registration",
						"label": "owner",
						"offset": 0,
						"slot": "0",
						"type": "t_address"
					},
					{
						"astId": 7,
						"contract": "contracts/registration.sol:Registration",
						"label": "farmer",
						"offset": 0,
						"slot": "1",
						"type": "t_mapping(t_address,t_bool)"
					},
					{
						"astId": 11,
						"contract": "contracts/registration.sol:Registration",
						"label": "insurance_provider",
						"offset": 0,
						"slot": "2",
						"type": "t_mapping(t_address,t_bool)"
					},
					{
						"astId": 15,
						"contract": "contracts/registration.sol:Registration",
						"label": "weather_provider",
						"offset": 0,
						"slot": "3",
						"type": "t_mapping(t_address,t_bool)"
					}
				],
				"types": {
					"t_address": {
						"encoding": "inplace",
						"label": "address",
						"numberOfBytes": "20"
					},
					"t_bool": {
						"encoding": "inplace",
						"label": "bool",
						"numberOfBytes": "1"
					},
					"t_mapping(t_address,t_bool)": {
						"encoding": "mapping",
						"key": "t_address",
						"label": "mapping(address => bool)",
						"numberOfBytes": "32",
						"value": "t_bool"
					}
				}
			},
			"userdoc": {
				"kind": "user",
				"methods": {},
				"version": 1
			}
		}
	}
}