{
	"data": {
		"bytecode": {
			"linkReferences": {},
			"object": "608060405234801561000f575f5ffd5b50604051611168380380611168833981810160405281019061003191906101eb565b805f5f6101000a81548173ffffffffffffffffffffffffffffffffffffffff021916908373ffffffffffffffffffffffffffffffffffffffff1602179055505f5f9054906101000a900473ffffffffffffffffffffffffffffffffffffffff1673ffffffffffffffffffffffffffffffffffffffff1663e354fed0336040518263ffffffff1660e01b81526004016100c99190610225565b602060405180830381865afa1580156100e4573d5f5f3e3d5ffd5b505050506040513d601f19601f820116820180604052508101906101089190610273565b610147576040517f08c379a000000000000000000000000000000000000000000000000000000000815260040161013e9061031e565b60405180910390fd5b3360025f6101000a81548173ffffffffffffffffffffffffffffffffffffffff021916908373ffffffffffffffffffffffffffffffffffffffff1602179055505061033c565b5f5ffd5b5f73ffffffffffffffffffffffffffffffffffffffff82169050919050565b5f6101ba82610191565b9050919050565b6101ca816101b0565b81146101d4575f5ffd5b50565b5f815190506101e5816101c1565b92915050565b5f60208284031215610200576101ff61018d565b5b5f61020d848285016101d7565b91505092915050565b61021f816101b0565b82525050565b5f6020820190506102385f830184610216565b92915050565b5f8115159050919050565b6102528161023e565b811461025c575f5ffd5b50565b5f8151905061026d81610249565b92915050565b5f602082840312156102885761028761018d565b5b5f6102958482850161025f565b91505092915050565b5f82825260208201905092915050565b7f5468652073656e646572206973206e6f7420616e20617070726f76656420696e5f8201527f737572616e63652070726f766964657200000000000000000000000000000000602082015250565b5f61030860308361029e565b9150610313826102ae565b604082019050919050565b5f6020820190508181035f830152610335816102fc565b9050919050565b610e1f806103495f395ff3fe608060405260043610610054575f3560e01c80631c0c370a1461005857806324df1274146100745780632cec481c1461009c57806341774c25146100d8578063ce4c3e1414610114578063f8b2cb4f14610150575b5f5ffd5b610072600480360381019061006d9190610773565b61018c565b005b34801561007f575f5ffd5b5061009a600480360381019061009591906107c3565b6104c9565b005b3480156100a7575f5ffd5b506100c260048036038101906100bd919061083a565b610636565b6040516100cf9190610874565b60405180910390f35b3480156100e3575f5ffd5b506100fe60048036038101906100f9919061083a565b610653565b60405161010b9190610874565b60405180910390f35b34801561011f575f5ffd5b5061013a6004803603810190610135919061083a565b610670565b6040516101479190610874565b60405180910390f35b34801561015b575f5ffd5b50610176600480360381019061017191906108c8565b61068d565b6040516101839190610874565b60405180910390f35b5f5f9054906101000a900473ffffffffffffffffffffffffffffffffffffffff1673ffffffffffffffffffffffffffffffffffffffff16637e0b782d336040518263ffffffff1660e01b81526004016101e59190610902565b602060405180830381865afa158015610200573d5f5f3e3d5ffd5b505050506040513d601f19601f82011682018060405250810190610224919061092f565b610263576040517f08c379a000000000000000000000000000000000000000000000000000000000815260040161025a906109b4565b60405180910390fd5b826102a3576040517f08c379a000000000000000000000000000000000000000000000000000000000815260040161029a90610a42565b60405180910390fd5b60015f8381526020019081526020015f205f015434146102f8576040517f08c379a00000000000000000000000000000000000000000000000000000000081526004016102ef90610aaa565b60405180910390fd5b7f763833aa2090bd00557296cf0f5655e1bbb4ced7d7078aedcb696a2dc217f2e38260015f8581526020019081526020015f205f015460405161033c929190610b38565b60405180910390a15f5f9054906101000a900473ffffffffffffffffffffffffffffffffffffffff1673ffffffffffffffffffffffffffffffffffffffff1663e354fed0826040518263ffffffff1660e01b815260040161039d9190610bcd565b602060405180830381865afa1580156103b8573d5f5f3e3d5ffd5b505050506040513d601f19601f820116820180604052508101906103dc919061092f565b61041b576040517f08c379a000000000000000000000000000000000000000000000000000000000815260040161041290610c30565b60405180910390fd5b5f8173ffffffffffffffffffffffffffffffffffffffff163460405161044090610c7b565b5f6040518083038185875af1925050503d805f811461047a576040519150601f19603f3d011682016040523d82523d5f602084013e61047f565b606091505b50509050806104c3576040517f08c379a00000000000000000000000000000000000000000000000000000000081526004016104ba90610cd9565b60405180910390fd5b50505050565b60025f9054906101000a900473ffffffffffffffffffffffffffffffffffffffff1673ffffffffffffffffffffffffffffffffffffffff163373ffffffffffffffffffffffffffffffffffffffff1614610558576040517f08c379a000000000000000000000000000000000000000000000000000000000815260040161054f906109b4565b60405180910390fd5b5f8414610578578360015f8781526020019081526020015f205f01819055505b62015180836105879190610d24565b426105929190610d65565b60015f8781526020019081526020015f20600101819055508160015f8781526020019081526020015f20600201819055508060015f8781526020019081526020015f20600301819055507ff34a0dba7bcb34e680a729edbfd3d9374c0dd595e8608d9b81ecf4b32299e3f7858560015f8981526020019081526020015f20600101548585604051610627959493929190610d98565b60405180910390a15050505050565b5f60015f8381526020019081526020015f20600301549050919050565b5f60015f8381526020019081526020015f20600101549050919050565b5f60015f8381526020019081526020015f20600201549050919050565b5f8173ffffffffffffffffffffffffffffffffffffffff16319050919050565b5f5ffd5b5f8115159050919050565b6106c5816106b1565b81146106cf575f5ffd5b50565b5f813590506106e0816106bc565b92915050565b5f819050919050565b6106f8816106e6565b8114610702575f5ffd5b50565b5f81359050610713816106ef565b92915050565b5f73ffffffffffffffffffffffffffffffffffffffff82169050919050565b5f61074282610719565b9050919050565b61075281610738565b811461075c575f5ffd5b50565b5f8135905061076d81610749565b92915050565b5f5f5f6060848603121561078a576107896106ad565b5b5f610797868287016106d2565b93505060206107a886828701610705565b92505060406107b98682870161075f565b9150509250925092565b5f5f5f5f5f60a086880312156107dc576107db6106ad565b5b5f6107e988828901610705565b95505060206107fa88828901610705565b945050604061080b88828901610705565b935050606061081c88828901610705565b925050608061082d88828901610705565b9150509295509295909350565b5f6020828403121561084f5761084e6106ad565b5b5f61085c84828501610705565b91505092915050565b61086e816106e6565b82525050565b5f6020820190506108875f830184610865565b92915050565b5f61089782610719565b9050919050565b6108a78161088d565b81146108b1575f5ffd5b50565b5f813590506108c28161089e565b92915050565b5f602082840312156108dd576108dc6106ad565b5b5f6108ea848285016108b4565b91505092915050565b6108fc8161088d565b82525050565b5f6020820190506109155f8301846108f3565b92915050565b5f81519050610929816106bc565b92915050565b5f60208284031215610944576109436106ad565b5b5f6109518482850161091b565b91505092915050565b5f82825260208201905092915050565b7f53656e646572206e6f7420617574686f72697a65642e000000000000000000005f82015250565b5f61099e60168361095a565b91506109a98261096a565b602082019050919050565b5f6020820190508181035f8301526109cb81610992565b9050919050565b7f4661726d657220646f6573206e6f7420616772656520776974682074686520705f8201527f6f6c696379000000000000000000000000000000000000000000000000000000602082015250565b5f610a2c60258361095a565b9150610a37826109d2565b604082019050919050565b5f6020820190508181035f830152610a5981610a20565b9050919050565b7f496e636f727265637420696e737572616e6365207072656d69756d00000000005f82015250565b5f610a94601b8361095a565b9150610a9f82610a60565b602082019050919050565b5f6020820190508181035f830152610ac181610a88565b9050919050565b7f4661726d65722061677265656420746f2074686520696e737572616e636520705f8201527f6f6c696379000000000000000000000000000000000000000000000000000000602082015250565b5f610b2260258361095a565b9150610b2d82610ac8565b604082019050919050565b5f6060820190508181035f830152610b4f81610b16565b9050610b5e6020830185610865565b610b6b6040830184610865565b9392505050565b5f819050919050565b5f610b95610b90610b8b84610719565b610b72565b610719565b9050919050565b5f610ba682610b7b565b9050919050565b5f610bb782610b9c565b9050919050565b610bc781610bad565b82525050565b5f602082019050610be05f830184610bbe565b92915050565b7f496e76616c696420696e737572616e63652070726f76696465720000000000005f82015250565b5f610c1a601a8361095a565b9150610c2582610be6565b602082019050919050565b5f6020820190508181035f830152610c4781610c0e565b9050919050565b5f81905092915050565b50565b5f610c665f83610c4e565b9150610c7182610c58565b5f82019050919050565b5f610c8582610c5b565b9150819050919050565b7f4661696c656420746f2073656e642045746865720000000000000000000000005f82015250565b5f610cc360148361095a565b9150610cce82610c8f565b602082019050919050565b5f6020820190508181035f830152610cf081610cb7565b9050919050565b7f4e487b71000000000000000000000000000000000000000000000000000000005f52601160045260245ffd5b5f610d2e826106e6565b9150610d39836106e6565b9250828202610d47816106e6565b91508282048414831517610d5e57610d5d610cf7565b5b5092915050565b5f610d6f826106e6565b9150610d7a836106e6565b9250828201905080821115610d9257610d91610cf7565b5b92915050565b5f60a082019050610dab5f830188610865565b610db86020830187610865565b610dc56040830186610865565b610dd26060830185610865565b610ddf6080830184610865565b969550505050505056fea2646970667358221220d6336e4bb5aa41bb34256463a59de2b98671c6d30edcb66cf11a90d7caaebab064736f6c634300081d0033",
			"opcodes": "PUSH1 0x80 PUSH1 0x40 MSTORE CALLVALUE DUP1 ISZERO PUSH2 0xF JUMPI PUSH0 PUSH0 REVERT JUMPDEST POP PUSH1 0x40 MLOAD PUSH2 0x1168 CODESIZE SUB DUP1 PUSH2 0x1168 DUP4 CODECOPY DUP2 DUP2 ADD PUSH1 0x40 MSTORE DUP2 ADD SWAP1 PUSH2 0x31 SWAP2 SWAP1 PUSH2 0x1EB JUMP JUMPDEST DUP1 PUSH0 PUSH0 PUSH2 0x100 EXP DUP2 SLOAD DUP2 PUSH20 0xFFFFFFFFFFFFFFFFFFFFFFFFFFFFFFFFFFFFFFFF MUL NOT AND SWAP1 DUP4 PUSH20 0xFFFFFFFFFFFFFFFFFFFFFFFFFFFFFFFFFFFFFFFF AND MUL OR SWAP1 SSTORE POP PUSH0 PUSH0 SWAP1 SLOAD SWAP1 PUSH2 0x100 EXP SWAP1 DIV PUSH20 0xFFFFFFFFFFFFFFFFFFFFFFFFFFFFFFFFFFFFFFFF AND PUSH20 0xFFFFFFFFFFFFFFFFFFFFFFFFFFFFFFFFFFFFFFFF AND PUSH4 0xE354FED0 CALLER PUSH1 0x40 MLOAD DUP3 PUSH4 0xFFFFFFFF AND PUSH1 0xE0 SHL DUP2 MSTORE PUSH1 0x4 ADD PUSH2 0xC9 SWAP2 SWAP1 PUSH2 0x225 JUMP JUMPDEST PUSH1 0x20 PUSH1 0x40 MLOAD DUP1 DUP4 SUB DUP2 DUP7 GAS STATICCALL ISZERO DUP1 ISZERO PUSH2 0xE4 JUMPI RETURNDATASIZE PUSH0 PUSH0 RETURNDATACOPY RETURNDATASIZE PUSH0 REVERT JUMPDEST POP POP POP POP PUSH1 0x40 MLOAD RETURNDATASIZE PUSH1 0x1F NOT PUSH1 0x1F DUP3 ADD AND DUP3 ADD DUP1 PUSH1 0x40 MSTORE POP DUP2 ADD SWAP1 PUSH2 0x108 SWAP2 SWAP1 PUSH2 0x273 JUMP JUMPDEST PUSH2 0x147 JUMPI PUSH1 0x40 MLOAD PUSH32 0x8C379A000000000000000000000000000000000000000000000000000000000 DUP2 MSTORE PUSH1 0x4 ADD PUSH2 0x13E SWAP1 PUSH2 0x31E JUMP JUMPDEST PUSH1 0x40 MLOAD DUP1 SWAP2 SUB SWAP1 REVERT JUMPDEST CALLER PUSH1 0x2 PUSH0 PUSH2 0x100 EXP DUP2 SLOAD DUP2 PUSH20 0xFFFFFFFFFFFFFFFFFFFFFFFFFFFFFFFFFFFFFFFF MUL NOT AND SWAP1 DUP4 PUSH20 0xFFFFFFFFFFFFFFFFFFFFFFFFFFFFFFFFFFFFFFFF AND MUL OR SWAP1 SSTORE POP POP PUSH2 0x33C JUMP JUMPDEST PUSH0 PUSH0 REVERT JUMPDEST PUSH0 PUSH20 0xFFFFFFFFFFFFFFFFFFFFFFFFFFFFFFFFFFFFFFFF DUP3 AND SWAP1 POP SWAP2 SWAP1 POP JUMP JUMPDEST PUSH0 PUSH2 0x1BA DUP3 PUSH2 0x191 JUMP JUMPDEST SWAP1 POP SWAP2 SWAP1 POP JUMP JUMPDEST PUSH2 0x1CA DUP2 PUSH2 0x1B0 JUMP JUMPDEST DUP2 EQ PUSH2 0x1D4 JUMPI PUSH0 PUSH0 REVERT JUMPDEST POP JUMP JUMPDEST PUSH0 DUP2 MLOAD SWAP1 POP PUSH2 0x1E5 DUP2 PUSH2 0x1C1 JUMP JUMPDEST SWAP3 SWAP2 POP POP JUMP JUMPDEST PUSH0 PUSH1 0x20 DUP3 DUP5 SUB SLT ISZERO PUSH2 0x200 JUMPI PUSH2 0x1FF PUSH2 0x18D JUMP JUMPDEST JUMPDEST PUSH0 PUSH2 0x20D DUP5 DUP3 DUP6 ADD PUSH2 0x1D7 JUMP JUMPDEST SWAP2 POP POP SWAP3 SWAP2 POP POP JUMP JUMPDEST PUSH2 0x21F DUP2 PUSH2 0x1B0 JUMP JUMPDEST DUP3 MSTORE POP POP JUMP JUMPDEST PUSH0 PUSH1 0x20 DUP3 ADD SWAP1 POP PUSH2 0x238 PUSH0 DUP4 ADD DUP5 PUSH2 0x216 JUMP JUMPDEST SWAP3 SWAP2 POP POP JUMP JUMPDEST PUSH0 DUP2 ISZERO ISZERO SWAP1 POP SWAP2 SWAP1 POP JUMP JUMPDEST PUSH2 0x252 DUP2 PUSH2 0x23E JUMP JUMPDEST DUP2 EQ PUSH2 0x25C JUMPI PUSH0 PUSH0 REVERT JUMPDEST POP JUMP JUMPDEST PUSH0 DUP2 MLOAD SWAP1 POP PUSH2 0x26D DUP2 PUSH2 0x249 JUMP JUMPDEST SWAP3 SWAP2 POP POP JUMP JUMPDEST PUSH0 PUSH1 0x20 DUP3 DUP5 SUB SLT ISZERO PUSH2 0x288 JUMPI PUSH2 0x287 PUSH2 0x18D JUMP JUMPDEST JUMPDEST PUSH0 PUSH2 0x295 DUP5 DUP3 DUP6 ADD PUSH2 0x25F JUMP JUMPDEST SWAP2 POP POP SWAP3 SWAP2 POP POP JUMP JUMPDEST PUSH0 DUP3 DUP3 MSTORE PUSH1 0x20 DUP3 ADD SWAP1 POP SWAP3 SWAP2 POP POP JUMP JUMPDEST PUSH32 0x5468652073656E646572206973206E6F7420616E20617070726F76656420696E PUSH0 DUP3 ADD MSTORE PUSH32 0x737572616E63652070726F766964657200000000000000000000000000000000 PUSH1 0x20 DUP3 ADD MSTORE POP JUMP JUMPDEST PUSH0 PUSH2 0x308 PUSH1 0x30 DUP4 PUSH2 0x29E JUMP JUMPDEST SWAP2 POP PUSH2 0x313 DUP3 PUSH2 0x2AE JUMP JUMPDEST PUSH1 0x40 DUP3 ADD SWAP1 POP SWAP2 SWAP1 POP JUMP JUMPDEST PUSH0 PUSH1 0x20 DUP3 ADD SWAP1 POP DUP2 DUP2 SUB PUSH0 DUP4 ADD MSTORE PUSH2 0x335 DUP2 PUSH2 0x2FC JUMP JUMPDEST SWAP1 POP SWAP2 SWAP1 POP JUMP JUMPDEST PUSH2 0xE1F DUP1 PUSH2 0x349 PUSH0 CODECOPY PUSH0 RETURN INVALID PUSH1 0x80 PUSH1 0x40 MSTORE PUSH1 0x4 CALLDATASIZE LT PUSH2 0x54 JUMPI PUSH0 CALLDATALOAD PUSH1 0xE0 SHR DUP1 PUSH4 0x1C0C370A EQ PUSH2 0x58 JUMPI DUP1 PUSH4 0x24DF1274 EQ PUSH2 0x74 JUMPI DUP1 PUSH4 0x2CEC481C EQ PUSH2 0x9C JUMPI DUP1 PUSH4 0x41774C25 EQ PUSH2 0xD8 JUMPI DUP1 PUSH4 0xCE4C3E14 EQ PUSH2 0x114 JUMPI DUP1 PUSH4 0xF8B2CB4F EQ PUSH2 0x150 JUMPI JUMPDEST PUSH0 PUSH0 REVERT JUMPDEST PUSH2 0x72 PUSH1 0x4 DUP1 CALLDATASIZE SUB DUP2 ADD SWAP1 PUSH2 0x6D SWAP2 SWAP1 PUSH2 0x773 JUMP JUMPDEST PUSH2 0x18C JUMP JUMPDEST STOP JUMPDEST CALLVALUE DUP1 ISZERO PUSH2 0x7F JUMPI PUSH0 PUSH0 REVERT JUMPDEST POP PUSH2 0x9A PUSH1 0x4 DUP1 CALLDATASIZE SUB DUP2 ADD SWAP1 PUSH2 0x95 SWAP2 SWAP1 PUSH2 0x7C3 JUMP JUMPDEST PUSH2 0x4C9 JUMP JUMPDEST STOP JUMPDEST CALLVALUE DUP1 ISZERO PUSH2 0xA7 JUMPI PUSH0 PUSH0 REVERT JUMPDEST POP PUSH2 0xC2 PUSH1 0x4 DUP1 CALLDATASIZE SUB DUP2 ADD SWAP1 PUSH2 0xBD SWAP2 SWAP1 PUSH2 0x83A JUMP JUMPDEST PUSH2 0x636 JUMP JUMPDEST PUSH1 0x40 MLOAD PUSH2 0xCF SWAP2 SWAP1 PUSH2 0x874 JUMP JUMPDEST PUSH1 0x40 MLOAD DUP1 SWAP2 SUB SWAP1 RETURN JUMPDEST CALLVALUE DUP1 ISZERO PUSH2 0xE3 JUMPI PUSH0 PUSH0 REVERT JUMPDEST POP PUSH2 0xFE PUSH1 0x4 DUP1 CALLDATASIZE SUB DUP2 ADD SWAP1 PUSH2 0xF9 SWAP2 SWAP1 PUSH2 0x83A JUMP JUMPDEST PUSH2 0x653 JUMP JUMPDEST PUSH1 0x40 MLOAD PUSH2 0x10B SWAP2 SWAP1 PUSH2 0x874 JUMP JUMPDEST PUSH1 0x40 MLOAD DUP1 SWAP2 SUB SWAP1 RETURN JUMPDEST CALLVALUE DUP1 ISZERO PUSH2 0x11F JUMPI PUSH0 PUSH0 REVERT JUMPDEST POP PUSH2 0x13A PUSH1 0x4 DUP1 CALLDATASIZE SUB DUP2 ADD SWAP1 PUSH2 0x135 SWAP2 SWAP1 PUSH2 0x83A JUMP JUMPDEST PUSH2 0x670 JUMP JUMPDEST PUSH1 0x40 MLOAD PUSH2 0x147 SWAP2 SWAP1 PUSH2 0x874 JUMP JUMPDEST PUSH1 0x40 MLOAD DUP1 SWAP2 SUB SWAP1 RETURN JUMPDEST CALLVALUE DUP1 ISZERO PUSH2 0x15B JUMPI PUSH0 PUSH0 REVERT JUMPDEST POP PUSH2 0x176 PUSH1 0x4 DUP1 CALLDATASIZE SUB DUP2 ADD SWAP1 PUSH2 0x171 SWAP2 SWAP1 PUSH2 0x8C8 JUMP JUMPDEST PUSH2 0x68D JUMP JUMPDEST PUSH1 0x40 MLOAD PUSH2 0x183 SWAP2 SWAP1 PUSH2 0x874 JUMP JUMPDEST PUSH1 0x40 MLOAD DUP1 SWAP2 SUB SWAP1 RETURN JUMPDEST PUSH0 PUSH0 SWAP1 SLOAD SWAP1 PUSH2 0x100 EXP SWAP1 DIV PUSH20 0xFFFFFFFFFFFFFFFFFFFFFFFFFFFFFFFFFFFFFFFF AND PUSH20 0xFFFFFFFFFFFFFFFFFFFFFFFFFFFFFFFFFFFFFFFF AND PUSH4 0x7E0B782D CALLER PUSH1 0x40 MLOAD DUP3 PUSH4 0xFFFFFFFF AND PUSH1 0xE0 SHL DUP2 MSTORE PUSH1 0x4 ADD PUSH2 0x1E5 SWAP2 SWAP1 PUSH2 0x902 JUMP JUMPDEST PUSH1 0x20 PUSH1 0x40 MLOAD DUP1 DUP4 SUB DUP2 DUP7 GAS STATICCALL ISZERO DUP1 ISZERO PUSH2 0x200 JUMPI RETURNDATASIZE PUSH0 PUSH0 RETURNDATACOPY RETURNDATASIZE PUSH0 REVERT JUMPDEST POP POP POP POP PUSH1 0x40 MLOAD RETURNDATASIZE PUSH1 0x1F NOT PUSH1 0x1F DUP3 ADD AND DUP3 ADD DUP1 PUSH1 0x40 MSTORE POP DUP2 ADD SWAP1 PUSH2 0x224 SWAP2 SWAP1 PUSH2 0x92F JUMP JUMPDEST PUSH2 0x263 JUMPI PUSH1 0x40 MLOAD PUSH32 0x8C379A000000000000000000000000000000000000000000000000000000000 DUP2 MSTORE PUSH1 0x4 ADD PUSH2 0x25A SWAP1 PUSH2 0x9B4 JUMP JUMPDEST PUSH1 0x40 MLOAD DUP1 SWAP2 SUB SWAP1 REVERT JUMPDEST DUP3 PUSH2 0x2A3 JUMPI PUSH1 0x40 MLOAD PUSH32 0x8C379A000000000000000000000000000000000000000000000000000000000 DUP2 MSTORE PUSH1 0x4 ADD PUSH2 0x29A SWAP1 PUSH2 0xA42 JUMP JUMPDEST PUSH1 0x40 MLOAD DUP1 SWAP2 SUB SWAP1 REVERT JUMPDEST PUSH1 0x1 PUSH0 DUP4 DUP2 MSTORE PUSH1 0x20 ADD SWAP1 DUP2 MSTORE PUSH1 0x20 ADD PUSH0 KECCAK256 PUSH0 ADD SLOAD CALLVALUE EQ PUSH2 0x2F8 JUMPI PUSH1 0x40 MLOAD PUSH32 0x8C379A000000000000000000000000000000000000000000000000000000000 DUP2 MSTORE PUSH1 0x4 ADD PUSH2 0x2EF SWAP1 PUSH2 0xAAA JUMP JUMPDEST PUSH1 0x40 MLOAD DUP1 SWAP2 SUB SWAP1 REVERT JUMPDEST PUSH32 0x763833AA2090BD00557296CF0F5655E1BBB4CED7D7078AEDCB696A2DC217F2E3 DUP3 PUSH1 0x1 PUSH0 DUP6 DUP2 MSTORE PUSH1 0x20 ADD SWAP1 DUP2 MSTORE PUSH1 0x20 ADD PUSH0 KECCAK256 PUSH0 ADD SLOAD PUSH1 0x40 MLOAD PUSH2 0x33C SWAP3 SWAP2 SWAP1 PUSH2 0xB38 JUMP JUMPDEST PUSH1 0x40 MLOAD DUP1 SWAP2 SUB SWAP1 LOG1 PUSH0 PUSH0 SWAP1 SLOAD SWAP1 PUSH2 0x100 EXP SWAP1 DIV PUSH20 0xFFFFFFFFFFFFFFFFFFFFFFFFFFFFFFFFFFFFFFFF AND PUSH20 0xFFFFFFFFFFFFFFFFFFFFFFFFFFFFFFFFFFFFFFFF AND PUSH4 0xE354FED0 DUP3 PUSH1 0x40 MLOAD DUP3 PUSH4 0xFFFFFFFF AND PUSH1 0xE0 SHL DUP2 MSTORE PUSH1 0x4 ADD PUSH2 0x39D SWAP2 SWAP1 PUSH2 0xBCD JUMP JUMPDEST PUSH1 0x20 PUSH1 0x40 MLOAD DUP1 DUP4 SUB DUP2 DUP7 GAS STATICCALL ISZERO DUP1 ISZERO PUSH2 0x3B8 JUMPI RETURNDATASIZE PUSH0 PUSH0 RETURNDATACOPY RETURNDATASIZE PUSH0 REVERT JUMPDEST POP POP POP POP PUSH1 0x40 MLOAD RETURNDATASIZE PUSH1 0x1F NOT PUSH1 0x1F DUP3 ADD AND DUP3 ADD DUP1 PUSH1 0x40 MSTORE POP DUP2 ADD SWAP1 PUSH2 0x3DC SWAP2 SWAP1 PUSH2 0x92F JUMP JUMPDEST PUSH2 0x41B JUMPI PUSH1 0x40 MLOAD PUSH32 0x8C379A000000000000000000000000000000000000000000000000000000000 DUP2 MSTORE PUSH1 0x4 ADD PUSH2 0x412 SWAP1 PUSH2 0xC30 JUMP JUMPDEST PUSH1 0x40 MLOAD DUP1 SWAP2 SUB SWAP1 REVERT JUMPDEST PUSH0 DUP2 PUSH20 0xFFFFFFFFFFFFFFFFFFFFFFFFFFFFFFFFFFFFFFFF AND CALLVALUE PUSH1 0x40 MLOAD PUSH2 0x440 SWAP1 PUSH2 0xC7B JUMP JUMPDEST PUSH0 PUSH1 0x40 MLOAD DUP1 DUP4 SUB DUP2 DUP6 DUP8 GAS CALL SWAP3 POP POP POP RETURNDATASIZE DUP1 PUSH0 DUP2 EQ PUSH2 0x47A JUMPI PUSH1 0x40 MLOAD SWAP2 POP PUSH1 0x1F NOT PUSH1 0x3F RETURNDATASIZE ADD AND DUP3 ADD PUSH1 0x40 MSTORE RETURNDATASIZE DUP3 MSTORE RETURNDATASIZE PUSH0 PUSH1 0x20 DUP5 ADD RETURNDATACOPY PUSH2 0x47F JUMP JUMPDEST PUSH1 0x60 SWAP2 POP JUMPDEST POP POP SWAP1 POP DUP1 PUSH2 0x4C3 JUMPI PUSH1 0x40 MLOAD PUSH32 0x8C379A000000000000000000000000000000000000000000000000000000000 DUP2 MSTORE PUSH1 0x4 ADD PUSH2 0x4BA SWAP1 PUSH2 0xCD9 JUMP JUMPDEST PUSH1 0x40 MLOAD DUP1 SWAP2 SUB SWAP1 REVERT JUMPDEST POP POP POP POP JUMP JUMPDEST PUSH1 0x2 PUSH0 SWAP1 SLOAD SWAP1 PUSH2 0x100 EXP SWAP1 DIV PUSH20 0xFFFFFFFFFFFFFFFFFFFFFFFFFFFFFFFFFFFFFFFF AND PUSH20 0xFFFFFFFFFFFFFFFFFFFFFFFFFFFFFFFFFFFFFFFF AND CALLER PUSH20 0xFFFFFFFFFFFFFFFFFFFFFFFFFFFFFFFFFFFFFFFF AND EQ PUSH2 0x558 JUMPI PUSH1 0x40 MLOAD PUSH32 0x8C379A000000000000000000000000000000000000000000000000000000000 DUP2 MSTORE PUSH1 0x4 ADD PUSH2 0x54F SWAP1 PUSH2 0x9B4 JUMP JUMPDEST PUSH1 0x40 MLOAD DUP1 SWAP2 SUB SWAP1 REVERT JUMPDEST PUSH0 DUP5 EQ PUSH2 0x578 JUMPI DUP4 PUSH1 0x1 PUSH0 DUP8 DUP2 MSTORE PUSH1 0x20 ADD SWAP1 DUP2 MSTORE PUSH1 0x20 ADD PUSH0 KECCAK256 PUSH0 ADD DUP2 SWAP1 SSTORE POP JUMPDEST PUSH3 0x15180 DUP4 PUSH2 0x587 SWAP2 SWAP1 PUSH2 0xD24 JUMP JUMPDEST TIMESTAMP PUSH2 0x592 SWAP2 SWAP1 PUSH2 0xD65 JUMP JUMPDEST PUSH1 0x1 PUSH0 DUP8 DUP2 MSTORE PUSH1 0x20 ADD SWAP1 DUP2 MSTORE PUSH1 0x20 ADD PUSH0 KECCAK256 PUSH1 0x1 ADD DUP2 SWAP1 SSTORE POP DUP2 PUSH1 0x1 PUSH0 DUP8 DUP2 MSTORE PUSH1 0x20 ADD SWAP1 DUP2 MSTORE PUSH1 0x20 ADD PUSH0 KECCAK256 PUSH1 0x2 ADD DUP2 SWAP1 SSTORE POP DUP1 PUSH1 0x1 PUSH0 DUP8 DUP2 MSTORE PUSH1 0x20 ADD SWAP1 DUP2 MSTORE PUSH1 0x20 ADD PUSH0 KECCAK256 PUSH1 0x3 ADD DUP2 SWAP1 SSTORE POP PUSH32 0xF34A0DBA7BCB34E680A729EDBFD3D9374C0DD595E8608D9B81ECF4B32299E3F7 DUP6 DUP6 PUSH1 0x1 PUSH0 DUP10 DUP2 MSTORE PUSH1 0x20 ADD SWAP1 DUP2 MSTORE PUSH1 0x20 ADD PUSH0 KECCAK256 PUSH1 0x1 ADD SLOAD DUP6 DUP6 PUSH1 0x40 MLOAD PUSH2 0x627 SWAP6 SWAP5 SWAP4 SWAP3 SWAP2 SWAP1 PUSH2 0xD98 JUMP JUMPDEST PUSH1 0x40 MLOAD DUP1 SWAP2 SUB SWAP1 LOG1 POP POP POP POP POP JUMP JUMPDEST PUSH0 PUSH1 0x1 PUSH0 DUP4 DUP2 MSTORE PUSH1 0x20 ADD SWAP1 DUP2 MSTORE PUSH1 0x20 ADD PUSH0 KECCAK256 PUSH1 0x3 ADD SLOAD SWAP1 POP SWAP2 SWAP1 POP JUMP JUMPDEST PUSH0 PUSH1 0x1 PUSH0 DUP4 DUP2 MSTORE PUSH1 0x20 ADD SWAP1 DUP2 MSTORE PUSH1 0x20 ADD PUSH0 KECCAK256 PUSH1 0x1 ADD SLOAD SWAP1 POP SWAP2 SWAP1 POP JUMP JUMPDEST PUSH0 PUSH1 0x1 PUSH0 DUP4 DUP2 MSTORE PUSH1 0x20 ADD SWAP1 DUP2 MSTORE PUSH1 0x20 ADD PUSH0 KECCAK256 PUSH1 0x2 ADD SLOAD SWAP1 POP SWAP2 SWAP1 POP JUMP JUMPDEST PUSH0 DUP2 PUSH20 0xFFFFFFFFFFFFFFFFFFFFFFFFFFFFFFFFFFFFFFFF AND BALANCE SWAP1 POP SWAP2 SWAP1 POP JUMP JUMPDEST PUSH0 PUSH0 REVERT JUMPDEST PUSH0 DUP2 ISZERO ISZERO SWAP1 POP SWAP2 SWAP1 POP JUMP JUMPDEST PUSH2 0x6C5 DUP2 PUSH2 0x6B1 JUMP JUMPDEST DUP2 EQ PUSH2 0x6CF JUMPI PUSH0 PUSH0 REVERT JUMPDEST POP JUMP JUMPDEST PUSH0 DUP2 CALLDATALOAD SWAP1 POP PUSH2 0x6E0 DUP2 PUSH2 0x6BC JUMP JUMPDEST SWAP3 SWAP2 POP POP JUMP JUMPDEST PUSH0 DUP2 SWAP1 POP SWAP2 SWAP1 POP JUMP JUMPDEST PUSH2 0x6F8 DUP2 PUSH2 0x6E6 JUMP JUMPDEST DUP2 EQ PUSH2 0x702 JUMPI PUSH0 PUSH0 REVERT JUMPDEST POP JUMP JUMPDEST PUSH0 DUP2 CALLDATALOAD SWAP1 POP PUSH2 0x713 DUP2 PUSH2 0x6EF JUMP JUMPDEST SWAP3 SWAP2 POP POP JUMP JUMPDEST PUSH0 PUSH20 0xFFFFFFFFFFFFFFFFFFFFFFFFFFFFFFFFFFFFFFFF DUP3 AND SWAP1 POP SWAP2 SWAP1 POP JUMP JUMPDEST PUSH0 PUSH2 0x742 DUP3 PUSH2 0x719 JUMP JUMPDEST SWAP1 POP SWAP2 SWAP1 POP JUMP JUMPDEST PUSH2 0x752 DUP2 PUSH2 0x738 JUMP JUMPDEST DUP2 EQ PUSH2 0x75C JUMPI PUSH0 PUSH0 REVERT JUMPDEST POP JUMP JUMPDEST PUSH0 DUP2 CALLDATALOAD SWAP1 POP PUSH2 0x76D DUP2 PUSH2 0x749 JUMP JUMPDEST SWAP3 SWAP2 POP POP JUMP JUMPDEST PUSH0 PUSH0 PUSH0 PUSH1 0x60 DUP5 DUP7 SUB SLT ISZERO PUSH2 0x78A JUMPI PUSH2 0x789 PUSH2 0x6AD JUMP JUMPDEST JUMPDEST PUSH0 PUSH2 0x797 DUP7 DUP3 DUP8 ADD PUSH2 0x6D2 JUMP JUMPDEST SWAP4 POP POP PUSH1 0x20 PUSH2 0x7A8 DUP7 DUP3 DUP8 ADD PUSH2 0x705 JUMP JUMPDEST SWAP3 POP POP PUSH1 0x40 PUSH2 0x7B9 DUP7 DUP3 DUP8 ADD PUSH2 0x75F JUMP JUMPDEST SWAP2 POP POP SWAP3 POP SWAP3 POP SWAP3 JUMP JUMPDEST PUSH0 PUSH0 PUSH0 PUSH0 PUSH0 PUSH1 0xA0 DUP7 DUP9 SUB SLT ISZERO PUSH2 0x7DC JUMPI PUSH2 0x7DB PUSH2 0x6AD JUMP JUMPDEST JUMPDEST PUSH0 PUSH2 0x7E9 DUP9 DUP3 DUP10 ADD PUSH2 0x705 JUMP JUMPDEST SWAP6 POP POP PUSH1 0x20 PUSH2 0x7FA DUP9 DUP3 DUP10 ADD PUSH2 0x705 JUMP JUMPDEST SWAP5 POP POP PUSH1 0x40 PUSH2 0x80B DUP9 DUP3 DUP10 ADD PUSH2 0x705 JUMP JUMPDEST SWAP4 POP POP PUSH1 0x60 PUSH2 0x81C DUP9 DUP3 DUP10 ADD PUSH2 0x705 JUMP JUMPDEST SWAP3 POP POP PUSH1 0x80 PUSH2 0x82D DUP9 DUP3 DUP10 ADD PUSH2 0x705 JUMP JUMPDEST SWAP2 POP POP SWAP3 SWAP6 POP SWAP3 SWAP6 SWAP1 SWAP4 POP JUMP JUMPDEST PUSH0 PUSH1 0x20 DUP3 DUP5 SUB SLT ISZERO PUSH2 0x84F JUMPI PUSH2 0x84E PUSH2 0x6AD JUMP JUMPDEST JUMPDEST PUSH0 PUSH2 0x85C DUP5 DUP3 DUP6 ADD PUSH2 0x705 JUMP JUMPDEST SWAP2 POP POP SWAP3 SWAP2 POP POP JUMP JUMPDEST PUSH2 0x86E DUP2 PUSH2 0x6E6 JUMP JUMPDEST DUP3 MSTORE POP POP JUMP JUMPDEST PUSH0 PUSH1 0x20 DUP3 ADD SWAP1 POP PUSH2 0x887 PUSH0 DUP4 ADD DUP5 PUSH2 0x865 JUMP JUMPDEST SWAP3 SWAP2 POP POP JUMP JUMPDEST PUSH0 PUSH2 0x897 DUP3 PUSH2 0x719 JUMP JUMPDEST SWAP1 POP SWAP2 SWAP1 POP JUMP JUMPDEST PUSH2 0x8A7 DUP2 PUSH2 0x88D JUMP JUMPDEST DUP2 EQ PUSH2 0x8B1 JUMPI PUSH0 PUSH0 REVERT JUMPDEST POP JUMP JUMPDEST PUSH0 DUP2 CALLDATALOAD SWAP1 POP PUSH2 0x8C2 DUP2 PUSH2 0x89E JUMP JUMPDEST SWAP3 SWAP2 POP POP JUMP JUMPDEST PUSH0 PUSH1 0x20 DUP3 DUP5 SUB SLT ISZERO PUSH2 0x8DD JUMPI PUSH2 0x8DC PUSH2 0x6AD JUMP JUMPDEST JUMPDEST PUSH0 PUSH2 0x8EA DUP5 DUP3 DUP6 ADD PUSH2 0x8B4 JUMP JUMPDEST SWAP2 POP POP SWAP3 SWAP2 POP POP JUMP JUMPDEST PUSH2 0x8FC DUP2 PUSH2 0x88D JUMP JUMPDEST DUP3 MSTORE POP POP JUMP JUMPDEST PUSH0 PUSH1 0x20 DUP3 ADD SWAP1 POP PUSH2 0x915 PUSH0 DUP4 ADD DUP5 PUSH2 0x8F3 JUMP JUMPDEST SWAP3 SWAP2 POP POP JUMP JUMPDEST PUSH0 DUP2 MLOAD SWAP1 POP PUSH2 0x929 DUP2 PUSH2 0x6BC JUMP JUMPDEST SWAP3 SWAP2 POP POP JUMP JUMPDEST PUSH0 PUSH1 0x20 DUP3 DUP5 SUB SLT ISZERO PUSH2 0x944 JUMPI PUSH2 0x943 PUSH2 0x6AD JUMP JUMPDEST JUMPDEST PUSH0 PUSH2 0x951 DUP5 DUP3 DUP6 ADD PUSH2 0x91B JUMP JUMPDEST SWAP2 POP POP SWAP3 SWAP2 POP POP JUMP JUMPDEST PUSH0 DUP3 DUP3 MSTORE PUSH1 0x20 DUP3 ADD SWAP1 POP SWAP3 SWAP2 POP POP JUMP JUMPDEST PUSH32 0x53656E646572206E6F7420617574686F72697A65642E00000000000000000000 PUSH0 DUP3 ADD MSTORE POP JUMP JUMPDEST PUSH0 PUSH2 0x99E PUSH1 0x16 DUP4 PUSH2 0x95A JUMP JUMPDEST SWAP2 POP PUSH2 0x9A9 DUP3 PUSH2 0x96A JUMP JUMPDEST PUSH1 0x20 DUP3 ADD SWAP1 POP SWAP2 SWAP1 POP JUMP JUMPDEST PUSH0 PUSH1 0x20 DUP3 ADD SWAP1 POP DUP2 DUP2 SUB PUSH0 DUP4 ADD MSTORE PUSH2 0x9CB DUP2 PUSH2 0x992 JUMP JUMPDEST SWAP1 POP SWAP2 SWAP1 POP JUMP JUMPDEST PUSH32 0x4661726D657220646F6573206E6F742061677265652077697468207468652070 PUSH0 DUP3 ADD MSTORE PUSH32 0x6F6C696379000000000000000000000000000000000000000000000000000000 PUSH1 0x20 DUP3 ADD MSTORE POP JUMP JUMPDEST PUSH0 PUSH2 0xA2C PUSH1 0x25 DUP4 PUSH2 0x95A JUMP JUMPDEST SWAP2 POP PUSH2 0xA37 DUP3 PUSH2 0x9D2 JUMP JUMPDEST PUSH1 0x40 DUP3 ADD SWAP1 POP SWAP2 SWAP1 POP JUMP JUMPDEST PUSH0 PUSH1 0x20 DUP3 ADD SWAP1 POP DUP2 DUP2 SUB PUSH0 DUP4 ADD MSTORE PUSH2 0xA59 DUP2 PUSH2 0xA20 JUMP JUMPDEST SWAP1 POP SWAP2 SWAP1 POP JUMP JUMPDEST PUSH32 0x496E636F727265637420696E737572616E6365207072656D69756D0000000000 PUSH0 DUP3 ADD MSTORE POP JUMP JUMPDEST PUSH0 PUSH2 0xA94 PUSH1 0x1B DUP4 PUSH2 0x95A JUMP JUMPDEST SWAP2 POP PUSH2 0xA9F DUP3 PUSH2 0xA60 JUMP JUMPDEST PUSH1 0x20 DUP3 ADD SWAP1 POP SWAP2 SWAP1 POP JUMP JUMPDEST PUSH0 PUSH1 0x20 DUP3 ADD SWAP1 POP DUP2 DUP2 SUB PUSH0 DUP4 ADD MSTORE PUSH2 0xAC1 DUP2 PUSH2 0xA88 JUMP JUMPDEST SWAP1 POP SWAP2 SWAP1 POP JUMP JUMPDEST PUSH32 0x4661726D65722061677265656420746F2074686520696E737572616E63652070 PUSH0 DUP3 ADD MSTORE PUSH32 0x6F6C696379000000000000000000000000000000000000000000000000000000 PUSH1 0x20 DUP3 ADD MSTORE POP JUMP JUMPDEST PUSH0 PUSH2 0xB22 PUSH1 0x25 DUP4 PUSH2 0x95A JUMP JUMPDEST SWAP2 POP PUSH2 0xB2D DUP3 PUSH2 0xAC8 JUMP JUMPDEST PUSH1 0x40 DUP3 ADD SWAP1 POP SWAP2 SWAP1 POP JUMP JUMPDEST PUSH0 PUSH1 0x60 DUP3 ADD SWAP1 POP DUP2 DUP2 SUB PUSH0 DUP4 ADD MSTORE PUSH2 0xB4F DUP2 PUSH2 0xB16 JUMP JUMPDEST SWAP1 POP PUSH2 0xB5E PUSH1 0x20 DUP4 ADD DUP6 PUSH2 0x865 JUMP JUMPDEST PUSH2 0xB6B PUSH1 0x40 DUP4 ADD DUP5 PUSH2 0x865 JUMP JUMPDEST SWAP4 SWAP3 POP POP POP JUMP JUMPDEST PUSH0 DUP2 SWAP1 POP SWAP2 SWAP1 POP JUMP JUMPDEST PUSH0 PUSH2 0xB95 PUSH2 0xB90 PUSH2 0xB8B DUP5 PUSH2 0x719 JUMP JUMPDEST PUSH2 0xB72 JUMP JUMPDEST PUSH2 0x719 JUMP JUMPDEST SWAP1 POP SWAP2 SWAP1 POP JUMP JUMPDEST PUSH0 PUSH2 0xBA6 DUP3 PUSH2 0xB7B JUMP JUMPDEST SWAP1 POP SWAP2 SWAP1 POP JUMP JUMPDEST PUSH0 PUSH2 0xBB7 DUP3 PUSH2 0xB9C JUMP JUMPDEST SWAP1 POP SWAP2 SWAP1 POP JUMP JUMPDEST PUSH2 0xBC7 DUP2 PUSH2 0xBAD JUMP JUMPDEST DUP3 MSTORE POP POP JUMP JUMPDEST PUSH0 PUSH1 0x20 DUP3 ADD SWAP1 POP PUSH2 0xBE0 PUSH0 DUP4 ADD DUP5 PUSH2 0xBBE JUMP JUMPDEST SWAP3 SWAP2 POP POP JUMP JUMPDEST PUSH32 0x496E76616C696420696E737572616E63652070726F7669646572000000000000 PUSH0 DUP3 ADD MSTORE POP JUMP JUMPDEST PUSH0 PUSH2 0xC1A PUSH1 0x1A DUP4 PUSH2 0x95A JUMP JUMPDEST SWAP2 POP PUSH2 0xC25 DUP3 PUSH2 0xBE6 JUMP JUMPDEST PUSH1 0x20 DUP3 ADD SWAP1 POP SWAP2 SWAP1 POP JUMP JUMPDEST PUSH0 PUSH1 0x20 DUP3 ADD SWAP1 POP DUP2 DUP2 SUB PUSH0 DUP4 ADD MSTORE PUSH2 0xC47 DUP2 PUSH2 0xC0E JUMP JUMPDEST SWAP1 POP SWAP2 SWAP1 POP JUMP JUMPDEST PUSH0 DUP2 SWAP1 POP SWAP3 SWAP2 POP POP JUMP JUMPDEST POP JUMP JUMPDEST PUSH0 PUSH2 0xC66 PUSH0 DUP4 PUSH2 0xC4E JUMP JUMPDEST SWAP2 POP PUSH2 0xC71 DUP3 PUSH2 0xC58 JUMP JUMPDEST PUSH0 DUP3 ADD SWAP1 POP SWAP2 SWAP1 POP JUMP JUMPDEST PUSH0 PUSH2 0xC85 DUP3 PUSH2 0xC5B JUMP JUMPDEST SWAP2 POP DUP2 SWAP1 POP SWAP2 SWAP1 POP JUMP JUMPDEST PUSH32 0x4661696C656420746F2073656E64204574686572000000000000000000000000 PUSH0 DUP3 ADD MSTORE POP JUMP JUMPDEST PUSH0 PUSH2 0xCC3 PUSH1 0x14 DUP4 PUSH2 0x95A JUMP JUMPDEST SWAP2 POP PUSH2 0xCCE DUP3 PUSH2 0xC8F JUMP JUMPDEST PUSH1 0x20 DUP3 ADD SWAP1 POP SWAP2 SWAP1 POP JUMP JUMPDEST PUSH0 PUSH1 0x20 DUP3 ADD SWAP1 POP DUP2 DUP2 SUB PUSH0 DUP4 ADD MSTORE PUSH2 0xCF0 DUP2 PUSH2 0xCB7 JUMP JUMPDEST SWAP1 POP SWAP2 SWAP1 POP JUMP JUMPDEST PUSH32 0x4E487B7100000000000000000000000000000000000000000000000000000000 PUSH0 MSTORE PUSH1 0x11 PUSH1 0x4 MSTORE PUSH1 0x24 PUSH0 REVERT JUMPDEST PUSH0 PUSH2 0xD2E DUP3 PUSH2 0x6E6 JUMP JUMPDEST SWAP2 POP PUSH2 0xD39 DUP4 PUSH2 0x6E6 JUMP JUMPDEST SWAP3 POP DUP3 DUP3 MUL PUSH2 0xD47 DUP2 PUSH2 0x6E6 JUMP JUMPDEST SWAP2 POP DUP3 DUP3 DIV DUP5 EQ DUP4 ISZERO OR PUSH2 0xD5E JUMPI PUSH2 0xD5D PUSH2 0xCF7 JUMP JUMPDEST JUMPDEST POP SWAP3 SWAP2 POP POP JUMP JUMPDEST PUSH0 PUSH2 0xD6F DUP3 PUSH2 0x6E6 JUMP JUMPDEST SWAP2 POP PUSH2 0xD7A DUP4 PUSH2 0x6E6 JUMP JUMPDEST SWAP3 POP DUP3 DUP3 ADD SWAP1 POP DUP1 DUP3 GT ISZERO PUSH2 0xD92 JUMPI PUSH2 0xD91 PUSH2 0xCF7 JUMP JUMPDEST JUMPDEST SWAP3 SWAP2 POP POP JUMP JUMPDEST PUSH0 PUSH1 0xA0 DUP3 ADD SWAP1 POP PUSH2 0xDAB PUSH0 DUP4 ADD DUP9 PUSH2 0x865 JUMP JUMPDEST PUSH2 0xDB8 PUSH1 0x20 DUP4 ADD DUP8 PUSH2 0x865 JUMP JUMPDEST PUSH2 0xDC5 PUSH1 0x40 DUP4 ADD DUP7 PUSH2 0x865 JUMP JUMPDEST PUSH2 0xDD2 PUSH1 0x60 DUP4 ADD DUP6 PUSH2 0x865 JUMP JUMPDEST PUSH2 0xDDF PUSH1 0x80 DUP4 ADD DUP5 PUSH2 0x865 JUMP JUMPDEST SWAP7 SWAP6 POP POP POP POP POP POP JUMP INVALID LOG2 PUSH5 0x6970667358 0x22 SLT KECCAK256 0xD6 CALLER PUSH15 0x4BB5AA41BB34256463A59DE2B98671 0xC6 0xD3 0xE 0xDC 0xB6 PUSH13 0xF11A90D7CAAEBAB064736F6C63 NUMBER STOP ADDMOD SAR STOP CALLER "
		},
		"gasEstimates": {
			"creation": {
				"codeDepositCost": "723000",
				"executionCost": "infinite",
				"totalCost": "infinite"
			},
			"external": {
				"AgreedIndexLevel(uint256)": "infinite",
				"InsurancePayOut(uint256)": "infinite",
				"InsurancePeriod(uint256)": "infinite",
				"addInsurancePolicy(uint256,uint256,uint256,uint256,uint256)": "infinite",
				"getBalance(address)": "3335",
				"payInsurancePremium(bool,uint256,address)": "infinite"
			}
		},
		"methodIdentifiers": {
			"AgreedIndexLevel(uint256)": "2cec481c",
			"InsurancePayOut(uint256)": "ce4c3e14",
			"InsurancePeriod(uint256)": "41774c25",
			"addInsurancePolicy(uint256,uint256,uint256,uint256,uint256)": "24df1274",
			"getBalance(address)": "f8b2cb4f",
			"payInsurancePremium(bool,uint256,address)": "1c0c370a"
		}
	},
	"abi": [
		{
			"inputs": [
				{
					"internalType": "address",
					"name": "registrationAddress",
					"type": "address"
				}
			],
			"stateMutability": "nonpayable",
			"type": "constructor"
		},
		{
			"anonymous": false,
			"inputs": [
				{
					"indexed": false,
					"internalType": "string",
					"name": "message",
					"type": "string"
				},
				{
					"indexed": false,
					"internalType": "uint256",
					"name": "policy_number",
					"type": "uint256"
				},
				{
					"indexed": false,
					"internalType": "uint256",
					"name": "premium",
					"type": "uint256"
				}
			],
			"name": "InsuranceAgreed",
			"type": "event"
		},
		{
			"anonymous": false,
			"inputs": [
				{
					"indexed": false,
					"internalType": "uint256",
					"name": "policy_number",
					"type": "uint256"
				},
				{
					"indexed": false,
					"internalType": "uint256",
					"name": "insurance_premium",
					"type": "uint256"
				},
				{
					"indexed": false,
					"internalType": "uint256",
					"name": "insurance_period",
					"type": "uint256"
				},
				{
					"indexed": false,
					"internalType": "uint256",
					"name": "agreed_payout_amount",
					"type": "uint256"
				},
				{
					"indexed": false,
					"internalType": "uint256",
					"name": "agreed_index_level",
					"type": "uint256"
				}
			],
			"name": "NewInsurancePolicyAdded",
			"type": "event"
		},
		{
			"inputs": [
				{
					"internalType": "uint256",
					"name": "policy_number",
					"type": "uint256"
				}
			],
			"name": "AgreedIndexLevel",
			"outputs": [
				{
					"internalType": "uint256",
					"name": "",
					"type": "uint256"
				}
			],
			"stateMutability": "view",
			"type": "function"
		},
		{
			"inputs": [
				{
					"internalType": "uint256",
					"name": "policy_number",
					"type": "uint256"
				}
			],
			"name": "InsurancePayOut",
			"outputs": [
				{
					"internalType": "uint256",
					"name": "",
					"type": "uint256"
				}
			],
			"stateMutability": "view",
			"type": "function"
		},
		{
			"inputs": [
				{
					"internalType": "uint256",
					"name": "policy_number",
					"type": "uint256"
				}
			],
			"name": "InsurancePeriod",
			"outputs": [
				{
					"internalType": "uint256",
					"name": "",
					"type": "uint256"
				}
			],
			"stateMutability": "view",
			"type": "function"
		},
		{
			"inputs": [
				{
					"internalType": "uint256",
					"name": "policy_number",
					"type": "uint256"
				},
				{
					"internalType": "uint256",
					"name": "insurance_premium",
					"type": "uint256"
				},
				{
					"internalType": "uint256",
					"name": "insurance_period",
					"type": "uint256"
				},
				{
					"internalType": "uint256",
					"name": "agreed_payout_amount",
					"type": "uint256"
				},
				{
					"internalType": "uint256",
					"name": "agreed_index_level",
					"type": "uint256"
				}
			],
			"name": "addInsurancePolicy",
			"outputs": [],
			"stateMutability": "nonpayable",
			"type": "function"
		},
		{
			"inputs": [
				{
					"internalType": "address",
					"name": "desired_address",
					"type": "address"
				}
			],
			"name": "getBalance",
			"outputs": [
				{
					"internalType": "uint256",
					"name": "",
					"type": "uint256"
				}
			],
			"stateMutability": "view",
			"type": "function"
		},
		{
			"inputs": [
				{
					"internalType": "bool",
					"name": "farmerDecision",
					"type": "bool"
				},
				{
					"internalType": "uint256",
					"name": "policy_number",
					"type": "uint256"
				},
				{
					"internalType": "address payable",
					"name": "insurance_provider",
					"type": "address"
				}
			],
			"name": "payInsurancePremium",
			"outputs": [],
			"stateMutability": "payable",
			"type": "function"
		}
	]
}