{
	"data": {
		"bytecode": {
			"linkReferences": {},
			"object": "60e060405234801561000f575f5ffd5b5060405161075038038061075083398181016040528101906100319190610132565b8173ffffffffffffffffffffffffffffffffffffffff1660808173ffffffffffffffffffffffffffffffffffffffff16815250508073ffffffffffffffffffffffffffffffffffffffff1660a08173ffffffffffffffffffffffffffffffffffffffff16815250503373ffffffffffffffffffffffffffffffffffffffff1660c08173ffffffffffffffffffffffffffffffffffffffff16815250505050610170565b5f5ffd5b5f73ffffffffffffffffffffffffffffffffffffffff82169050919050565b5f610101826100d8565b9050919050565b610111816100f7565b811461011b575f5ffd5b50565b5f8151905061012c81610108565b92915050565b5f5f60408385031215610148576101476100d4565b5b5f6101558582860161011e565b92505060206101668582860161011e565b9150509250929050565b60805160a05160c0516105b661019a5f395f61010501525f61020101525f61012901526105b65ff3fe608060405234801561000f575f5ffd5b506004361061004a575f3560e01c80631311be701461004e5780638da5cb5b1461007e578063b0ea08ef1461009c578063c5f9274c146100b8575b5f5ffd5b61006860048036038101906100639190610359565b6100e8565b6040516100759190610393565b60405180910390f35b610086610103565b60405161009391906103eb565b60405180910390f35b6100b660048036038101906100b19190610404565b610127565b005b6100d260048036038101906100cd9190610359565b610309565b6040516100df9190610393565b60405180910390f35b5f5f5f8381526020019081526020015f205f01549050919050565b7f000000000000000000000000000000000000000000000000000000000000000081565b7f000000000000000000000000000000000000000000000000000000000000000073ffffffffffffffffffffffffffffffffffffffff1663048287a5336040518263ffffffff1660e01b815260040161018091906103eb565b602060405180830381865afa15801561019b573d5f5f3e3d5ffd5b505050506040513d601f19601f820116820180604052508101906101bf9190610477565b6101fe576040517f08c379a00000000000000000000000000000000000000000000000000000000081526004016101f5906104fc565b60405180910390fd5b5f7f000000000000000000000000000000000000000000000000000000000000000073ffffffffffffffffffffffffffffffffffffffff166341774c25846040518263ffffffff1660e01b81526004016102589190610393565b602060405180830381865afa158015610273573d5f5f3e3d5ffd5b505050506040513d601f19601f82011682018060405250810190610297919061052e565b9050804210156102b957815f5f8581526020019081526020015f205f01819055505b7fb29dce70f935ec0c392fc0e1b5dfb4b5c5681641f306279cd1364b358f0d69ce835f5f8681526020019081526020015f205f01546040516102fc929190610559565b60405180910390a1505050565b5f602052805f5260405f205f91509050805f0154905081565b5f5ffd5b5f819050919050565b61033881610326565b8114610342575f5ffd5b50565b5f813590506103538161032f565b92915050565b5f6020828403121561036e5761036d610322565b5b5f61037b84828501610345565b91505092915050565b61038d81610326565b82525050565b5f6020820190506103a65f830184610384565b92915050565b5f73ffffffffffffffffffffffffffffffffffffffff82169050919050565b5f6103d5826103ac565b9050919050565b6103e5816103cb565b82525050565b5f6020820190506103fe5f8301846103dc565b92915050565b5f5f6040838503121561041a57610419610322565b5b5f61042785828601610345565b925050602061043885828601610345565b9150509250929050565b5f8115159050919050565b61045681610442565b8114610460575f5ffd5b50565b5f815190506104718161044d565b92915050565b5f6020828403121561048c5761048b610322565b5b5f61049984828501610463565b91505092915050565b5f82825260208201905092915050565b7f53656e646572206e6f7420617574686f72697a65642e000000000000000000005f82015250565b5f6104e66016836104a2565b91506104f1826104b2565b602082019050919050565b5f6020820190508181035f830152610513816104da565b9050919050565b5f815190506105288161032f565b92915050565b5f6020828403121561054357610542610322565b5b5f6105508482850161051a565b91505092915050565b5f60408201905061056c5f830185610384565b6105796020830184610384565b939250505056fea264697066735822122061b2f3a8522c59929a72ae651d1bf0ce670dca6abc5af2960d34815b7575796c64736f6c634300081d0033",
			"opcodes": "PUSH1 0xE0 PUSH1 0x40 MSTORE CALLVALUE DUP1 ISZERO PUSH2 0xF JUMPI PUSH0 PUSH0 REVERT JUMPDEST POP PUSH1 0x40 MLOAD PUSH2 0x750 CODESIZE SUB DUP1 PUSH2 0x750 DUP4 CODECOPY DUP2 DUP2 ADD PUSH1 0x40 MSTORE DUP2 ADD SWAP1 PUSH2 0x31 SWAP2 SWAP1 PUSH2 0x132 JUMP JUMPDEST DUP2 PUSH20 0xFFFFFFFFFFFFFFFFFFFFFFFFFFFFFFFFFFFFFFFF AND PUSH1 0x80 DUP2 PUSH20 0xFFFFFFFFFFFFFFFFFFFFFFFFFFFFFFFFFFFFFFFF AND DUP2 MSTORE POP POP DUP1 PUSH20 0xFFFFFFFFFFFFFFFFFFFFFFFFFFFFFFFFFFFFFFFF AND PUSH1 0xA0 DUP2 PUSH20 0xFFFFFFFFFFFFFFFFFFFFFFFFFFFFFFFFFFFFFFFF AND DUP2 MSTORE POP POP CALLER PUSH20 0xFFFFFFFFFFFFFFFFFFFFFFFFFFFFFFFFFFFFFFFF AND PUSH1 0xC0 DUP2 PUSH20 0xFFFFFFFFFFFFFFFFFFFFFFFFFFFFFFFFFFFFFFFF AND DUP2 MSTORE POP POP POP POP PUSH2 0x170 JUMP JUMPDEST PUSH0 PUSH0 REVERT JUMPDEST PUSH0 PUSH20 0xFFFFFFFFFFFFFFFFFFFFFFFFFFFFFFFFFFFFFFFF DUP3 AND SWAP1 POP SWAP2 SWAP1 POP JUMP JUMPDEST PUSH0 PUSH2 0x101 DUP3 PUSH2 0xD8 JUMP JUMPDEST SWAP1 POP SWAP2 SWAP1 POP JUMP JUMPDEST PUSH2 0x111 DUP2 PUSH2 0xF7 JUMP JUMPDEST DUP2 EQ PUSH2 0x11B JUMPI PUSH0 PUSH0 REVERT JUMPDEST POP JUMP JUMPDEST PUSH0 DUP2 MLOAD SWAP1 POP PUSH2 0x12C DUP2 PUSH2 0x108 JUMP JUMPDEST SWAP3 SWAP2 POP POP JUMP JUMPDEST PUSH0 PUSH0 PUSH1 0x40 DUP4 DUP6 SUB SLT ISZERO PUSH2 0x148 JUMPI PUSH2 0x147 PUSH2 0xD4 JUMP JUMPDEST JUMPDEST PUSH0 PUSH2 0x155 DUP6 DUP3 DUP7 ADD PUSH2 0x11E JUMP JUMPDEST SWAP3 POP POP PUSH1 0x20 PUSH2 0x166 DUP6 DUP3 DUP7 ADD PUSH2 0x11E JUMP JUMPDEST SWAP2 POP POP SWAP3 POP SWAP3 SWAP1 POP JUMP JUMPDEST PUSH1 0x80 MLOAD PUSH1 0xA0 MLOAD PUSH1 0xC0 MLOAD PUSH2 0x5B6 PUSH2 0x19A PUSH0 CODECOPY PUSH0 PUSH2 0x105 ADD MSTORE PUSH0 PUSH2 0x201 ADD MSTORE PUSH0 PUSH2 0x129 ADD MSTORE PUSH2 0x5B6 PUSH0 RETURN INVALID PUSH1 0x80 PUSH1 0x40 MSTORE CALLVALUE DUP1 ISZERO PUSH2 0xF JUMPI PUSH0 PUSH0 REVERT JUMPDEST POP PUSH1 0x4 CALLDATASIZE LT PUSH2 0x4A JUMPI PUSH0 CALLDATALOAD PUSH1 0xE0 SHR DUP1 PUSH4 0x1311BE70 EQ PUSH2 0x4E JUMPI DUP1 PUSH4 0x8DA5CB5B EQ PUSH2 0x7E JUMPI DUP1 PUSH4 0xB0EA08EF EQ PUSH2 0x9C JUMPI DUP1 PUSH4 0xC5F9274C EQ PUSH2 0xB8 JUMPI JUMPDEST PUSH0 PUSH0 REVERT JUMPDEST PUSH2 0x68 PUSH1 0x4 DUP1 CALLDATASIZE SUB DUP2 ADD SWAP1 PUSH2 0x63 SWAP2 SWAP1 PUSH2 0x359 JUMP JUMPDEST PUSH2 0xE8 JUMP JUMPDEST PUSH1 0x40 MLOAD PUSH2 0x75 SWAP2 SWAP1 PUSH2 0x393 JUMP JUMPDEST PUSH1 0x40 MLOAD DUP1 SWAP2 SUB SWAP1 RETURN JUMPDEST PUSH2 0x86 PUSH2 0x103 JUMP JUMPDEST PUSH1 0x40 MLOAD PUSH2 0x93 SWAP2 SWAP1 PUSH2 0x3EB JUMP JUMPDEST PUSH1 0x40 MLOAD DUP1 SWAP2 SUB SWAP1 RETURN JUMPDEST PUSH2 0xB6 PUSH1 0x4 DUP1 CALLDATASIZE SUB DUP2 ADD SWAP1 PUSH2 0xB1 SWAP2 SWAP1 PUSH2 0x404 JUMP JUMPDEST PUSH2 0x127 JUMP JUMPDEST STOP JUMPDEST PUSH2 0xD2 PUSH1 0x4 DUP1 CALLDATASIZE SUB DUP2 ADD SWAP1 PUSH2 0xCD SWAP2 SWAP1 PUSH2 0x359 JUMP JUMPDEST PUSH2 0x309 JUMP JUMPDEST PUSH1 0x40 MLOAD PUSH2 0xDF SWAP2 SWAP1 PUSH2 0x393 JUMP JUMPDEST PUSH1 0x40 MLOAD DUP1 SWAP2 SUB SWAP1 RETURN JUMPDEST PUSH0 PUSH0 PUSH0 DUP4 DUP2 MSTORE PUSH1 0x20 ADD SWAP1 DUP2 MSTORE PUSH1 0x20 ADD PUSH0 KECCAK256 PUSH0 ADD SLOAD SWAP1 POP SWAP2 SWAP1 POP JUMP JUMPDEST PUSH32 0x0 DUP2 JUMP JUMPDEST PUSH32 0x0 PUSH20 0xFFFFFFFFFFFFFFFFFFFFFFFFFFFFFFFFFFFFFFFF AND PUSH4 0x48287A5 CALLER PUSH1 0x40 MLOAD DUP3 PUSH4 0xFFFFFFFF AND PUSH1 0xE0 SHL DUP2 MSTORE PUSH1 0x4 ADD PUSH2 0x180 SWAP2 SWAP1 PUSH2 0x3EB JUMP JUMPDEST PUSH1 0x20 PUSH1 0x40 MLOAD DUP1 DUP4 SUB DUP2 DUP7 GAS STATICCALL ISZERO DUP1 ISZERO PUSH2 0x19B JUMPI RETURNDATASIZE PUSH0 PUSH0 RETURNDATACOPY RETURNDATASIZE PUSH0 REVERT JUMPDEST POP POP POP POP PUSH1 0x40 MLOAD RETURNDATASIZE PUSH1 0x1F NOT PUSH1 0x1F DUP3 ADD AND DUP3 ADD DUP1 PUSH1 0x40 MSTORE POP DUP2 ADD SWAP1 PUSH2 0x1BF SWAP2 SWAP1 PUSH2 0x477 JUMP JUMPDEST PUSH2 0x1FE JUMPI PUSH1 0x40 MLOAD PUSH32 0x8C379A000000000000000000000000000000000000000000000000000000000 DUP2 MSTORE PUSH1 0x4 ADD PUSH2 0x1F5 SWAP1 PUSH2 0x4FC JUMP JUMPDEST PUSH1 0x40 MLOAD DUP1 SWAP2 SUB SWAP1 REVERT JUMPDEST PUSH0 PUSH32 0x0 PUSH20 0xFFFFFFFFFFFFFFFFFFFFFFFFFFFFFFFFFFFFFFFF AND PUSH4 0x41774C25 DUP5 PUSH1 0x40 MLOAD DUP3 PUSH4 0xFFFFFFFF AND PUSH1 0xE0 SHL DUP2 MSTORE PUSH1 0x4 ADD PUSH2 0x258 SWAP2 SWAP1 PUSH2 0x393 JUMP JUMPDEST PUSH1 0x20 PUSH1 0x40 MLOAD DUP1 DUP4 SUB DUP2 DUP7 GAS STATICCALL ISZERO DUP1 ISZERO PUSH2 0x273 JUMPI RETURNDATASIZE PUSH0 PUSH0 RETURNDATACOPY RETURNDATASIZE PUSH0 REVERT JUMPDEST POP POP POP POP PUSH1 0x40 MLOAD RETURNDATASIZE PUSH1 0x1F NOT PUSH1 0x1F DUP3 ADD AND DUP3 ADD DUP1 PUSH1 0x40 MSTORE POP DUP2 ADD SWAP1 PUSH2 0x297 SWAP2 SWAP1 PUSH2 0x52E JUMP JUMPDEST SWAP1 POP DUP1 TIMESTAMP LT ISZERO PUSH2 0x2B9 JUMPI DUP2 PUSH0 PUSH0 DUP6 DUP2 MSTORE PUSH1 0x20 ADD SWAP1 DUP2 MSTORE PUSH1 0x20 ADD PUSH0 KECCAK256 PUSH0 ADD DUP2 SWAP1 SSTORE POP JUMPDEST PUSH32 0xB29DCE70F935EC0C392FC0E1B5DFB4B5C5681641F306279CD1364B358F0D69CE DUP4 PUSH0 PUSH0 DUP7 DUP2 MSTORE PUSH1 0x20 ADD SWAP1 DUP2 MSTORE PUSH1 0x20 ADD PUSH0 KECCAK256 PUSH0 ADD SLOAD PUSH1 0x40 MLOAD PUSH2 0x2FC SWAP3 SWAP2 SWAP1 PUSH2 0x559 JUMP JUMPDEST PUSH1 0x40 MLOAD DUP1 SWAP2 SUB SWAP1 LOG1 POP POP POP JUMP JUMPDEST PUSH0 PUSH1 0x20 MSTORE DUP1 PUSH0 MSTORE PUSH1 0x40 PUSH0 KECCAK256 PUSH0 SWAP2 POP SWAP1 POP DUP1 PUSH0 ADD SLOAD SWAP1 POP DUP2 JUMP JUMPDEST PUSH0 PUSH0 REVERT JUMPDEST PUSH0 DUP2 SWAP1 POP SWAP2 SWAP1 POP JUMP JUMPDEST PUSH2 0x338 DUP2 PUSH2 0x326 JUMP JUMPDEST DUP2 EQ PUSH2 0x342 JUMPI PUSH0 PUSH0 REVERT JUMPDEST POP JUMP JUMPDEST PUSH0 DUP2 CALLDATALOAD SWAP1 POP PUSH2 0x353 DUP2 PUSH2 0x32F JUMP JUMPDEST SWAP3 SWAP2 POP POP JUMP JUMPDEST PUSH0 PUSH1 0x20 DUP3 DUP5 SUB SLT ISZERO PUSH2 0x36E JUMPI PUSH2 0x36D PUSH2 0x322 JUMP JUMPDEST JUMPDEST PUSH0 PUSH2 0x37B DUP5 DUP3 DUP6 ADD PUSH2 0x345 JUMP JUMPDEST SWAP2 POP POP SWAP3 SWAP2 POP POP JUMP JUMPDEST PUSH2 0x38D DUP2 PUSH2 0x326 JUMP JUMPDEST DUP3 MSTORE POP POP JUMP JUMPDEST PUSH0 PUSH1 0x20 DUP3 ADD SWAP1 POP PUSH2 0x3A6 PUSH0 DUP4 ADD DUP5 PUSH2 0x384 JUMP JUMPDEST SWAP3 SWAP2 POP POP JUMP JUMPDEST PUSH0 PUSH20 0xFFFFFFFFFFFFFFFFFFFFFFFFFFFFFFFFFFFFFFFF DUP3 AND SWAP1 POP SWAP2 SWAP1 POP JUMP JUMPDEST PUSH0 PUSH2 0x3D5 DUP3 PUSH2 0x3AC JUMP JUMPDEST SWAP1 POP SWAP2 SWAP1 POP JUMP JUMPDEST PUSH2 0x3E5 DUP2 PUSH2 0x3CB JUMP JUMPDEST DUP3 MSTORE POP POP JUMP JUMPDEST PUSH0 PUSH1 0x20 DUP3 ADD SWAP1 POP PUSH2 0x3FE PUSH0 DUP4 ADD DUP5 PUSH2 0x3DC JUMP JUMPDEST SWAP3 SWAP2 POP POP JUMP JUMPDEST PUSH0 PUSH0 PUSH1 0x40 DUP4 DUP6 SUB SLT ISZERO PUSH2 0x41A JUMPI PUSH2 0x419 PUSH2 0x322 JUMP JUMPDEST JUMPDEST PUSH0 PUSH2 0x427 DUP6 DUP3 DUP7 ADD PUSH2 0x345 JUMP JUMPDEST SWAP3 POP POP PUSH1 0x20 PUSH2 0x438 DUP6 DUP3 DUP7 ADD PUSH2 0x345 JUMP JUMPDEST SWAP2 POP POP SWAP3 POP SWAP3 SWAP1 POP JUMP JUMPDEST PUSH0 DUP2 ISZERO ISZERO SWAP1 POP SWAP2 SWAP1 POP JUMP JUMPDEST PUSH2 0x456 DUP2 PUSH2 0x442 JUMP JUMPDEST DUP2 EQ PUSH2 0x460 JUMPI PUSH0 PUSH0 REVERT JUMPDEST POP JUMP JUMPDEST PUSH0 DUP2 MLOAD SWAP1 POP PUSH2 0x471 DUP2 PUSH2 0x44D JUMP JUMPDEST SWAP3 SWAP2 POP POP JUMP JUMPDEST PUSH0 PUSH1 0x20 DUP3 DUP5 SUB SLT ISZERO PUSH2 0x48C JUMPI PUSH2 0x48B PUSH2 0x322 JUMP JUMPDEST JUMPDEST PUSH0 PUSH2 0x499 DUP5 DUP3 DUP6 ADD PUSH2 0x463 JUMP JUMPDEST SWAP2 POP POP SWAP3 SWAP2 POP POP JUMP JUMPDEST PUSH0 DUP3 DUP3 MSTORE PUSH1 0x20 DUP3 ADD SWAP1 POP SWAP3 SWAP2 POP POP JUMP JUMPDEST PUSH32 0x53656E646572206E6F7420617574686F72697A65642E00000000000000000000 PUSH0 DUP3 ADD MSTORE POP JUMP JUMPDEST PUSH0 PUSH2 0x4E6 PUSH1 0x16 DUP4 PUSH2 0x4A2 JUMP JUMPDEST SWAP2 POP PUSH2 0x4F1 DUP3 PUSH2 0x4B2 JUMP JUMPDEST PUSH1 0x20 DUP3 ADD SWAP1 POP SWAP2 SWAP1 POP JUMP JUMPDEST PUSH0 PUSH1 0x20 DUP3 ADD SWAP1 POP DUP2 DUP2 SUB PUSH0 DUP4 ADD MSTORE PUSH2 0x513 DUP2 PUSH2 0x4DA JUMP JUMPDEST SWAP1 POP SWAP2 SWAP1 POP JUMP JUMPDEST PUSH0 DUP2 MLOAD SWAP1 POP PUSH2 0x528 DUP2 PUSH2 0x32F JUMP JUMPDEST SWAP3 SWAP2 POP POP JUMP JUMPDEST PUSH0 PUSH1 0x20 DUP3 DUP5 SUB SLT ISZERO PUSH2 0x543 JUMPI PUSH2 0x542 PUSH2 0x322 JUMP JUMPDEST JUMPDEST PUSH0 PUSH2 0x550 DUP5 DUP3 DUP6 ADD PUSH2 0x51A JUMP JUMPDEST SWAP2 POP POP SWAP3 SWAP2 POP POP JUMP JUMPDEST PUSH0 PUSH1 0x40 DUP3 ADD SWAP1 POP PUSH2 0x56C PUSH0 DUP4 ADD DUP6 PUSH2 0x384 JUMP JUMPDEST PUSH2 0x579 PUSH1 0x20 DUP4 ADD DUP5 PUSH2 0x384 JUMP JUMPDEST SWAP4 SWAP3 POP POP POP JUMP INVALID LOG2 PUSH5 0x6970667358 0x22 SLT KECCAK256 PUSH2 0xB2F3 0xA8 MSTORE 0x2C MSIZE SWAP3 SWAP11 PUSH19 0xAE651D1BF0CE670DCA6ABC5AF2960D34815B75 PUSH22 0x796C64736F6C634300081D0033000000000000000000 "
		},
		"gasEstimates": {
			"creation": {
				"codeDepositCost": "292400",
				"executionCost": "infinite",
				"totalCost": "infinite"
			},
			"external": {
				"IndexLevel(uint256)": "infinite",
				"owner()": "infinite",
				"reportWeatherStatus(uint256,uint256)": "infinite",
				"weather(uint256)": "infinite"
			}
		},
		"methodIdentifiers": {
			"IndexLevel(uint256)": "1311be70",
			"owner()": "8da5cb5b",
			"reportWeatherStatus(uint256,uint256)": "b0ea08ef",
			"weather(uint256)": "c5f9274c"
		}
	},
	"abi": [
		{
			"inputs": [
				{
					"internalType": "address",
					"name": "registrationAddress",
					"type": "address"
				},
				{
					"internalType": "address",
					"name": "insuranceAddress",
					"type": "address"
				}
			],
			"stateMutability": "nonpayable",
			"type": "constructor"
		},
		{
			"anonymous": false,
			"inputs": [
				{
					"indexed": false,
					"internalType": "uint256",
					"name": "policy_number",
					"type": "uint256"
				},
				{
					"indexed": false,
					"internalType": "uint256",
					"name": "index_level",
					"type": "uint256"
				}
			],
			"name": "WeatherUpdate",
			"type": "event"
		},
		{
			"inputs": [
				{
					"internalType": "uint256",
					"name": "policy_number",
					"type": "uint256"
				}
			],
			"name": "IndexLevel",
			"outputs": [
				{
					"internalType": "uint256",
					"name": "",
					"type": "uint256"
				}
			],
			"stateMutability": "view",
			"type": "function"
		},
		{
			"inputs": [],
			"name": "owner",
			"outputs": [
				{
					"internalType": "address",
					"name": "",
					"type": "address"
				}
			],
			"stateMutability": "view",
			"type": "function"
		},
		{
			"inputs": [
				{
					"internalType": "uint256",
					"name": "policy_number",
					"type": "uint256"
				},
				{
					"internalType": "uint256",
					"name": "index_level",
					"type": "uint256"
				}
			],
			"name": "reportWeatherStatus",
			"outputs": [],
			"stateMutability": "nonpayable",
			"type": "function"
		},
		{
			"inputs": [
				{
					"internalType": "uint256",
					"name": "",
					"type": "uint256"
				}
			],
			"name": "weather",
			"outputs": [
				{
					"internalType": "uint256",
					"name": "index_level",
					"type": "uint256"
				}
			],
			"stateMutability": "view",
			"type": "function"
		}
	]
}